{
  "_format": "hh-sol-artifact-1",
  "contractName": "Eggvents",
  "sourceName": "contracts/Eggvents.sol",
  "abi": [
    {
      "inputs": [
        {
          "internalType": "string",
          "name": "givenBaseURI",
          "type": "string"
        },
        {
          "internalType": "address",
          "name": "givenOracle",
          "type": "address"
        }
      ],
      "stateMutability": "nonpayable",
      "type": "constructor"
    },
    {
      "inputs": [],
      "name": "ApprovalCallerNotOwnerNorApproved",
      "type": "error"
    },
    {
      "inputs": [],
      "name": "ApprovalQueryForNonexistentToken",
      "type": "error"
    },
    {
      "inputs": [],
      "name": "BalanceQueryForZeroAddress",
      "type": "error"
    },
    {
      "inputs": [],
      "name": "MintERC2309QuantityExceedsLimit",
      "type": "error"
    },
    {
      "inputs": [],
      "name": "MintToZeroAddress",
      "type": "error"
    },
    {
      "inputs": [],
      "name": "MintZeroQuantity",
      "type": "error"
    },
    {
      "inputs": [],
      "name": "OwnerQueryForNonexistentToken",
      "type": "error"
    },
    {
      "inputs": [],
      "name": "OwnershipNotInitializedForExtraData",
      "type": "error"
    },
    {
      "inputs": [],
      "name": "TransferCallerNotOwnerNorApproved",
      "type": "error"
    },
    {
      "inputs": [],
      "name": "TransferFromIncorrectOwner",
      "type": "error"
    },
    {
      "inputs": [],
      "name": "TransferToNonERC721ReceiverImplementer",
      "type": "error"
    },
    {
      "inputs": [],
      "name": "TransferToZeroAddress",
      "type": "error"
    },
    {
      "inputs": [],
      "name": "URIQueryForNonexistentToken",
      "type": "error"
    },
    {
      "anonymous": false,
      "inputs": [
        {
          "indexed": true,
          "internalType": "address",
          "name": "owner",
          "type": "address"
        },
        {
          "indexed": true,
          "internalType": "address",
          "name": "approved",
          "type": "address"
        },
        {
          "indexed": true,
          "internalType": "uint256",
          "name": "tokenId",
          "type": "uint256"
        }
      ],
      "name": "Approval",
      "type": "event"
    },
    {
      "anonymous": false,
      "inputs": [
        {
          "indexed": true,
          "internalType": "address",
          "name": "owner",
          "type": "address"
        },
        {
          "indexed": true,
          "internalType": "address",
          "name": "operator",
          "type": "address"
        },
        {
          "indexed": false,
          "internalType": "bool",
          "name": "approved",
          "type": "bool"
        }
      ],
      "name": "ApprovalForAll",
      "type": "event"
    },
    {
      "anonymous": false,
      "inputs": [
        {
          "indexed": true,
          "internalType": "uint256",
          "name": "fromTokenId",
          "type": "uint256"
        },
        {
          "indexed": false,
          "internalType": "uint256",
          "name": "toTokenId",
          "type": "uint256"
        },
        {
          "indexed": true,
          "internalType": "address",
          "name": "from",
          "type": "address"
        },
        {
          "indexed": true,
          "internalType": "address",
          "name": "to",
          "type": "address"
        }
      ],
      "name": "ConsecutiveTransfer",
      "type": "event"
    },
    {
      "anonymous": false,
      "inputs": [
        {
          "indexed": true,
          "internalType": "address",
          "name": "previousOwner",
          "type": "address"
        },
        {
          "indexed": true,
          "internalType": "address",
          "name": "newOwner",
          "type": "address"
        }
      ],
      "name": "OwnershipTransferred",
      "type": "event"
    },
    {
      "anonymous": false,
      "inputs": [
        {
          "indexed": true,
          "internalType": "address",
          "name": "from",
          "type": "address"
        },
        {
          "indexed": true,
          "internalType": "address",
          "name": "to",
          "type": "address"
        },
        {
          "indexed": true,
          "internalType": "uint256",
          "name": "tokenId",
          "type": "uint256"
        }
      ],
      "name": "Transfer",
      "type": "event"
    },
    {
      "inputs": [
        {
          "internalType": "address",
          "name": "to",
          "type": "address"
        },
        {
          "internalType": "uint256",
          "name": "tokenId",
          "type": "uint256"
        }
      ],
      "name": "approve",
      "outputs": [],
      "stateMutability": "payable",
      "type": "function"
    },
    {
      "inputs": [
        {
          "internalType": "address",
          "name": "owner",
          "type": "address"
        }
      ],
      "name": "balanceOf",
      "outputs": [
        {
          "internalType": "uint256",
          "name": "",
          "type": "uint256"
        }
      ],
      "stateMutability": "view",
      "type": "function"
    },
    {
      "inputs": [],
      "name": "baseURI",
      "outputs": [
        {
          "internalType": "string",
          "name": "",
          "type": "string"
        }
      ],
      "stateMutability": "view",
      "type": "function"
    },
    {
      "inputs": [
        {
          "internalType": "string",
          "name": "newBaseURI",
          "type": "string"
        }
      ],
      "name": "changeBaseURI",
      "outputs": [],
      "stateMutability": "nonpayable",
      "type": "function"
    },
    {
      "inputs": [
        {
          "internalType": "address",
          "name": "newOracle",
          "type": "address"
        }
      ],
      "name": "changeOracle",
      "outputs": [],
      "stateMutability": "nonpayable",
      "type": "function"
    },
    {
      "inputs": [
        {
          "components": [
            {
              "internalType": "string",
              "name": "tokenType",
              "type": "string"
            },
            {
              "internalType": "address",
              "name": "receiver",
              "type": "address"
            }
          ],
          "internalType": "struct Eggvents.Voucher",
          "name": "voucher",
          "type": "tuple"
        },
        {
          "internalType": "bytes",
          "name": "signature",
          "type": "bytes"
        }
      ],
      "name": "discover",
      "outputs": [
        {
          "internalType": "uint256",
          "name": "",
          "type": "uint256"
        }
      ],
      "stateMutability": "payable",
      "type": "function"
    },
    {
      "inputs": [
        {
          "internalType": "uint256",
          "name": "",
          "type": "uint256"
        }
      ],
      "name": "eggIdToType",
      "outputs": [
        {
          "internalType": "string",
          "name": "",
          "type": "string"
        }
      ],
      "stateMutability": "view",
      "type": "function"
    },
    {
      "inputs": [
        {
          "internalType": "uint256",
          "name": "tokenId",
          "type": "uint256"
        }
      ],
      "name": "getApproved",
      "outputs": [
        {
          "internalType": "address",
          "name": "",
          "type": "address"
        }
      ],
      "stateMutability": "view",
      "type": "function"
    },
    {
      "inputs": [
        {
          "internalType": "address",
          "name": "owner",
          "type": "address"
        }
      ],
      "name": "getOwnerEggIds",
      "outputs": [
        {
          "internalType": "uint256[]",
          "name": "",
          "type": "uint256[]"
        }
      ],
      "stateMutability": "view",
      "type": "function"
    },
    {
      "inputs": [
        {
          "internalType": "address",
          "name": "owner",
          "type": "address"
        }
      ],
      "name": "getOwnerEggTypes",
      "outputs": [
        {
          "internalType": "string[]",
          "name": "",
          "type": "string[]"
        }
      ],
      "stateMutability": "view",
      "type": "function"
    },
    {
      "inputs": [
        {
          "internalType": "address",
          "name": "owner",
          "type": "address"
        },
        {
          "internalType": "address",
          "name": "operator",
          "type": "address"
        }
      ],
      "name": "isApprovedForAll",
      "outputs": [
        {
          "internalType": "bool",
          "name": "",
          "type": "bool"
        }
      ],
      "stateMutability": "view",
      "type": "function"
    },
    {
      "inputs": [],
      "name": "name",
      "outputs": [
        {
          "internalType": "string",
          "name": "",
          "type": "string"
        }
      ],
      "stateMutability": "view",
      "type": "function"
    },
    {
      "inputs": [],
      "name": "oracle",
      "outputs": [
        {
          "internalType": "address",
          "name": "",
          "type": "address"
        }
      ],
      "stateMutability": "view",
      "type": "function"
    },
    {
      "inputs": [],
      "name": "owner",
      "outputs": [
        {
          "internalType": "address",
          "name": "",
          "type": "address"
        }
      ],
      "stateMutability": "view",
      "type": "function"
    },
    {
      "inputs": [
        {
          "internalType": "uint256",
          "name": "tokenId",
          "type": "uint256"
        }
      ],
      "name": "ownerOf",
      "outputs": [
        {
          "internalType": "address",
          "name": "",
          "type": "address"
        }
      ],
      "stateMutability": "view",
      "type": "function"
    },
    {
      "inputs": [
        {
          "internalType": "address",
          "name": "",
          "type": "address"
        },
        {
          "internalType": "uint256",
          "name": "",
          "type": "uint256"
        }
      ],
      "name": "ownerToEggIds",
      "outputs": [
        {
          "internalType": "uint256",
          "name": "",
          "type": "uint256"
        }
      ],
      "stateMutability": "view",
      "type": "function"
    },
    {
      "inputs": [
        {
          "internalType": "address",
          "name": "",
          "type": "address"
        },
        {
          "internalType": "uint256",
          "name": "",
          "type": "uint256"
        }
      ],
      "name": "ownerToEggTypes",
      "outputs": [
        {
          "internalType": "string",
          "name": "",
          "type": "string"
        }
      ],
      "stateMutability": "view",
      "type": "function"
    },
    {
      "inputs": [],
      "name": "renounceOwnership",
      "outputs": [],
      "stateMutability": "nonpayable",
      "type": "function"
    },
    {
      "inputs": [
        {
          "internalType": "address",
          "name": "from",
          "type": "address"
        },
        {
          "internalType": "address",
          "name": "to",
          "type": "address"
        },
        {
          "internalType": "uint256",
          "name": "tokenId",
          "type": "uint256"
        }
      ],
      "name": "safeTransferFrom",
      "outputs": [],
      "stateMutability": "payable",
      "type": "function"
    },
    {
      "inputs": [
        {
          "internalType": "address",
          "name": "from",
          "type": "address"
        },
        {
          "internalType": "address",
          "name": "to",
          "type": "address"
        },
        {
          "internalType": "uint256",
          "name": "tokenId",
          "type": "uint256"
        },
        {
          "internalType": "bytes",
          "name": "_data",
          "type": "bytes"
        }
      ],
      "name": "safeTransferFrom",
      "outputs": [],
      "stateMutability": "payable",
      "type": "function"
    },
    {
      "inputs": [
        {
          "internalType": "address",
          "name": "operator",
          "type": "address"
        },
        {
          "internalType": "bool",
          "name": "approved",
          "type": "bool"
        }
      ],
      "name": "setApprovalForAll",
      "outputs": [],
      "stateMutability": "nonpayable",
      "type": "function"
    },
    {
      "inputs": [
        {
          "internalType": "bytes4",
          "name": "interfaceId",
          "type": "bytes4"
        }
      ],
      "name": "supportsInterface",
      "outputs": [
        {
          "internalType": "bool",
          "name": "",
          "type": "bool"
        }
      ],
      "stateMutability": "view",
      "type": "function"
    },
    {
      "inputs": [],
      "name": "symbol",
      "outputs": [
        {
          "internalType": "string",
          "name": "",
          "type": "string"
        }
      ],
      "stateMutability": "view",
      "type": "function"
    },
    {
      "inputs": [
        {
          "internalType": "uint256",
          "name": "tokenId",
          "type": "uint256"
        }
      ],
      "name": "tokenURI",
      "outputs": [
        {
          "internalType": "string",
          "name": "",
          "type": "string"
        }
      ],
      "stateMutability": "view",
      "type": "function"
    },
    {
      "inputs": [],
      "name": "totalSupply",
      "outputs": [
        {
          "internalType": "uint256",
          "name": "",
          "type": "uint256"
        }
      ],
      "stateMutability": "view",
      "type": "function"
    },
    {
      "inputs": [
        {
          "internalType": "address",
          "name": "from",
          "type": "address"
        },
        {
          "internalType": "address",
          "name": "to",
          "type": "address"
        },
        {
          "internalType": "uint256",
          "name": "tokenId",
          "type": "uint256"
        }
      ],
      "name": "transferFrom",
      "outputs": [],
      "stateMutability": "payable",
      "type": "function"
    },
    {
      "inputs": [
        {
          "internalType": "address",
          "name": "newOwner",
          "type": "address"
        }
      ],
      "name": "transferOwnership",
      "outputs": [],
      "stateMutability": "nonpayable",
      "type": "function"
    }
  ],
  "bytecode": "0x6101406040523480156200001257600080fd5b50604051620045b0380380620045b08339818101604052810190620000389190620004dd565b6040518060400160405280600a81526020017f7465682d726170746f72000000000000000000000000000000000000000000008152506040518060400160405280600381526020017f312e3000000000000000000000000000000000000000000000000000000000008152506040518060400160405280600881526020017f45676776656e74730000000000000000000000000000000000000000000000008152506040518060400160405280600781526020017f454747564e545300000000000000000000000000000000000000000000000000815250816002908051906020019062000128929190620003a4565b50806003908051906020019062000141929190620003a4565b50620001526200029160201b60201c565b600081905550505060008280519060200120905060008280519060200120905060007f8b73c3c69bb8fe3d512ecc4cf759cc79239f7b179b0ffacaa9a75d522b39400f90508260e081815250508161010081815250504660a08181525050620001c38184846200029a60201b60201c565b608081815250503073ffffffffffffffffffffffffffffffffffffffff1660c08173ffffffffffffffffffffffffffffffffffffffff1660601b8152505080610120818152505050505050506200022f62000223620002d660201b60201c565b620002de60201b60201c565b816009908051906020019062000247929190620003a4565b5080600a60006101000a81548173ffffffffffffffffffffffffffffffffffffffff021916908373ffffffffffffffffffffffffffffffffffffffff160217905550505062000799565b60006001905090565b60008383834630604051602001620002b79594939291906200056a565b6040516020818303038152906040528051906020012090509392505050565b600033905090565b6000600860009054906101000a900473ffffffffffffffffffffffffffffffffffffffff16905081600860006101000a81548173ffffffffffffffffffffffffffffffffffffffff021916908373ffffffffffffffffffffffffffffffffffffffff1602179055508173ffffffffffffffffffffffffffffffffffffffff168173ffffffffffffffffffffffffffffffffffffffff167f8be0079c531659141344cd1fd0a4f28419497f9722a3daafe3b4186f6b6457e060405160405180910390a35050565b828054620003b290620006a4565b90600052602060002090601f016020900481019282620003d6576000855562000422565b82601f10620003f157805160ff191683800117855562000422565b8280016001018555821562000422579182015b828111156200042157825182559160200191906001019062000404565b5b50905062000431919062000435565b5090565b5b808211156200045057600081600090555060010162000436565b5090565b60006200046b6200046584620005f0565b620005c7565b9050828152602081018484840111156200048457600080fd5b620004918482856200066e565b509392505050565b600081519050620004aa816200077f565b92915050565b600082601f830112620004c257600080fd5b8151620004d484826020860162000454565b91505092915050565b60008060408385031215620004f157600080fd5b600083015167ffffffffffffffff8111156200050c57600080fd5b6200051a85828601620004b0565b92505060206200052d8582860162000499565b9150509250929050565b620005428162000626565b82525050565b62000553816200063a565b82525050565b620005648162000664565b82525050565b600060a08201905062000581600083018862000548565b62000590602083018762000548565b6200059f604083018662000548565b620005ae606083018562000559565b620005bd608083018462000537565b9695505050505050565b6000620005d3620005e6565b9050620005e18282620006da565b919050565b6000604051905090565b600067ffffffffffffffff8211156200060e576200060d6200073f565b5b62000619826200076e565b9050602081019050919050565b6000620006338262000644565b9050919050565b6000819050919050565b600073ffffffffffffffffffffffffffffffffffffffff82169050919050565b6000819050919050565b60005b838110156200068e57808201518184015260208101905062000671565b838111156200069e576000848401525b50505050565b60006002820490506001821680620006bd57607f821691505b60208210811415620006d457620006d362000710565b5b50919050565b620006e5826200076e565b810181811067ffffffffffffffff821117156200070757620007066200073f565b5b80604052505050565b7f4e487b7100000000000000000000000000000000000000000000000000000000600052602260045260246000fd5b7f4e487b7100000000000000000000000000000000000000000000000000000000600052604160045260246000fd5b6000601f19601f8301169050919050565b6200078a8162000626565b81146200079657600080fd5b50565b60805160a05160c05160601c60e0516101005161012051613dc4620007ec60003960006122d401526000612316015260006122f50152600061222a01526000612280015260006122a90152613dc46000f3fe60806040526004361061019c5760003560e01c80636c0360eb116100ec578063a22cb4651161008a578063cc03617911610064578063cc036179146105bd578063d89d897f146105fa578063e985e9c514610637578063f2fde38b146106745761019c565b8063a22cb4651461053b578063b88d4fde14610564578063c87b56dd146105805761019c565b80637dc0d1d0116100c65780637dc0d1d01461048a57806385bc2ff5146104b55780638da5cb5b146104e557806395d89b41146105105761019c565b80636c0360eb1461040b57806370a0823114610436578063715018a6146104735761019c565b806339a0c6f9116101595780634cfd2f8d116101335780634cfd2f8d14610317578063513445d214610354578063587b8524146103915780636352211e146103ce5761019c565b806339a0c6f9146102a957806342842e0e146102d257806347c421b5146102ee5761019c565b806301ffc9a7146101a157806306fdde03146101de578063081812fc14610209578063095ea7b31461024657806318160ddd1461026257806323b872dd1461028d575b600080fd5b3480156101ad57600080fd5b506101c860048036038101906101c39190612f06565b61069d565b6040516101d59190613556565b60405180910390f35b3480156101ea57600080fd5b506101f361072f565b6040516102009190613640565b60405180910390f35b34801561021557600080fd5b50610230600480360381019061022b9190613009565b6107c1565b60405161023d91906134ab565b60405180910390f35b610260600480360381019061025b9190612eca565b610840565b005b34801561026e57600080fd5b50610277610984565b6040516102849190613742565b60405180910390f35b6102a760048036038101906102a29190612dc4565b61099b565b005b3480156102b557600080fd5b506102d060048036038101906102cb9190612f58565b610cc0565b005b6102ec60048036038101906102e79190612dc4565b610d56565b005b3480156102fa57600080fd5b5061031560048036038101906103109190612d5f565b610d76565b005b34801561032357600080fd5b5061033e60048036038101906103399190612d5f565b610e36565b60405161034b9190613512565b60405180910390f35b34801561036057600080fd5b5061037b60048036038101906103769190613009565b610f54565b6040516103889190613640565b60405180910390f35b34801561039d57600080fd5b506103b860048036038101906103b39190612eca565b610ff4565b6040516103c59190613742565b60405180910390f35b3480156103da57600080fd5b506103f560048036038101906103f09190613009565b611025565b60405161040291906134ab565b60405180910390f35b34801561041757600080fd5b50610420611037565b60405161042d9190613640565b60405180910390f35b34801561044257600080fd5b5061045d60048036038101906104589190612d5f565b6110c5565b60405161046a9190613742565b60405180910390f35b34801561047f57600080fd5b5061048861117e565b005b34801561049657600080fd5b5061049f611206565b6040516104ac91906134ab565b60405180910390f35b6104cf60048036038101906104ca9190612f99565b61122c565b6040516104dc9190613742565b60405180910390f35b3480156104f157600080fd5b506104fa611509565b60405161050791906134ab565b60405180910390f35b34801561051c57600080fd5b50610525611533565b6040516105329190613640565b60405180910390f35b34801561054757600080fd5b50610562600480360381019061055d9190612e8e565b6115c5565b005b61057e60048036038101906105799190612e13565b6116d0565b005b34801561058c57600080fd5b506105a760048036038101906105a29190613009565b611743565b6040516105b49190613640565b60405180910390f35b3480156105c957600080fd5b506105e460048036038101906105df9190612d5f565b6117ed565b6040516105f19190613534565b60405180910390f35b34801561060657600080fd5b50610621600480360381019061061c9190612eca565b61188a565b60405161062e9190613640565b60405180910390f35b34801561064357600080fd5b5061065e60048036038101906106599190612d88565b611943565b60405161066b9190613556565b60405180910390f35b34801561068057600080fd5b5061069b60048036038101906106969190612d5f565b6119d7565b005b60006301ffc9a760e01b827bffffffffffffffffffffffffffffffffffffffffffffffffffffffff191614806106f857506380ac58cd60e01b827bffffffffffffffffffffffffffffffffffffffffffffffffffffffff1916145b806107285750635b5e139f60e01b827bffffffffffffffffffffffffffffffffffffffffffffffffffffffff1916145b9050919050565b60606002805461073e90613a44565b80601f016020809104026020016040519081016040528092919081815260200182805461076a90613a44565b80156107b75780601f1061078c576101008083540402835291602001916107b7565b820191906000526020600020905b81548152906001019060200180831161079a57829003601f168201915b5050505050905090565b60006107cc82611acf565b610802576040517fcf4700e400000000000000000000000000000000000000000000000000000000815260040160405180910390fd5b6006600083815260200190815260200160002060000160009054906101000a900473ffffffffffffffffffffffffffffffffffffffff169050919050565b600061084b82611025565b90508073ffffffffffffffffffffffffffffffffffffffff1661086c611b2e565b73ffffffffffffffffffffffffffffffffffffffff16146108cf5761089881610893611b2e565b611943565b6108ce576040517fcfb3b94200000000000000000000000000000000000000000000000000000000815260040160405180910390fd5b5b826006600084815260200190815260200160002060000160006101000a81548173ffffffffffffffffffffffffffffffffffffffff021916908373ffffffffffffffffffffffffffffffffffffffff160217905550818373ffffffffffffffffffffffffffffffffffffffff168273ffffffffffffffffffffffffffffffffffffffff167f8c5be1e5ebec7d5bd14f71427d1e84f3dd0314c0f7b2291e5b200ac8c7c3b92560405160405180910390a4505050565b600061098e611b36565b6001546000540303905090565b60006109a682611b3f565b90508373ffffffffffffffffffffffffffffffffffffffff168173ffffffffffffffffffffffffffffffffffffffff1614610a0d576040517fa114810000000000000000000000000000000000000000000000000000000000815260040160405180910390fd5b600080610a1984611c0d565b91509150610a2f8187610a2a611b2e565b611c34565b610a7b57610a4486610a3f611b2e565b611943565b610a7a576040517f59c896be00000000000000000000000000000000000000000000000000000000815260040160405180910390fd5b5b600073ffffffffffffffffffffffffffffffffffffffff168573ffffffffffffffffffffffffffffffffffffffff161415610ae2576040517fea553b3400000000000000000000000000000000000000000000000000000000815260040160405180910390fd5b610aef8686866001611c78565b8015610afa57600082555b600560008773ffffffffffffffffffffffffffffffffffffffff1673ffffffffffffffffffffffffffffffffffffffff168152602001908152602001600020600081546001900391905081905550600560008673ffffffffffffffffffffffffffffffffffffffff1673ffffffffffffffffffffffffffffffffffffffff1681526020019081526020016000206000815460010191905081905550610bc885610ba4888887611c7e565b7c020000000000000000000000000000000000000000000000000000000017611ca6565b600460008681526020019081526020016000208190555060007c020000000000000000000000000000000000000000000000000000000084161415610c50576000600185019050600060046000838152602001908152602001600020541415610c4e576000548114610c4d578360046000838152602001908152602001600020819055505b5b505b838573ffffffffffffffffffffffffffffffffffffffff168773ffffffffffffffffffffffffffffffffffffffff167fddf252ad1be2c89b69c2b068fc378daa952ba7f163c4a11628f55a4df523b3ef60405160405180910390a4610cb88686866001611cd1565b505050505050565b610cc8611cd7565b73ffffffffffffffffffffffffffffffffffffffff16610ce6611509565b73ffffffffffffffffffffffffffffffffffffffff1614610d3c576040517f08c379a0000000000000000000000000000000000000000000000000000000008152600401610d3390613722565b60405180910390fd5b8060099080519060200190610d529291906128ed565b5050565b610d71838383604051806020016040528060008152506116d0565b505050565b610d7e611cd7565b73ffffffffffffffffffffffffffffffffffffffff16610d9c611509565b73ffffffffffffffffffffffffffffffffffffffff1614610df2576040517f08c379a0000000000000000000000000000000000000000000000000000000008152600401610de990613722565b60405180910390fd5b80600a60006101000a81548173ffffffffffffffffffffffffffffffffffffffff021916908373ffffffffffffffffffffffffffffffffffffffff16021790555050565b60606000600c60008473ffffffffffffffffffffffffffffffffffffffff1673ffffffffffffffffffffffffffffffffffffffff168152602001908152602001600020805480602002602001604051908101604052809291908181526020016000905b82821015610f45578382906000526020600020018054610eb890613a44565b80601f0160208091040260200160405190810160405280929190818152602001828054610ee490613a44565b8015610f315780601f10610f0657610100808354040283529160200191610f31565b820191906000526020600020905b815481529060010190602001808311610f1457829003601f168201915b505050505081526020019060010190610e99565b50505050905080915050919050565b600b6020528060005260406000206000915090508054610f7390613a44565b80601f0160208091040260200160405190810160405280929190818152602001828054610f9f90613a44565b8015610fec5780601f10610fc157610100808354040283529160200191610fec565b820191906000526020600020905b815481529060010190602001808311610fcf57829003601f168201915b505050505081565b600d602052816000526040600020818154811061101057600080fd5b90600052602060002001600091509150505481565b600061103082611b3f565b9050919050565b6009805461104490613a44565b80601f016020809104026020016040519081016040528092919081815260200182805461107090613a44565b80156110bd5780601f10611092576101008083540402835291602001916110bd565b820191906000526020600020905b8154815290600101906020018083116110a057829003601f168201915b505050505081565b60008073ffffffffffffffffffffffffffffffffffffffff168273ffffffffffffffffffffffffffffffffffffffff16141561112d576040517f8f4eb60400000000000000000000000000000000000000000000000000000000815260040160405180910390fd5b67ffffffffffffffff600560008473ffffffffffffffffffffffffffffffffffffffff1673ffffffffffffffffffffffffffffffffffffffff16815260200190815260200160002054169050919050565b611186611cd7565b73ffffffffffffffffffffffffffffffffffffffff166111a4611509565b73ffffffffffffffffffffffffffffffffffffffff16146111fa576040517f08c379a00000000000000000000000000000000000000000000000000000000081526004016111f190613722565b60405180910390fd5b6112046000611cdf565b565b600a60009054906101000a900473ffffffffffffffffffffffffffffffffffffffff1681565b600061128461123a85611da5565b84848080601f016020809104026020016040519081016040528093929190818152602001838380828437600081840152601f19601f82011690508083019250505050505050611e3d565b6112c3576040517f08c379a00000000000000000000000000000000000000000000000000000000081526004016112ba906136c2565b60405180910390fd5b60006112cd611ea6565b90506112ec8560200160208101906112e59190612d5f565b6001611eaf565b8480600001906112fc919061375d565b600b6000848152602001908152602001600020919061131c929190612973565b506000600c60008760200160208101906113369190612d5f565b73ffffffffffffffffffffffffffffffffffffffff1673ffffffffffffffffffffffffffffffffffffffff168152602001908152602001600020905080868060000190611383919061375d565b909180600181540180825580915050600190039060005260206000200160009091929091929091929091925091906113bc929190612973565b5080600c60008860200160208101906113d59190612d5f565b73ffffffffffffffffffffffffffffffffffffffff1673ffffffffffffffffffffffffffffffffffffffff16815260200190815260200160002090805461141d9291906129f9565b506000600d60008860200160208101906114379190612d5f565b73ffffffffffffffffffffffffffffffffffffffff1673ffffffffffffffffffffffffffffffffffffffff16815260200190815260200160002090508083908060018154018082558091505060019003906000526020600020016000909190919091505580600d60008960200160208101906114b39190612d5f565b73ffffffffffffffffffffffffffffffffffffffff1673ffffffffffffffffffffffffffffffffffffffff1681526020019081526020016000209080546114fb929190612a61565b508293505050509392505050565b6000600860009054906101000a900473ffffffffffffffffffffffffffffffffffffffff16905090565b60606003805461154290613a44565b80601f016020809104026020016040519081016040528092919081815260200182805461156e90613a44565b80156115bb5780601f10611590576101008083540402835291602001916115bb565b820191906000526020600020905b81548152906001019060200180831161159e57829003601f168201915b5050505050905090565b80600760006115d2611b2e565b73ffffffffffffffffffffffffffffffffffffffff1673ffffffffffffffffffffffffffffffffffffffff16815260200190815260200160002060008473ffffffffffffffffffffffffffffffffffffffff1673ffffffffffffffffffffffffffffffffffffffff16815260200190815260200160002060006101000a81548160ff0219169083151502179055508173ffffffffffffffffffffffffffffffffffffffff1661167f611b2e565b73ffffffffffffffffffffffffffffffffffffffff167f17307eab39ab6107e8899845ad3d59bd9653f200f220920489ca2b5937696c31836040516116c49190613556565b60405180910390a35050565b6116db84848461099b565b60008373ffffffffffffffffffffffffffffffffffffffff163b1461173d576117068484848461206c565b61173c576040517fd1a57ed600000000000000000000000000000000000000000000000000000000815260040160405180910390fd5b5b50505050565b606061174e82611acf565b611784576040517fa14c4b5000000000000000000000000000000000000000000000000000000000815260040160405180910390fd5b60006009805461179390613a44565b905014156117b057604051806020016040528060008152506117e6565b6009600b60008481526020019081526020016000206040516020016117d6929190613445565b6040516020818303038152906040525b9050919050565b60606000600d60008473ffffffffffffffffffffffffffffffffffffffff1673ffffffffffffffffffffffffffffffffffffffff16815260200190815260200160002080548060200260200160405190810160405280929190818152602001828054801561187a57602002820191906000526020600020905b815481526020019060010190808311611866575b5050505050905080915050919050565b600c60205281600052604060002081815481106118a657600080fd5b906000526020600020016000915091505080546118c290613a44565b80601f01602080910402602001604051908101604052809291908181526020018280546118ee90613a44565b801561193b5780601f106119105761010080835404028352916020019161193b565b820191906000526020600020905b81548152906001019060200180831161191e57829003601f168201915b505050505081565b6000600760008473ffffffffffffffffffffffffffffffffffffffff1673ffffffffffffffffffffffffffffffffffffffff16815260200190815260200160002060008373ffffffffffffffffffffffffffffffffffffffff1673ffffffffffffffffffffffffffffffffffffffff16815260200190815260200160002060009054906101000a900460ff16905092915050565b6119df611cd7565b73ffffffffffffffffffffffffffffffffffffffff166119fd611509565b73ffffffffffffffffffffffffffffffffffffffff1614611a53576040517f08c379a0000000000000000000000000000000000000000000000000000000008152600401611a4a90613722565b60405180910390fd5b600073ffffffffffffffffffffffffffffffffffffffff168173ffffffffffffffffffffffffffffffffffffffff161415611ac3576040517f08c379a0000000000000000000000000000000000000000000000000000000008152600401611aba906136a2565b60405180910390fd5b611acc81611cdf565b50565b600081611ada611b36565b11158015611ae9575060005482105b8015611b27575060007c0100000000000000000000000000000000000000000000000000000000600460008581526020019081526020016000205416145b9050919050565b600033905090565b60006001905090565b60008082905080611b4e611b36565b11611bd657600054811015611bd55760006004600083815260200190815260200160002054905060007c010000000000000000000000000000000000000000000000000000000082161415611bd3575b6000811415611bc9576004600083600190039350838152602001908152602001600020549050611b9e565b8092505050611c08565b505b5b6040517fdf2d9b4200000000000000000000000000000000000000000000000000000000815260040160405180910390fd5b919050565b60008060006006600085815260200190815260200160002090508092508254915050915091565b600073ffffffffffffffffffffffffffffffffffffffff8316925073ffffffffffffffffffffffffffffffffffffffff821691508382148383141790509392505050565b50505050565b60008060e883901c905060e8611c958686846121cc565b62ffffff16901b9150509392505050565b600073ffffffffffffffffffffffffffffffffffffffff83169250814260a01b178317905092915050565b50505050565b600033905090565b6000600860009054906101000a900473ffffffffffffffffffffffffffffffffffffffff16905081600860006101000a81548173ffffffffffffffffffffffffffffffffffffffff021916908373ffffffffffffffffffffffffffffffffffffffff1602179055508173ffffffffffffffffffffffffffffffffffffffff168173ffffffffffffffffffffffffffffffffffffffff167f8be0079c531659141344cd1fd0a4f28419497f9722a3daafe3b4186f6b6457e060405160405180910390a35050565b600080611e327f50df2e1c21aa890c72c65ec0b3362d65b23cfe6d0e2754b2c9229684864de3d1848060000190611ddc919061375d565b604051611dea92919061342c565b6040518091039020856020016020810190611e059190612d5f565b604051602001611e1793929190613571565b604051602081830303815290604052805190602001206121d5565b905080915050919050565b600080611e4a84846121ef565b90508073ffffffffffffffffffffffffffffffffffffffff16600a60009054906101000a900473ffffffffffffffffffffffffffffffffffffffff1673ffffffffffffffffffffffffffffffffffffffff161491505092915050565b60008054905090565b6000805490506000821415611ef0576040517fb562e8dd00000000000000000000000000000000000000000000000000000000815260040160405180910390fd5b611efd6000848385611c78565b600160406001901b178202600560008573ffffffffffffffffffffffffffffffffffffffff1673ffffffffffffffffffffffffffffffffffffffff16815260200190815260200160002060008282540192505081905550611f7483611f656000866000611c7e565b611f6e85612216565b17611ca6565b6004600083815260200190815260200160002081905550600080838301905073ffffffffffffffffffffffffffffffffffffffff85169150828260007fddf252ad1be2c89b69c2b068fc378daa952ba7f163c4a11628f55a4df523b3ef600080a4600183015b81811461201557808360007fddf252ad1be2c89b69c2b068fc378daa952ba7f163c4a11628f55a4df523b3ef600080a4600181019050611fda565b506000821415612051576040517f2e07630000000000000000000000000000000000000000000000000000000000815260040160405180910390fd5b8060008190555050506120676000848385611cd1565b505050565b60008373ffffffffffffffffffffffffffffffffffffffff1663150b7a02612092611b2e565b8786866040518563ffffffff1660e01b81526004016120b494939291906134c6565b602060405180830381600087803b1580156120ce57600080fd5b505af19250505080156120ff57506040513d601f19601f820116820180604052508101906120fc9190612f2f565b60015b612179573d806000811461212f576040519150601f19603f3d011682016040523d82523d6000602084013e612134565b606091505b50600081511415612171576040517fd1a57ed600000000000000000000000000000000000000000000000000000000815260040160405180910390fd5b805181602001fd5b63150b7a0260e01b7bffffffffffffffffffffffffffffffffffffffffffffffffffffffff1916817bffffffffffffffffffffffffffffffffffffffffffffffffffffffff191614915050949350505050565b60009392505050565b60006121e86121e2612226565b83612340565b9050919050565b60008060006121fe8585612373565b9150915061220b816123f6565b819250505092915050565b60006001821460e11b9050919050565b60007f000000000000000000000000000000000000000000000000000000000000000073ffffffffffffffffffffffffffffffffffffffff163073ffffffffffffffffffffffffffffffffffffffff161480156122a257507f000000000000000000000000000000000000000000000000000000000000000046145b156122cf577f0000000000000000000000000000000000000000000000000000000000000000905061233d565b61233a7f00000000000000000000000000000000000000000000000000000000000000007f00000000000000000000000000000000000000000000000000000000000000007f0000000000000000000000000000000000000000000000000000000000000000612747565b90505b90565b60008282604051602001612355929190613474565b60405160208183030381529060405280519060200120905092915050565b6000806041835114156123b55760008060006020860151925060408601519150606086015160001a90506123a987828585612781565b945094505050506123ef565b6040835114156123e65760008060208501519150604085015190506123db86838361288e565b9350935050506123ef565b60006002915091505b9250929050565b60006004811115612430577f4e487b7100000000000000000000000000000000000000000000000000000000600052602160045260246000fd5b816004811115612469577f4e487b7100000000000000000000000000000000000000000000000000000000600052602160045260246000fd5b141561247457612744565b600160048111156124ae577f4e487b7100000000000000000000000000000000000000000000000000000000600052602160045260246000fd5b8160048111156124e7577f4e487b7100000000000000000000000000000000000000000000000000000000600052602160045260246000fd5b1415612528576040517f08c379a000000000000000000000000000000000000000000000000000000000815260040161251f90613662565b60405180910390fd5b60026004811115612562577f4e487b7100000000000000000000000000000000000000000000000000000000600052602160045260246000fd5b81600481111561259b577f4e487b7100000000000000000000000000000000000000000000000000000000600052602160045260246000fd5b14156125dc576040517f08c379a00000000000000000000000000000000000000000000000000000000081526004016125d390613682565b60405180910390fd5b60036004811115612616577f4e487b7100000000000000000000000000000000000000000000000000000000600052602160045260246000fd5b81600481111561264f577f4e487b7100000000000000000000000000000000000000000000000000000000600052602160045260246000fd5b1415612690576040517f08c379a0000000000000000000000000000000000000000000000000000000008152600401612687906136e2565b60405180910390fd5b6004808111156126c9577f4e487b7100000000000000000000000000000000000000000000000000000000600052602160045260246000fd5b816004811115612702577f4e487b7100000000000000000000000000000000000000000000000000000000600052602160045260246000fd5b1415612743576040517f08c379a000000000000000000000000000000000000000000000000000000000815260040161273a90613702565b60405180910390fd5b5b50565b600083838346306040516020016127629594939291906135a8565b6040516020818303038152906040528051906020012090509392505050565b6000807f7fffffffffffffffffffffffffffffff5d576e7357a4501ddfe92f46681b20a08360001c11156127bc576000600391509150612885565b601b8560ff16141580156127d45750601c8560ff1614155b156127e6576000600491509150612885565b60006001878787876040516000815260200160405260405161280b94939291906135fb565b6020604051602081039080840390855afa15801561282d573d6000803e3d6000fd5b505050602060405103519050600073ffffffffffffffffffffffffffffffffffffffff168173ffffffffffffffffffffffffffffffffffffffff16141561287c57600060019250925050612885565b80600092509250505b94509492505050565b60008060007f7fffffffffffffffffffffffffffffffffffffffffffffffffffffffffffffff60001b841690506000601b60ff8660001c901c6128d19190613921565b90506128df87828885612781565b935093505050935093915050565b8280546128f990613a44565b90600052602060002090601f01602090048101928261291b5760008555612962565b82601f1061293457805160ff1916838001178555612962565b82800160010185558215612962579182015b82811115612961578251825591602001919060010190612946565b5b50905061296f9190612ab3565b5090565b82805461297f90613a44565b90600052602060002090601f0160209004810192826129a157600085556129e8565b82601f106129ba57803560ff19168380011785556129e8565b828001600101855582156129e8579182015b828111156129e75782358255916020019190600101906129cc565b5b5090506129f59190612ab3565b5090565b828054828255906000526020600020908101928215612a505760005260206000209182015b82811115612a4f578282908054612a3490613a44565b612a3f929190612ad0565b5091600101919060010190612a1e565b5b509050612a5d9190612b5d565b5090565b828054828255906000526020600020908101928215612aa25760005260206000209182015b82811115612aa1578254825591600101919060010190612a86565b5b509050612aaf9190612ab3565b5090565b5b80821115612acc576000816000905550600101612ab4565b5090565b828054612adc90613a44565b90600052602060002090601f016020900481019282612afe5760008555612b4c565b82601f10612b0f5780548555612b4c565b82800160010185558215612b4c57600052602060002091601f016020900482015b82811115612b4b578254825591600101919060010190612b30565b5b509050612b599190612ab3565b5090565b5b80821115612b7d5760008181612b749190612b81565b50600101612b5e565b5090565b508054612b8d90613a44565b6000825580601f10612b9f5750612bbe565b601f016020900490600052602060002090810190612bbd9190612ab3565b5b50565b6000612bd4612bcf846137d9565b6137b4565b905082815260208101848484011115612bec57600080fd5b612bf7848285613a02565b509392505050565b6000612c12612c0d8461380a565b6137b4565b905082815260208101848484011115612c2a57600080fd5b612c35848285613a02565b509392505050565b600081359050612c4c81613d32565b92915050565b600081359050612c6181613d49565b92915050565b600081359050612c7681613d60565b92915050565b600081519050612c8b81613d60565b92915050565b60008083601f840112612ca357600080fd5b8235905067ffffffffffffffff811115612cbc57600080fd5b602083019150836001820283011115612cd457600080fd5b9250929050565b600082601f830112612cec57600080fd5b8135612cfc848260208601612bc1565b91505092915050565b600082601f830112612d1657600080fd5b8135612d26848260208601612bff565b91505092915050565b600060408284031215612d4157600080fd5b81905092915050565b600081359050612d5981613d77565b92915050565b600060208284031215612d7157600080fd5b6000612d7f84828501612c3d565b91505092915050565b60008060408385031215612d9b57600080fd5b6000612da985828601612c3d565b9250506020612dba85828601612c3d565b9150509250929050565b600080600060608486031215612dd957600080fd5b6000612de786828701612c3d565b9350506020612df886828701612c3d565b9250506040612e0986828701612d4a565b9150509250925092565b60008060008060808587031215612e2957600080fd5b6000612e3787828801612c3d565b9450506020612e4887828801612c3d565b9350506040612e5987828801612d4a565b925050606085013567ffffffffffffffff811115612e7657600080fd5b612e8287828801612cdb565b91505092959194509250565b60008060408385031215612ea157600080fd5b6000612eaf85828601612c3d565b9250506020612ec085828601612c52565b9150509250929050565b60008060408385031215612edd57600080fd5b6000612eeb85828601612c3d565b9250506020612efc85828601612d4a565b9150509250929050565b600060208284031215612f1857600080fd5b6000612f2684828501612c67565b91505092915050565b600060208284031215612f4157600080fd5b6000612f4f84828501612c7c565b91505092915050565b600060208284031215612f6a57600080fd5b600082013567ffffffffffffffff811115612f8457600080fd5b612f9084828501612d05565b91505092915050565b600080600060408486031215612fae57600080fd5b600084013567ffffffffffffffff811115612fc857600080fd5b612fd486828701612d2f565b935050602084013567ffffffffffffffff811115612ff157600080fd5b612ffd86828701612c91565b92509250509250925092565b60006020828403121561301b57600080fd5b600061302984828501612d4a565b91505092915050565b600061303e83836131d3565b905092915050565b600061305283836133ff565b60208301905092915050565b61306781613977565b82525050565b600061307882613870565b61308281856138b6565b9350836020820285016130948561383b565b8060005b858110156130d057848403895281516130b18582613032565b94506130bc8361389c565b925060208a01995050600181019050613098565b50829750879550505050505092915050565b60006130ed8261387b565b6130f781856138c7565b93506131028361384b565b8060005b8381101561313357815161311a8882613046565b9750613125836138a9565b925050600181019050613106565b5085935050505092915050565b61314981613989565b82525050565b61315881613995565b82525050565b61316f61316a82613995565b613aa7565b82525050565b600061318183856138e9565b935061318e838584613a02565b82840190509392505050565b60006131a582613886565b6131af81856138d8565b93506131bf818560208601613a11565b6131c881613b3e565b840191505092915050565b60006131de82613891565b6131e881856138f4565b93506131f8818560208601613a11565b61320181613b3e565b840191505092915050565b600061321782613891565b6132218185613905565b9350613231818560208601613a11565b61323a81613b3e565b840191505092915050565b6000815461325281613a44565b61325c8186613916565b945060018216600081146132775760018114613288576132bb565b60ff198316865281860193506132bb565b6132918561385b565b60005b838110156132b357815481890152600182019150602081019050613294565b838801955050505b50505092915050565b60006132d1601883613905565b91506132dc82613b4f565b602082019050919050565b60006132f4601f83613905565b91506132ff82613b78565b602082019050919050565b6000613317602683613905565b915061332282613ba1565b604082019050919050565b600061333a600283613916565b915061334582613bf0565b600282019050919050565b600061335d601183613905565b915061336882613c19565b602082019050919050565b6000613380602283613905565b915061338b82613c42565b604082019050919050565b60006133a3602283613905565b91506133ae82613c91565b604082019050919050565b60006133c6600583613916565b91506133d182613ce0565b600582019050919050565b60006133e9602083613905565b91506133f482613d09565b602082019050919050565b613408816139eb565b82525050565b613417816139eb565b82525050565b613426816139f5565b82525050565b6000613439828486613175565b91508190509392505050565b60006134518285613245565b915061345d8284613245565b9150613468826133b9565b91508190509392505050565b600061347f8261332d565b915061348b828561315e565b60208201915061349b828461315e565b6020820191508190509392505050565b60006020820190506134c0600083018461305e565b92915050565b60006080820190506134db600083018761305e565b6134e8602083018661305e565b6134f5604083018561340e565b8181036060830152613507818461319a565b905095945050505050565b6000602082019050818103600083015261352c818461306d565b905092915050565b6000602082019050818103600083015261354e81846130e2565b905092915050565b600060208201905061356b6000830184613140565b92915050565b6000606082019050613586600083018661314f565b613593602083018561314f565b6135a0604083018461305e565b949350505050565b600060a0820190506135bd600083018861314f565b6135ca602083018761314f565b6135d7604083018661314f565b6135e4606083018561340e565b6135f1608083018461305e565b9695505050505050565b6000608082019050613610600083018761314f565b61361d602083018661341d565b61362a604083018561314f565b613637606083018461314f565b95945050505050565b6000602082019050818103600083015261365a818461320c565b905092915050565b6000602082019050818103600083015261367b816132c4565b9050919050565b6000602082019050818103600083015261369b816132e7565b9050919050565b600060208201905081810360008301526136bb8161330a565b9050919050565b600060208201905081810360008301526136db81613350565b9050919050565b600060208201905081810360008301526136fb81613373565b9050919050565b6000602082019050818103600083015261371b81613396565b9050919050565b6000602082019050818103600083015261373b816133dc565b9050919050565b6000602082019050613757600083018461340e565b92915050565b6000808335600160200384360303811261377657600080fd5b80840192508235915067ffffffffffffffff82111561379457600080fd5b6020830192506001820236038313156137ac57600080fd5b509250929050565b60006137be6137cf565b90506137ca8282613a76565b919050565b6000604051905090565b600067ffffffffffffffff8211156137f4576137f3613b0f565b5b6137fd82613b3e565b9050602081019050919050565b600067ffffffffffffffff82111561382557613824613b0f565b5b61382e82613b3e565b9050602081019050919050565b6000819050602082019050919050565b6000819050602082019050919050565b60008190508160005260206000209050919050565b600081519050919050565b600081519050919050565b600081519050919050565b600081519050919050565b6000602082019050919050565b6000602082019050919050565b600082825260208201905092915050565b600082825260208201905092915050565b600082825260208201905092915050565b600081905092915050565b600082825260208201905092915050565b600082825260208201905092915050565b600081905092915050565b600061392c826139eb565b9150613937836139eb565b9250827fffffffffffffffffffffffffffffffffffffffffffffffffffffffffffffffff0382111561396c5761396b613ab1565b5b828201905092915050565b6000613982826139cb565b9050919050565b60008115159050919050565b6000819050919050565b60007fffffffff0000000000000000000000000000000000000000000000000000000082169050919050565b600073ffffffffffffffffffffffffffffffffffffffff82169050919050565b6000819050919050565b600060ff82169050919050565b82818337600083830152505050565b60005b83811015613a2f578082015181840152602081019050613a14565b83811115613a3e576000848401525b50505050565b60006002820490506001821680613a5c57607f821691505b60208210811415613a7057613a6f613ae0565b5b50919050565b613a7f82613b3e565b810181811067ffffffffffffffff82111715613a9e57613a9d613b0f565b5b80604052505050565b6000819050919050565b7f4e487b7100000000000000000000000000000000000000000000000000000000600052601160045260246000fd5b7f4e487b7100000000000000000000000000000000000000000000000000000000600052602260045260246000fd5b7f4e487b7100000000000000000000000000000000000000000000000000000000600052604160045260246000fd5b6000601f19601f8301169050919050565b7f45434453413a20696e76616c6964207369676e61747572650000000000000000600082015250565b7f45434453413a20696e76616c6964207369676e6174757265206c656e67746800600082015250565b7f4f776e61626c653a206e6577206f776e657220697320746865207a65726f206160008201527f6464726573730000000000000000000000000000000000000000000000000000602082015250565b7f1901000000000000000000000000000000000000000000000000000000000000600082015250565b7f496e76616c6964207369676e6174757265000000000000000000000000000000600082015250565b7f45434453413a20696e76616c6964207369676e6174757265202773272076616c60008201527f7565000000000000000000000000000000000000000000000000000000000000602082015250565b7f45434453413a20696e76616c6964207369676e6174757265202776272076616c60008201527f7565000000000000000000000000000000000000000000000000000000000000602082015250565b7f2e6a736f6e000000000000000000000000000000000000000000000000000000600082015250565b7f4f776e61626c653a2063616c6c6572206973206e6f7420746865206f776e6572600082015250565b613d3b81613977565b8114613d4657600080fd5b50565b613d5281613989565b8114613d5d57600080fd5b50565b613d698161399f565b8114613d7457600080fd5b50565b613d80816139eb565b8114613d8b57600080fd5b5056fea264697066735822122018ae182cdf42e3ff18f4785567b07ee34db59fbc5b3e86199ea0c55b99bb704064736f6c63430008040033",
  "linkReferences": {},
  "deployedLinkReferences": {}
}