{
  "_format": "hh-sol-artifact-1",
  "contractName": "AlphabetCity",
  "sourceName": "contracts/AlphabetCity.sol",
  "abi": [
    {
      "inputs": [
        {
          "internalType": "string",
          "name": "baseURI",
          "type": "string"
        }
      ],
      "stateMutability": "nonpayable",
      "type": "constructor"
    },
    {
      "anonymous": false,
      "inputs": [
        {
          "indexed": true,
          "internalType": "address",
          "name": "owner",
          "type": "address"
        },
        {
          "indexed": true,
          "internalType": "address",
          "name": "approved",
          "type": "address"
        },
        {
          "indexed": true,
          "internalType": "uint256",
          "name": "tokenId",
          "type": "uint256"
        }
      ],
      "name": "Approval",
      "type": "event"
    },
    {
      "anonymous": false,
      "inputs": [
        {
          "indexed": true,
          "internalType": "address",
          "name": "owner",
          "type": "address"
        },
        {
          "indexed": true,
          "internalType": "address",
          "name": "operator",
          "type": "address"
        },
        {
          "indexed": false,
          "internalType": "bool",
          "name": "approved",
          "type": "bool"
        }
      ],
      "name": "ApprovalForAll",
      "type": "event"
    },
    {
      "anonymous": false,
      "inputs": [
        {
          "indexed": true,
          "internalType": "address",
          "name": "previousOwner",
          "type": "address"
        },
        {
          "indexed": true,
          "internalType": "address",
          "name": "newOwner",
          "type": "address"
        }
      ],
      "name": "OwnershipTransferred",
      "type": "event"
    },
    {
      "anonymous": false,
      "inputs": [
        {
          "indexed": true,
          "internalType": "address",
          "name": "from",
          "type": "address"
        },
        {
          "indexed": true,
          "internalType": "address",
          "name": "to",
          "type": "address"
        },
        {
          "indexed": true,
          "internalType": "uint256",
          "name": "tokenId",
          "type": "uint256"
        }
      ],
      "name": "Transfer",
      "type": "event"
    },
    {
      "anonymous": false,
      "inputs": [
        {
          "indexed": true,
          "internalType": "address",
          "name": "winner",
          "type": "address"
        },
        {
          "indexed": false,
          "internalType": "uint256",
          "name": "tokenId",
          "type": "uint256"
        }
      ],
      "name": "WordWon",
      "type": "event"
    },
    {
      "inputs": [
        {
          "internalType": "address",
          "name": "",
          "type": "address"
        }
      ],
      "name": "accountHasWord",
      "outputs": [
        {
          "internalType": "bool",
          "name": "",
          "type": "bool"
        }
      ],
      "stateMutability": "view",
      "type": "function"
    },
    {
      "inputs": [
        {
          "internalType": "address",
          "name": "to",
          "type": "address"
        },
        {
          "internalType": "uint256",
          "name": "tokenId",
          "type": "uint256"
        }
      ],
      "name": "approve",
      "outputs": [],
      "stateMutability": "nonpayable",
      "type": "function"
    },
    {
      "inputs": [
        {
          "internalType": "address",
          "name": "owner",
          "type": "address"
        }
      ],
      "name": "balanceOf",
      "outputs": [
        {
          "internalType": "uint256",
          "name": "",
          "type": "uint256"
        }
      ],
      "stateMutability": "view",
      "type": "function"
    },
    {
      "inputs": [
        {
          "internalType": "uint256",
          "name": "tokenId",
          "type": "uint256"
        }
      ],
      "name": "getApproved",
      "outputs": [
        {
          "internalType": "address",
          "name": "",
          "type": "address"
        }
      ],
      "stateMutability": "view",
      "type": "function"
    },
    {
      "inputs": [
        {
          "internalType": "address",
          "name": "user",
          "type": "address"
        }
      ],
      "name": "getUsersGuesses",
      "outputs": [
        {
          "internalType": "uint256[]",
          "name": "",
          "type": "uint256[]"
        }
      ],
      "stateMutability": "view",
      "type": "function"
    },
    {
      "inputs": [],
      "name": "getWord",
      "outputs": [
        {
          "internalType": "uint256[]",
          "name": "",
          "type": "uint256[]"
        }
      ],
      "stateMutability": "view",
      "type": "function"
    },
    {
      "inputs": [
        {
          "internalType": "address",
          "name": "",
          "type": "address"
        },
        {
          "internalType": "uint256",
          "name": "",
          "type": "uint256"
        },
        {
          "internalType": "uint256",
          "name": "",
          "type": "uint256"
        }
      ],
      "name": "hunterToWord",
      "outputs": [
        {
          "internalType": "uint256",
          "name": "",
          "type": "uint256"
        }
      ],
      "stateMutability": "view",
      "type": "function"
    },
    {
      "inputs": [
        {
          "internalType": "address",
          "name": "owner",
          "type": "address"
        },
        {
          "internalType": "address",
          "name": "operator",
          "type": "address"
        }
      ],
      "name": "isApprovedForAll",
      "outputs": [
        {
          "internalType": "bool",
          "name": "",
          "type": "bool"
        }
      ],
      "stateMutability": "view",
      "type": "function"
    },
    {
      "inputs": [
        {
          "internalType": "address",
          "name": "recipient",
          "type": "address"
        },
        {
          "internalType": "uint8",
          "name": "letter",
          "type": "uint8"
        }
      ],
      "name": "mintLetter",
      "outputs": [],
      "stateMutability": "nonpayable",
      "type": "function"
    },
    {
      "inputs": [
        {
          "internalType": "address",
          "name": "recipient",
          "type": "address"
        },
        {
          "internalType": "uint256[]",
          "name": "_word",
          "type": "uint256[]"
        }
      ],
      "name": "mintWord",
      "outputs": [],
      "stateMutability": "nonpayable",
      "type": "function"
    },
    {
      "inputs": [],
      "name": "name",
      "outputs": [
        {
          "internalType": "string",
          "name": "",
          "type": "string"
        }
      ],
      "stateMutability": "view",
      "type": "function"
    },
    {
      "inputs": [],
      "name": "owner",
      "outputs": [
        {
          "internalType": "address",
          "name": "",
          "type": "address"
        }
      ],
      "stateMutability": "view",
      "type": "function"
    },
    {
      "inputs": [
        {
          "internalType": "uint256",
          "name": "tokenId",
          "type": "uint256"
        }
      ],
      "name": "ownerOf",
      "outputs": [
        {
          "internalType": "address",
          "name": "",
          "type": "address"
        }
      ],
      "stateMutability": "view",
      "type": "function"
    },
    {
      "inputs": [],
      "name": "renounceOwnership",
      "outputs": [],
      "stateMutability": "nonpayable",
      "type": "function"
    },
    {
      "inputs": [
        {
          "internalType": "address",
          "name": "from",
          "type": "address"
        },
        {
          "internalType": "address",
          "name": "to",
          "type": "address"
        },
        {
          "internalType": "uint256",
          "name": "tokenId",
          "type": "uint256"
        }
      ],
      "name": "safeTransferFrom",
      "outputs": [],
      "stateMutability": "nonpayable",
      "type": "function"
    },
    {
      "inputs": [
        {
          "internalType": "address",
          "name": "from",
          "type": "address"
        },
        {
          "internalType": "address",
          "name": "to",
          "type": "address"
        },
        {
          "internalType": "uint256",
          "name": "tokenId",
          "type": "uint256"
        },
        {
          "internalType": "bytes",
          "name": "_data",
          "type": "bytes"
        }
      ],
      "name": "safeTransferFrom",
      "outputs": [],
      "stateMutability": "nonpayable",
      "type": "function"
    },
    {
      "inputs": [
        {
          "internalType": "address",
          "name": "operator",
          "type": "address"
        },
        {
          "internalType": "bool",
          "name": "approved",
          "type": "bool"
        }
      ],
      "name": "setApprovalForAll",
      "outputs": [],
      "stateMutability": "nonpayable",
      "type": "function"
    },
    {
      "inputs": [
        {
          "internalType": "string",
          "name": "newURI",
          "type": "string"
        }
      ],
      "name": "setBaseURI",
      "outputs": [],
      "stateMutability": "nonpayable",
      "type": "function"
    },
    {
      "inputs": [
        {
          "internalType": "bytes4",
          "name": "interfaceId",
          "type": "bytes4"
        }
      ],
      "name": "supportsInterface",
      "outputs": [
        {
          "internalType": "bool",
          "name": "",
          "type": "bool"
        }
      ],
      "stateMutability": "view",
      "type": "function"
    },
    {
      "inputs": [],
      "name": "symbol",
      "outputs": [
        {
          "internalType": "string",
          "name": "",
          "type": "string"
        }
      ],
      "stateMutability": "view",
      "type": "function"
    },
    {
      "inputs": [],
      "name": "tokenId",
      "outputs": [
        {
          "internalType": "uint256",
          "name": "_value",
          "type": "uint256"
        }
      ],
      "stateMutability": "view",
      "type": "function"
    },
    {
      "inputs": [
        {
          "internalType": "uint256",
          "name": "",
          "type": "uint256"
        }
      ],
      "name": "tokenIdToWordIndex",
      "outputs": [
        {
          "internalType": "uint256",
          "name": "",
          "type": "uint256"
        }
      ],
      "stateMutability": "view",
      "type": "function"
    },
    {
      "inputs": [
        {
          "internalType": "uint256",
          "name": "",
          "type": "uint256"
        }
      ],
      "name": "tokenToLetter",
      "outputs": [
        {
          "internalType": "uint256",
          "name": "",
          "type": "uint256"
        }
      ],
      "stateMutability": "view",
      "type": "function"
    },
    {
      "inputs": [
        {
          "internalType": "uint256",
          "name": "_tokenId",
          "type": "uint256"
        }
      ],
      "name": "tokenURI",
      "outputs": [
        {
          "internalType": "string",
          "name": "",
          "type": "string"
        }
      ],
      "stateMutability": "view",
      "type": "function"
    },
    {
      "inputs": [
        {
          "internalType": "address",
          "name": "from",
          "type": "address"
        },
        {
          "internalType": "address",
          "name": "to",
          "type": "address"
        },
        {
          "internalType": "uint256",
          "name": "tokenId",
          "type": "uint256"
        }
      ],
      "name": "transferFrom",
      "outputs": [],
      "stateMutability": "nonpayable",
      "type": "function"
    },
    {
      "inputs": [
        {
          "internalType": "address",
          "name": "newOwner",
          "type": "address"
        }
      ],
      "name": "transferOwnership",
      "outputs": [],
      "stateMutability": "nonpayable",
      "type": "function"
    },
    {
      "inputs": [],
      "name": "wordIndex",
      "outputs": [
        {
          "internalType": "uint256",
          "name": "_value",
          "type": "uint256"
        }
      ],
      "stateMutability": "view",
      "type": "function"
    },
    {
      "inputs": [
        {
          "internalType": "uint256",
          "name": "",
          "type": "uint256"
        }
      ],
      "name": "wordIndexToTokenId",
      "outputs": [
        {
          "internalType": "uint256",
          "name": "",
          "type": "uint256"
        }
      ],
      "stateMutability": "view",
      "type": "function"
    },
    {
      "inputs": [
        {
          "internalType": "address",
          "name": "",
          "type": "address"
        }
      ],
      "name": "wordOwners",
      "outputs": [
        {
          "internalType": "uint256",
          "name": "",
          "type": "uint256"
        }
      ],
      "stateMutability": "view",
      "type": "function"
    }
  ],
  "bytecode": "0x608060405273e6510b59d6aa01b6198b84b2f8276f163fb77cc4600a60006101000a81548173ffffffffffffffffffffffffffffffffffffffff021916908373ffffffffffffffffffffffffffffffffffffffff16021790555060405180602001604052806040518060200160405280600060ff16815250815250600b9060016200008c9291906200030c565b503480156200009a57600080fd5b5060405162004884380380620048848339818101604052810190620000c0919062000587565b6040518060400160405280600d81526020017f414c5048414245542043495459000000000000000000000000000000000000008152506040518060400160405280600481526020017f414c5048000000000000000000000000000000000000000000000000000000008152508160009080519060200190620001449291906200036e565b5080600190805190602001906200015d9291906200036e565b50505062000180620001746200022860201b60201c565b6200023060201b60201c565b60405180602001604052806040518060200160405280600060ff16815250815250600d60003373ffffffffffffffffffffffffffffffffffffffff1673ffffffffffffffffffffffffffffffffffffffff168152602001908152602001600020906001620001f0929190620003ff565b50620002086008620002f660201b6200147f1760201c565b8060099080519060200190620002209291906200036e565b50506200073c565b600033905090565b6000600660009054906101000a900473ffffffffffffffffffffffffffffffffffffffff16905081600660006101000a81548173ffffffffffffffffffffffffffffffffffffffff021916908373ffffffffffffffffffffffffffffffffffffffff1602179055508173ffffffffffffffffffffffffffffffffffffffff168173ffffffffffffffffffffffffffffffffffffffff167f8be0079c531659141344cd1fd0a4f28419497f9722a3daafe3b4186f6b6457e060405160405180910390a35050565b6001816000016000828254019250508190555050565b8280548282559060005260206000209081019282156200035b579160200282015b828111156200035a578251829060016200034992919062000454565b50916020019190600101906200032d565b5b5090506200036a9190620004ab565b5090565b8280546200037c9062000661565b90600052602060002090601f016020900481019282620003a05760008555620003ec565b82601f10620003bb57805160ff1916838001178555620003ec565b82800160010185558215620003ec579182015b82811115620003eb578251825591602001919060010190620003ce565b5b509050620003fb9190620004d3565b5090565b82600a810192821562000441579160200282015b8281111562000440578251829060016200042f92919062000454565b509160200191906001019062000413565b5b509050620004509190620004ab565b5090565b82805482825590600052602060002090810192821562000498579160200282015b8281111562000497578251829060ff1690559160200191906001019062000475565b5b509050620004a79190620004d3565b5090565b5b80821115620004cf5760008181620004c59190620004f2565b50600101620004ac565b5090565b5b80821115620004ee576000816000905550600101620004d4565b5090565b5080546000825590600052602060002090810190620005129190620004d3565b50565b60006200052c6200052684620005f5565b620005cc565b9050828152602081018484840111156200054557600080fd5b620005528482856200062b565b509392505050565b600082601f8301126200056c57600080fd5b81516200057e84826020860162000515565b91505092915050565b6000602082840312156200059a57600080fd5b600082015167ffffffffffffffff811115620005b557600080fd5b620005c3848285016200055a565b91505092915050565b6000620005d8620005eb565b9050620005e6828262000697565b919050565b6000604051905090565b600067ffffffffffffffff821115620006135762000612620006fc565b5b6200061e826200072b565b9050602081019050919050565b60005b838110156200064b5780820151818401526020810190506200062e565b838111156200065b576000848401525b50505050565b600060028204905060018216806200067a57607f821691505b60208210811415620006915762000690620006cd565b5b50919050565b620006a2826200072b565b810181811067ffffffffffffffff82111715620006c457620006c3620006fc565b5b80604052505050565b7f4e487b7100000000000000000000000000000000000000000000000000000000600052602260045260246000fd5b7f4e487b7100000000000000000000000000000000000000000000000000000000600052604160045260246000fd5b6000601f19601f8301169050919050565b614138806200074c6000396000f3fe608060405234801561001057600080fd5b50600436106101cf5760003560e01c8063715018a611610104578063c02aadb5116100a2578063cd31c38e11610071578063cd31c38e14610578578063e985e9c514610594578063ed40a8c8146105c4578063f2fde38b146105e2576101cf565b8063c02aadb5146104b8578063c8288f3a146104e8578063c87b56dd14610518578063c9d5c64814610548576101cf565b806395d89b41116100de57806395d89b4114610432578063a22cb46514610450578063b88d4fde1461046c578063bb88c5e214610488576101cf565b8063715018a6146103ee5780638da5cb5b146103f85780639173bf7014610416576101cf565b80633c8654a01161017157806355f804b31161014b57806355f804b3146103425780636352211e1461035e578063680d35061461038e57806370a08231146103be576101cf565b80633c8654a0146102d857806342842e0e146103085780634682a2ee14610324576101cf565b8063095ea7b3116101ad578063095ea7b31461025257806317d70f7c1461026e5780631c1292691461028c57806323b872dd146102bc576101cf565b806301ffc9a7146101d457806306fdde0314610204578063081812fc14610222575b600080fd5b6101ee60048036038101906101e99190612cd7565b6105fe565b6040516101fb9190613400565b60405180910390f35b61020c6106e0565b604051610219919061341b565b60405180910390f35b61023c60048036038101906102379190612d6a565b610772565b6040516102499190613333565b60405180910390f35b61026c60048036038101906102679190612c10565b6107f7565b005b61027661090f565b604051610283919061365d565b60405180910390f35b6102a660048036038101906102a19190612a51565b61091b565b6040516102b3919061365d565b60405180910390f35b6102d660048036038101906102d19190612ab6565b610933565b005b6102f260048036038101906102ed9190612d6a565b610993565b6040516102ff919061365d565b60405180910390f35b610322600480360381019061031d9190612ab6565b6109ab565b005b61032c6109cb565b604051610339919061365d565b60405180910390f35b61035c60048036038101906103579190612d29565b6109d7565b005b61037860048036038101906103739190612d6a565b610a6d565b6040516103859190613333565b60405180910390f35b6103a860048036038101906103a39190612c4c565b610b1f565b6040516103b5919061365d565b60405180910390f35b6103d860048036038101906103d39190612a51565b610b60565b6040516103e5919061365d565b60405180910390f35b6103f6610c18565b005b610400610ca0565b60405161040d9190613333565b60405180910390f35b610430600480360381019061042b9190612b80565b610cca565b005b61043a610e07565b604051610447919061341b565b60405180910390f35b61046a60048036038101906104659190612bd4565b610e99565b005b61048660048036038101906104819190612b05565b610eaf565b005b6104a2600480360381019061049d9190612d6a565b610f11565b6040516104af919061365d565b60405180910390f35b6104d260048036038101906104cd9190612d6a565b610f29565b6040516104df919061365d565b60405180910390f35b61050260048036038101906104fd9190612a51565b610f41565b60405161050f919061339a565b60405180910390f35b610532600480360381019061052d9190612d6a565b611026565b60405161053f919061341b565b60405180910390f35b610562600480360381019061055d9190612a51565b611172565b60405161056f9190613400565b60405180910390f35b610592600480360381019061058d9190612c9b565b611192565b005b6105ae60048036038101906105a99190612a7a565b611250565b6040516105bb9190613400565b60405180910390f35b6105cc6112e4565b6040516105d9919061339a565b60405180910390f35b6105fc60048036038101906105f79190612a51565b611387565b005b60007f80ac58cd000000000000000000000000000000000000000000000000000000007bffffffffffffffffffffffffffffffffffffffffffffffffffffffff1916827bffffffffffffffffffffffffffffffffffffffffffffffffffffffff191614806106c957507f5b5e139f000000000000000000000000000000000000000000000000000000007bffffffffffffffffffffffffffffffffffffffffffffffffffffffff1916827bffffffffffffffffffffffffffffffffffffffffffffffffffffffff1916145b806106d957506106d882611495565b5b9050919050565b6060600080546106ef9061399e565b80601f016020809104026020016040519081016040528092919081815260200182805461071b9061399e565b80156107685780601f1061073d57610100808354040283529160200191610768565b820191906000526020600020905b81548152906001019060200180831161074b57829003601f168201915b5050505050905090565b600061077d826114ff565b6107bc576040517f08c379a00000000000000000000000000000000000000000000000000000000081526004016107b39061359d565b60405180910390fd5b6004600083815260200190815260200160002060009054906101000a900473ffffffffffffffffffffffffffffffffffffffff169050919050565b600061080282610a6d565b90508073ffffffffffffffffffffffffffffffffffffffff168373ffffffffffffffffffffffffffffffffffffffff161415610873576040517f08c379a000000000000000000000000000000000000000000000000000000000815260040161086a906135fd565b60405180910390fd5b8073ffffffffffffffffffffffffffffffffffffffff1661089261156b565b73ffffffffffffffffffffffffffffffffffffffff1614806108c157506108c0816108bb61156b565b611250565b5b610900576040517f08c379a00000000000000000000000000000000000000000000000000000000081526004016108f79061351d565b60405180910390fd5b61090a8383611573565b505050565b60078060000154905081565b600e6020528060005260406000206000915090505481565b61094461093e61156b565b8261162c565b610983576040517f08c379a000000000000000000000000000000000000000000000000000000000815260040161097a9061361d565b60405180910390fd5b61098e83838361170a565b505050565b600c6020528060005260406000206000915090505481565b6109c683838360405180602001604052806000815250610eaf565b505050565b60088060000154905081565b6109df61156b565b73ffffffffffffffffffffffffffffffffffffffff166109fd610ca0565b73ffffffffffffffffffffffffffffffffffffffff1614610a53576040517f08c379a0000000000000000000000000000000000000000000000000000000008152600401610a4a906135bd565b60405180910390fd5b8060099080519060200190610a6992919061277d565b5050565b6000806002600084815260200190815260200160002060009054906101000a900473ffffffffffffffffffffffffffffffffffffffff169050600073ffffffffffffffffffffffffffffffffffffffff168173ffffffffffffffffffffffffffffffffffffffff161415610b16576040517f08c379a0000000000000000000000000000000000000000000000000000000008152600401610b0d9061355d565b60405180910390fd5b80915050919050565b600d60205282600052604060002082600a8110610b3b57600080fd5b018181548110610b4a57600080fd5b9060005260206000200160009250925050505481565b60008073ffffffffffffffffffffffffffffffffffffffff168273ffffffffffffffffffffffffffffffffffffffff161415610bd1576040517f08c379a0000000000000000000000000000000000000000000000000000000008152600401610bc89061353d565b60405180910390fd5b600360008373ffffffffffffffffffffffffffffffffffffffff1673ffffffffffffffffffffffffffffffffffffffff168152602001908152602001600020549050919050565b610c2061156b565b73ffffffffffffffffffffffffffffffffffffffff16610c3e610ca0565b73ffffffffffffffffffffffffffffffffffffffff1614610c94576040517f08c379a0000000000000000000000000000000000000000000000000000000008152600401610c8b906135bd565b60405180910390fd5b610c9e6000611971565b565b6000600660009054906101000a900473ffffffffffffffffffffffffffffffffffffffff16905090565b610cd261156b565b73ffffffffffffffffffffffffffffffffffffffff16610cf0610ca0565b73ffffffffffffffffffffffffffffffffffffffff1614610d46576040517f08c379a0000000000000000000000000000000000000000000000000000000008152600401610d3d906135bd565b60405180910390fd5b610d50600761147f565b600b81908060018154018082558091505060019003906000526020600020016000909190919091509080519060200190610d8b929190612803565b50610d966007611a37565b600f60006001600b80549050610dac919061389d565b8152602001908152602001600020819055506001600b80549050610dd0919061389d565b60106000610dde6007611a37565b815260200190815260200160002081905550610e0382610dfe6007611a37565b611a45565b5050565b606060018054610e169061399e565b80601f0160208091040260200160405190810160405280929190818152602001828054610e429061399e565b8015610e8f5780601f10610e6457610100808354040283529160200191610e8f565b820191906000526020600020905b815481529060010190602001808311610e7257829003601f168201915b5050505050905090565b610eab610ea461156b565b8383611a63565b5050565b610ec0610eba61156b565b8361162c565b610eff576040517f08c379a0000000000000000000000000000000000000000000000000000000008152600401610ef69061361d565b60405180910390fd5b610f0b84848484611bd0565b50505050565b600f6020528060005260406000206000915090505481565b60106020528060005260406000206000915090505481565b6060600d60008373ffffffffffffffffffffffffffffffffffffffff1673ffffffffffffffffffffffffffffffffffffffff1681526020019081526020016000206001610f8e6008611a37565b610f98919061389d565b600a8110610fcf577f4e487b7100000000000000000000000000000000000000000000000000000000600052603260045260246000fd5b0180548060200260200160405190810160405280929190818152602001828054801561101a57602002820191906000526020600020905b815481526020019060010190808311611006575b50505050509050919050565b6060611031826114ff565b611070576040517f08c379a0000000000000000000000000000000000000000000000000000000008152600401611067906135dd565b60405180910390fd5b61107982611c2c565b15611101576110bc6040518060400160405280600981526020017f6973206c65747465720000000000000000000000000000000000000000000000815250611c4b565b60096110da600c600085815260200190815260200160002054611ce4565b6040516020016110eb9291906132f9565b604051602081830303815290604052905061116d565b61113f6040518060400160405280600d81526020017f6973204e4f54206c657474657200000000000000000000000000000000000000815250611c4b565b600961114a83611ce4565b60405160200161115b9291906132ca565b60405160208183030381529060405290505b919050565b60116020528060005260406000206000915054906101000a900460ff1681565b61119a61156b565b73ffffffffffffffffffffffffffffffffffffffff166111b8610ca0565b73ffffffffffffffffffffffffffffffffffffffff161461120e576040517f08c379a0000000000000000000000000000000000000000000000000000000008152600401611205906135bd565b60405180910390fd5b611218600761147f565b60006112246007611a37565b90508160ff16600c60008381526020019081526020016000208190555061124b8382611a45565b505050565b6000600560008473ffffffffffffffffffffffffffffffffffffffff1673ffffffffffffffffffffffffffffffffffffffff16815260200190815260200160002060008373ffffffffffffffffffffffffffffffffffffffff1673ffffffffffffffffffffffffffffffffffffffff16815260200190815260200160002060009054906101000a900460ff16905092915050565b6060600b6112f26008611a37565b81548110611329577f4e487b7100000000000000000000000000000000000000000000000000000000600052603260045260246000fd5b9060005260206000200180548060200260200160405190810160405280929190818152602001828054801561137d57602002820191906000526020600020905b815481526020019060010190808311611369575b5050505050905090565b61138f61156b565b73ffffffffffffffffffffffffffffffffffffffff166113ad610ca0565b73ffffffffffffffffffffffffffffffffffffffff1614611403576040517f08c379a00000000000000000000000000000000000000000000000000000000081526004016113fa906135bd565b60405180910390fd5b600073ffffffffffffffffffffffffffffffffffffffff168173ffffffffffffffffffffffffffffffffffffffff161415611473576040517f08c379a000000000000000000000000000000000000000000000000000000000815260040161146a9061345d565b60405180910390fd5b61147c81611971565b50565b6001816000016000828254019250508190555050565b60007f01ffc9a7000000000000000000000000000000000000000000000000000000007bffffffffffffffffffffffffffffffffffffffffffffffffffffffff1916827bffffffffffffffffffffffffffffffffffffffffffffffffffffffff1916149050919050565b60008073ffffffffffffffffffffffffffffffffffffffff166002600084815260200190815260200160002060009054906101000a900473ffffffffffffffffffffffffffffffffffffffff1673ffffffffffffffffffffffffffffffffffffffff1614159050919050565b600033905090565b816004600083815260200190815260200160002060006101000a81548173ffffffffffffffffffffffffffffffffffffffff021916908373ffffffffffffffffffffffffffffffffffffffff160217905550808273ffffffffffffffffffffffffffffffffffffffff166115e683610a6d565b73ffffffffffffffffffffffffffffffffffffffff167f8c5be1e5ebec7d5bd14f71427d1e84f3dd0314c0f7b2291e5b200ac8c7c3b92560405160405180910390a45050565b6000611637826114ff565b611676576040517f08c379a000000000000000000000000000000000000000000000000000000000815260040161166d906134fd565b60405180910390fd5b600061168183610a6d565b90508073ffffffffffffffffffffffffffffffffffffffff168473ffffffffffffffffffffffffffffffffffffffff1614806116f057508373ffffffffffffffffffffffffffffffffffffffff166116d884610772565b73ffffffffffffffffffffffffffffffffffffffff16145b8061170157506117008185611250565b5b91505092915050565b8273ffffffffffffffffffffffffffffffffffffffff1661172a82610a6d565b73ffffffffffffffffffffffffffffffffffffffff1614611780576040517f08c379a00000000000000000000000000000000000000000000000000000000081526004016117779061347d565b60405180910390fd5b600073ffffffffffffffffffffffffffffffffffffffff168273ffffffffffffffffffffffffffffffffffffffff1614156117f0576040517f08c379a00000000000000000000000000000000000000000000000000000000081526004016117e7906134bd565b60405180910390fd5b6117fb838383611e91565b611806600082611573565b6001600360008573ffffffffffffffffffffffffffffffffffffffff1673ffffffffffffffffffffffffffffffffffffffff1681526020019081526020016000206000828254611856919061389d565b925050819055506001600360008473ffffffffffffffffffffffffffffffffffffffff1673ffffffffffffffffffffffffffffffffffffffff16815260200190815260200160002060008282546118ad9190613816565b92505081905550816002600083815260200190815260200160002060006101000a81548173ffffffffffffffffffffffffffffffffffffffff021916908373ffffffffffffffffffffffffffffffffffffffff160217905550808273ffffffffffffffffffffffffffffffffffffffff168473ffffffffffffffffffffffffffffffffffffffff167fddf252ad1be2c89b69c2b068fc378daa952ba7f163c4a11628f55a4df523b3ef60405160405180910390a461196c838383612360565b505050565b6000600660009054906101000a900473ffffffffffffffffffffffffffffffffffffffff16905081600660006101000a81548173ffffffffffffffffffffffffffffffffffffffff021916908373ffffffffffffffffffffffffffffffffffffffff1602179055508173ffffffffffffffffffffffffffffffffffffffff168173ffffffffffffffffffffffffffffffffffffffff167f8be0079c531659141344cd1fd0a4f28419497f9722a3daafe3b4186f6b6457e060405160405180910390a35050565b600081600001549050919050565b611a5f828260405180602001604052806000815250612365565b5050565b8173ffffffffffffffffffffffffffffffffffffffff168373ffffffffffffffffffffffffffffffffffffffff161415611ad2576040517f08c379a0000000000000000000000000000000000000000000000000000000008152600401611ac9906134dd565b60405180910390fd5b80600560008573ffffffffffffffffffffffffffffffffffffffff1673ffffffffffffffffffffffffffffffffffffffff16815260200190815260200160002060008473ffffffffffffffffffffffffffffffffffffffff1673ffffffffffffffffffffffffffffffffffffffff16815260200190815260200160002060006101000a81548160ff0219169083151502179055508173ffffffffffffffffffffffffffffffffffffffff168373ffffffffffffffffffffffffffffffffffffffff167f17307eab39ab6107e8899845ad3d59bd9653f200f220920489ca2b5937696c3183604051611bc39190613400565b60405180910390a3505050565b611bdb84848461170a565b611be7848484846123c0565b611c26576040517f08c379a0000000000000000000000000000000000000000000000000000000008152600401611c1d9061343d565b60405180910390fd5b50505050565b600080600c600084815260200190815260200160002054119050919050565b611ce181604051602401611c5f919061341b565b6040516020818303038152906040527f41304fac000000000000000000000000000000000000000000000000000000007bffffffffffffffffffffffffffffffffffffffffffffffffffffffff19166020820180517bffffffffffffffffffffffffffffffffffffffffffffffffffffffff8381831617835250505050612557565b50565b60606000821415611d2c576040518060400160405280600181526020017f30000000000000000000000000000000000000000000000000000000000000008152509050611e8c565b600082905060005b60008214611d5e578080611d4790613a1b565b915050600a82611d57919061386c565b9150611d34565b60008167ffffffffffffffff811115611da0577f4e487b7100000000000000000000000000000000000000000000000000000000600052604160045260246000fd5b6040519080825280601f01601f191660200182016040528015611dd25781602001600182028036833780820191505090505b5090505b60008514611e8557600182611deb919061389d565b9150600a85611dfa9190613a64565b6030611e069190613816565b60f81b818381518110611e42577f4e487b7100000000000000000000000000000000000000000000000000000000600052603260045260246000fd5b60200101907effffffffffffffffffffffffffffffffffffffffffffffffffffffffffffff1916908160001a905350600a85611e7e919061386c565b9450611dd6565b8093505050505b919050565b60001515601160008473ffffffffffffffffffffffffffffffffffffffff1673ffffffffffffffffffffffffffffffffffffffff16815260200190815260200160002060009054906101000a900460ff16151514611f24576040517f08c379a0000000000000000000000000000000000000000000000000000000008152600401611f1b9061363d565b60405180910390fd5b600060106000838152602001908152602001600020541115611f8357611f7e6040518060400160405280600e81526020017f74686973206973206120776f7264000000000000000000000000000000000000815250611c4b565b61235b565b611f8b610ca0565b73ffffffffffffffffffffffffffffffffffffffff168273ffffffffffffffffffffffffffffffffffffffff1614806120115750600a60009054906101000a900473ffffffffffffffffffffffffffffffffffffffff1673ffffffffffffffffffffffffffffffffffffffff168273ffffffffffffffffffffffffffffffffffffffff16145b1561203c576120376040518060600160405280603a81526020016140c9603a9139611c4b565b61235a565b61207a6040518060400160405280601181526020017f6c6f6f6b696e6720666f72206d61746368000000000000000000000000000000815250611c4b565b600060016120886008611a37565b612092919061389d565b90506000600d60008573ffffffffffffffffffffffffffffffffffffffff1673ffffffffffffffffffffffffffffffffffffffff16815260200190815260200160002082600a811061210d577f4e487b7100000000000000000000000000000000000000000000000000000000600052603260045260246000fd5b0190506000600c600085815260200190815260200160002054905081819080600181540180825580915050600190039060005260206000200160009091909190915055600b61215c6008611a37565b81548110612193577f4e487b7100000000000000000000000000000000000000000000000000000000600052603260045260246000fd5b906000526020600020016040516020016121ad91906133bc565b60405160208183030381529060405280519060200120826040516020016121d491906133de565b6040516020818303038152906040528051906020012014156123175761222e6040518060400160405280600581526020017f6d61746368000000000000000000000000000000000000000000000000000000815250611c4b565b6000600f600061223e6008611a37565b815260200190815260200160002054905061226161225a610ca0565b87836109ab565b6001601160008873ffffffffffffffffffffffffffffffffffffffff1673ffffffffffffffffffffffffffffffffffffffff16815260200190815260200160002060006101000a81548160ff0219169083151502179055508573ffffffffffffffffffffffffffffffffffffffff167f98d572a4e6d9213ae79064bc02ffd572042e79ff8a1ea838a3db009856f90595826040516122ff919061365d565b60405180910390a2612311600861147f565b50612356565b6123556040518060400160405280600881526020017f6e6f206d61746368000000000000000000000000000000000000000000000000815250611c4b565b5b5050505b5b505050565b505050565b61236f8383612580565b61237c60008484846123c0565b6123bb576040517f08c379a00000000000000000000000000000000000000000000000000000000081526004016123b29061343d565b60405180910390fd5b505050565b60006123e18473ffffffffffffffffffffffffffffffffffffffff1661275a565b1561254a578373ffffffffffffffffffffffffffffffffffffffff1663150b7a0261240a61156b565b8786866040518563ffffffff1660e01b815260040161242c949392919061334e565b602060405180830381600087803b15801561244657600080fd5b505af192505050801561247757506040513d601f19601f820116820180604052508101906124749190612d00565b60015b6124fa573d80600081146124a7576040519150601f19603f3d011682016040523d82523d6000602084013e6124ac565b606091505b506000815114156124f2576040517f08c379a00000000000000000000000000000000000000000000000000000000081526004016124e99061343d565b60405180910390fd5b805181602001fd5b63150b7a0260e01b7bffffffffffffffffffffffffffffffffffffffffffffffffffffffff1916817bffffffffffffffffffffffffffffffffffffffffffffffffffffffff19161491505061254f565b600190505b949350505050565b60008151905060006a636f6e736f6c652e6c6f679050602083016000808483855afa5050505050565b600073ffffffffffffffffffffffffffffffffffffffff168273ffffffffffffffffffffffffffffffffffffffff1614156125f0576040517f08c379a00000000000000000000000000000000000000000000000000000000081526004016125e79061357d565b60405180910390fd5b6125f9816114ff565b15612639576040517f08c379a00000000000000000000000000000000000000000000000000000000081526004016126309061349d565b60405180910390fd5b61264560008383611e91565b6001600360008473ffffffffffffffffffffffffffffffffffffffff1673ffffffffffffffffffffffffffffffffffffffff16815260200190815260200160002060008282546126959190613816565b92505081905550816002600083815260200190815260200160002060006101000a81548173ffffffffffffffffffffffffffffffffffffffff021916908373ffffffffffffffffffffffffffffffffffffffff160217905550808273ffffffffffffffffffffffffffffffffffffffff16600073ffffffffffffffffffffffffffffffffffffffff167fddf252ad1be2c89b69c2b068fc378daa952ba7f163c4a11628f55a4df523b3ef60405160405180910390a461275660008383612360565b5050565b6000808273ffffffffffffffffffffffffffffffffffffffff163b119050919050565b8280546127899061399e565b90600052602060002090601f0160209004810192826127ab57600085556127f2565b82601f106127c457805160ff19168380011785556127f2565b828001600101855582156127f2579182015b828111156127f15782518255916020019190600101906127d6565b5b5090506127ff9190612850565b5090565b82805482825590600052602060002090810192821561283f579160200282015b8281111561283e578251825591602001919060010190612823565b5b50905061284c9190612850565b5090565b5b80821115612869576000816000905550600101612851565b5090565b600061288061287b8461369d565b613678565b9050808382526020820190508285602086028201111561289f57600080fd5b60005b858110156128cf57816128b58882612a27565b8452602084019350602083019250506001810190506128a2565b5050509392505050565b60006128ec6128e7846136c9565b613678565b90508281526020810184848401111561290457600080fd5b61290f84828561395c565b509392505050565b600061292a612925846136fa565b613678565b90508281526020810184848401111561294257600080fd5b61294d84828561395c565b509392505050565b60008135905061296481614055565b92915050565b600082601f83011261297b57600080fd5b813561298b84826020860161286d565b91505092915050565b6000813590506129a38161406c565b92915050565b6000813590506129b881614083565b92915050565b6000815190506129cd81614083565b92915050565b600082601f8301126129e457600080fd5b81356129f48482602086016128d9565b91505092915050565b600082601f830112612a0e57600080fd5b8135612a1e848260208601612917565b91505092915050565b600081359050612a368161409a565b92915050565b600081359050612a4b816140b1565b92915050565b600060208284031215612a6357600080fd5b6000612a7184828501612955565b91505092915050565b60008060408385031215612a8d57600080fd5b6000612a9b85828601612955565b9250506020612aac85828601612955565b9150509250929050565b600080600060608486031215612acb57600080fd5b6000612ad986828701612955565b9350506020612aea86828701612955565b9250506040612afb86828701612a27565b9150509250925092565b60008060008060808587031215612b1b57600080fd5b6000612b2987828801612955565b9450506020612b3a87828801612955565b9350506040612b4b87828801612a27565b925050606085013567ffffffffffffffff811115612b6857600080fd5b612b74878288016129d3565b91505092959194509250565b60008060408385031215612b9357600080fd5b6000612ba185828601612955565b925050602083013567ffffffffffffffff811115612bbe57600080fd5b612bca8582860161296a565b9150509250929050565b60008060408385031215612be757600080fd5b6000612bf585828601612955565b9250506020612c0685828601612994565b9150509250929050565b60008060408385031215612c2357600080fd5b6000612c3185828601612955565b9250506020612c4285828601612a27565b9150509250929050565b600080600060608486031215612c6157600080fd5b6000612c6f86828701612955565b9350506020612c8086828701612a27565b9250506040612c9186828701612a27565b9150509250925092565b60008060408385031215612cae57600080fd5b6000612cbc85828601612955565b9250506020612ccd85828601612a3c565b9150509250929050565b600060208284031215612ce957600080fd5b6000612cf7848285016129a9565b91505092915050565b600060208284031215612d1257600080fd5b6000612d20848285016129be565b91505092915050565b600060208284031215612d3b57600080fd5b600082013567ffffffffffffffff811115612d5557600080fd5b612d61848285016129fd565b91505092915050565b600060208284031215612d7c57600080fd5b6000612d8a84828501612a27565b91505092915050565b6000612d9f83836132ac565b60208301905092915050565b612db4816138db565b82525050565b6000612dc58261377a565b612dcf81856137d8565b9350612dda8361372b565b8060005b83811015612e0b578151612df28882612d93565b9750612dfd836137b1565b925050600181019050612dde565b5085935050505092915050565b6000612e2382613790565b612e2d81856137d8565b9350612e3883613750565b8060005b83811015612e7057612e4d82613b51565b612e578882612d93565b9750612e62836137cb565b925050600181019050612e3c565b5085935050505092915050565b6000612e8882613785565b612e9281856137d8565b9350612e9d8361373b565b8060005b83811015612ed557612eb282613b51565b612ebc8882612d93565b9750612ec7836137be565b925050600181019050612ea1565b5085935050505092915050565b612eeb816138ed565b82525050565b6000612efc8261379b565b612f0681856137e9565b9350612f1681856020860161396b565b612f1f81613b64565b840191505092915050565b6000612f35826137a6565b612f3f81856137fa565b9350612f4f81856020860161396b565b612f5881613b64565b840191505092915050565b6000612f6e826137a6565b612f78818561380b565b9350612f8881856020860161396b565b80840191505092915050565b60008154612fa18161399e565b612fab818661380b565b94506001821660008114612fc65760018114612fd75761300a565b60ff1983168652818601935061300a565b612fe085613765565b60005b8381101561300257815481890152600182019150602081019050612fe3565b838801955050505b50505092915050565b60006130206032836137fa565b915061302b82613b82565b604082019050919050565b60006130436026836137fa565b915061304e82613bd1565b604082019050919050565b60006130666025836137fa565b915061307182613c20565b604082019050919050565b6000613089601c836137fa565b915061309482613c6f565b602082019050919050565b60006130ac6024836137fa565b91506130b782613c98565b604082019050919050565b60006130cf6019836137fa565b91506130da82613ce7565b602082019050919050565b60006130f2602c836137fa565b91506130fd82613d10565b604082019050919050565b60006131156038836137fa565b915061312082613d5f565b604082019050919050565b600061313860078361380b565b915061314382613dae565b600782019050919050565b600061315b602a836137fa565b915061316682613dd7565b604082019050919050565b600061317e6029836137fa565b915061318982613e26565b604082019050919050565b60006131a16020836137fa565b91506131ac82613e75565b602082019050919050565b60006131c4602c836137fa565b91506131cf82613e9e565b604082019050919050565b60006131e760058361380b565b91506131f282613eed565b600582019050919050565b600061320a6020836137fa565b915061321582613f16565b602082019050919050565b600061322d602f836137fa565b915061323882613f3f565b604082019050919050565b60006132506021836137fa565b915061325b82613f8e565b604082019050919050565b60006132736031836137fa565b915061327e82613fdd565b604082019050919050565b60006132966017836137fa565b91506132a18261402c565b602082019050919050565b6132b581613945565b82525050565b6132c481613945565b82525050565b60006132d68285612f94565b91506132e28284612f63565b91506132ed826131da565b91508190509392505050565b60006133058285612f94565b91506133108261312b565b915061331c8284612f63565b9150613327826131da565b91508190509392505050565b60006020820190506133486000830184612dab565b92915050565b60006080820190506133636000830187612dab565b6133706020830186612dab565b61337d60408301856132bb565b818103606083015261338f8184612ef1565b905095945050505050565b600060208201905081810360008301526133b48184612dba565b905092915050565b600060208201905081810360008301526133d68184612e7d565b905092915050565b600060208201905081810360008301526133f88184612e18565b905092915050565b60006020820190506134156000830184612ee2565b92915050565b600060208201905081810360008301526134358184612f2a565b905092915050565b6000602082019050818103600083015261345681613013565b9050919050565b6000602082019050818103600083015261347681613036565b9050919050565b6000602082019050818103600083015261349681613059565b9050919050565b600060208201905081810360008301526134b68161307c565b9050919050565b600060208201905081810360008301526134d68161309f565b9050919050565b600060208201905081810360008301526134f6816130c2565b9050919050565b60006020820190508181036000830152613516816130e5565b9050919050565b6000602082019050818103600083015261353681613108565b9050919050565b600060208201905081810360008301526135568161314e565b9050919050565b6000602082019050818103600083015261357681613171565b9050919050565b6000602082019050818103600083015261359681613194565b9050919050565b600060208201905081810360008301526135b6816131b7565b9050919050565b600060208201905081810360008301526135d6816131fd565b9050919050565b600060208201905081810360008301526135f681613220565b9050919050565b6000602082019050818103600083015261361681613243565b9050919050565b6000602082019050818103600083015261363681613266565b9050919050565b6000602082019050818103600083015261365681613289565b9050919050565b600060208201905061367260008301846132bb565b92915050565b6000613682613693565b905061368e82826139ea565b919050565b6000604051905090565b600067ffffffffffffffff8211156136b8576136b7613b22565b5b602082029050602081019050919050565b600067ffffffffffffffff8211156136e4576136e3613b22565b5b6136ed82613b64565b9050602081019050919050565b600067ffffffffffffffff82111561371557613714613b22565b5b61371e82613b64565b9050602081019050919050565b6000819050602082019050919050565b60008190508160005260206000209050919050565b60008190508160005260206000209050919050565b60008190508160005260206000209050919050565b600081519050919050565b600081549050919050565b600081549050919050565b600081519050919050565b600081519050919050565b6000602082019050919050565b6000600182019050919050565b6000600182019050919050565b600082825260208201905092915050565b600082825260208201905092915050565b600082825260208201905092915050565b600081905092915050565b600061382182613945565b915061382c83613945565b9250827fffffffffffffffffffffffffffffffffffffffffffffffffffffffffffffffff0382111561386157613860613a95565b5b828201905092915050565b600061387782613945565b915061388283613945565b92508261389257613891613ac4565b5b828204905092915050565b60006138a882613945565b91506138b383613945565b9250828210156138c6576138c5613a95565b5b828203905092915050565b6000819050919050565b60006138e682613925565b9050919050565b60008115159050919050565b60007fffffffff0000000000000000000000000000000000000000000000000000000082169050919050565b600073ffffffffffffffffffffffffffffffffffffffff82169050919050565b6000819050919050565b600060ff82169050919050565b82818337600083830152505050565b60005b8381101561398957808201518184015260208101905061396e565b83811115613998576000848401525b50505050565b600060028204905060018216806139b657607f821691505b602082108114156139ca576139c9613af3565b5b50919050565b60006139e36139de83613b75565b6138d1565b9050919050565b6139f382613b64565b810181811067ffffffffffffffff82111715613a1257613a11613b22565b5b80604052505050565b6000613a2682613945565b91507fffffffffffffffffffffffffffffffffffffffffffffffffffffffffffffffff821415613a5957613a58613a95565b5b600182019050919050565b6000613a6f82613945565b9150613a7a83613945565b925082613a8a57613a89613ac4565b5b828206905092915050565b7f4e487b7100000000000000000000000000000000000000000000000000000000600052601160045260246000fd5b7f4e487b7100000000000000000000000000000000000000000000000000000000600052601260045260246000fd5b7f4e487b7100000000000000000000000000000000000000000000000000000000600052602260045260246000fd5b7f4e487b7100000000000000000000000000000000000000000000000000000000600052604160045260246000fd5b6000613b5d82546139d0565b9050919050565b6000601f19601f8301169050919050565b60008160001c9050919050565b7f4552433732313a207472616e7366657220746f206e6f6e20455243373231526560008201527f63656976657220696d706c656d656e7465720000000000000000000000000000602082015250565b7f4f776e61626c653a206e6577206f776e657220697320746865207a65726f206160008201527f6464726573730000000000000000000000000000000000000000000000000000602082015250565b7f4552433732313a207472616e736665722066726f6d20696e636f72726563742060008201527f6f776e6572000000000000000000000000000000000000000000000000000000602082015250565b7f4552433732313a20746f6b656e20616c7265616479206d696e74656400000000600082015250565b7f4552433732313a207472616e7366657220746f20746865207a65726f2061646460008201527f7265737300000000000000000000000000000000000000000000000000000000602082015250565b7f4552433732313a20617070726f766520746f2063616c6c657200000000000000600082015250565b7f4552433732313a206f70657261746f7220717565727920666f72206e6f6e657860008201527f697374656e7420746f6b656e0000000000000000000000000000000000000000602082015250565b7f4552433732313a20617070726f76652063616c6c6572206973206e6f74206f7760008201527f6e6572206e6f7220617070726f76656420666f7220616c6c0000000000000000602082015250565b7f6c65747465722d00000000000000000000000000000000000000000000000000600082015250565b7f4552433732313a2062616c616e636520717565727920666f7220746865207a6560008201527f726f206164647265737300000000000000000000000000000000000000000000602082015250565b7f4552433732313a206f776e657220717565727920666f72206e6f6e657869737460008201527f656e7420746f6b656e0000000000000000000000000000000000000000000000602082015250565b7f4552433732313a206d696e7420746f20746865207a65726f2061646472657373600082015250565b7f4552433732313a20617070726f76656420717565727920666f72206e6f6e657860008201527f697374656e7420746f6b656e0000000000000000000000000000000000000000602082015250565b7f2e6a736f6e000000000000000000000000000000000000000000000000000000600082015250565b7f4f776e61626c653a2063616c6c6572206973206e6f7420746865206f776e6572600082015250565b7f4552433732314d657461646174613a2055524920717565727920666f72206e6f60008201527f6e6578697374656e7420746f6b656e0000000000000000000000000000000000602082015250565b7f4552433732313a20617070726f76616c20746f2063757272656e74206f776e6560008201527f7200000000000000000000000000000000000000000000000000000000000000602082015250565b7f4552433732313a207472616e736665722063616c6c6572206973206e6f74206f60008201527f776e6572206e6f7220617070726f766564000000000000000000000000000000602082015250565b7f596f75206d6179206f6e6c7920706c6179206f6e636521000000000000000000600082015250565b61405e816138db565b811461406957600080fd5b50565b614075816138ed565b811461408057600080fd5b50565b61408c816138f9565b811461409757600080fd5b50565b6140a381613945565b81146140ae57600080fd5b50565b6140ba8161394f565b81146140c557600080fd5b5056fe5468697320697320746865206f776e657220646f696e6720736f6d657468696e67206f7220746865206169726361636865207472616e73666572a264697066735822122068b1faa85ac8e534ddedc673e33c7156e9ad6823d22eedcf863c28fa8581278264736f6c63430008040033",
  "linkReferences": {},
  "deployedLinkReferences": {}
}