{"_format":"hh-sol-artifact-1","contractName":"Polyaytso","sourceName":"contracts/Polyaytso.sol","abi":[{"inputs":[],"stateMutability":"nonpayable","type":"constructor"},{"anonymous":false,"inputs":[{"indexed":true,"internalType":"address","name":"account","type":"address"},{"indexed":true,"internalType":"address","name":"operator","type":"address"},{"indexed":false,"internalType":"bool","name":"approved","type":"bool"}],"name":"ApprovalForAll","type":"event"},{"anonymous":false,"inputs":[{"indexed":true,"internalType":"address","name":"previousOwner","type":"address"},{"indexed":true,"internalType":"address","name":"newOwner","type":"address"}],"name":"OwnershipTransferred","type":"event"},{"anonymous":false,"inputs":[{"indexed":true,"internalType":"address","name":"operator","type":"address"},{"indexed":true,"internalType":"address","name":"from","type":"address"},{"indexed":true,"internalType":"address","name":"to","type":"address"},{"indexed":false,"internalType":"uint256[]","name":"ids","type":"uint256[]"},{"indexed":false,"internalType":"uint256[]","name":"values","type":"uint256[]"}],"name":"TransferBatch","type":"event"},{"anonymous":false,"inputs":[{"indexed":true,"internalType":"address","name":"operator","type":"address"},{"indexed":true,"internalType":"address","name":"from","type":"address"},{"indexed":true,"internalType":"address","name":"to","type":"address"},{"indexed":false,"internalType":"uint256","name":"id","type":"uint256"},{"indexed":false,"internalType":"uint256","name":"value","type":"uint256"}],"name":"TransferSingle","type":"event"},{"anonymous":false,"inputs":[{"indexed":false,"internalType":"string","name":"value","type":"string"},{"indexed":true,"internalType":"uint256","name":"id","type":"uint256"}],"name":"URI","type":"event"},{"inputs":[],"name":"LOVE","outputs":[{"internalType":"uint256","name":"","type":"uint256"}],"stateMutability":"view","type":"function"},{"inputs":[{"internalType":"address","name":"_account","type":"address"}],"name":"accountHasYaytso","outputs":[{"internalType":"bool","name":"","type":"bool"}],"stateMutability":"view","type":"function"},{"inputs":[{"internalType":"address","name":"account","type":"address"},{"internalType":"uint256","name":"id","type":"uint256"}],"name":"balanceOf","outputs":[{"internalType":"uint256","name":"","type":"uint256"}],"stateMutability":"view","type":"function"},{"inputs":[{"internalType":"address[]","name":"accounts","type":"address[]"},{"internalType":"uint256[]","name":"ids","type":"uint256[]"}],"name":"balanceOfBatch","outputs":[{"internalType":"uint256[]","name":"","type":"uint256[]"}],"stateMutability":"view","type":"function"},{"inputs":[{"internalType":"uint256","name":"","type":"uint256"}],"name":"eggLevels","outputs":[{"internalType":"uint8","name":"","type":"uint8"}],"stateMutability":"view","type":"function"},{"inputs":[{"internalType":"address","name":"_account","type":"address"}],"name":"getYaytsosOfAccount","outputs":[{"internalType":"uint256[]","name":"","type":"uint256[]"}],"stateMutability":"view","type":"function"},{"inputs":[{"internalType":"address","name":"account","type":"address"},{"internalType":"address","name":"operator","type":"address"}],"name":"isApprovedForAll","outputs":[{"internalType":"bool","name":"","type":"bool"}],"stateMutability":"view","type":"function"},{"inputs":[{"internalType":"address","name":"_recipient","type":"address"},{"internalType":"uint256[]","name":"_tokenIds","type":"uint256[]"},{"internalType":"uint256[]","name":"_amounts","type":"uint256[]"}],"name":"layBatchToOne","outputs":[],"stateMutability":"nonpayable","type":"function"},{"inputs":[{"internalType":"address","name":"_recipient","type":"address"},{"internalType":"uint256","name":"_tokenId","type":"uint256"}],"name":"layYaytso","outputs":[],"stateMutability":"nonpayable","type":"function"},{"inputs":[{"internalType":"uint256","name":"_tokenId","type":"uint256"}],"name":"levelUpEgg","outputs":[],"stateMutability":"nonpayable","type":"function"},{"inputs":[{"internalType":"uint256","name":"_tokenId","type":"uint256"}],"name":"loveEgg","outputs":[],"stateMutability":"nonpayable","type":"function"},{"inputs":[],"name":"owner","outputs":[{"internalType":"address","name":"","type":"address"}],"stateMutability":"view","type":"function"},{"inputs":[],"name":"renounceOwnership","outputs":[],"stateMutability":"nonpayable","type":"function"},{"inputs":[{"internalType":"address","name":"from","type":"address"},{"internalType":"address","name":"to","type":"address"},{"internalType":"uint256[]","name":"ids","type":"uint256[]"},{"internalType":"uint256[]","name":"amounts","type":"uint256[]"},{"internalType":"bytes","name":"data","type":"bytes"}],"name":"safeBatchTransferFrom","outputs":[],"stateMutability":"nonpayable","type":"function"},{"inputs":[{"internalType":"address","name":"from","type":"address"},{"internalType":"address","name":"to","type":"address"},{"internalType":"uint256","name":"id","type":"uint256"},{"internalType":"uint256","name":"amount","type":"uint256"},{"internalType":"bytes","name":"data","type":"bytes"}],"name":"safeTransferFrom","outputs":[],"stateMutability":"nonpayable","type":"function"},{"inputs":[{"internalType":"address","name":"operator","type":"address"},{"internalType":"bool","name":"approved","type":"bool"}],"name":"setApprovalForAll","outputs":[],"stateMutability":"nonpayable","type":"function"},{"inputs":[{"internalType":"bytes4","name":"interfaceId","type":"bytes4"}],"name":"supportsInterface","outputs":[{"internalType":"bool","name":"","type":"bool"}],"stateMutability":"view","type":"function"},{"inputs":[],"name":"tokenIds","outputs":[{"internalType":"uint256","name":"","type":"uint256"}],"stateMutability":"view","type":"function"},{"inputs":[{"internalType":"address","name":"newOwner","type":"address"}],"name":"transferOwnership","outputs":[],"stateMutability":"nonpayable","type":"function"},{"inputs":[{"internalType":"uint256","name":"","type":"uint256"}],"name":"uri","outputs":[{"internalType":"string","name":"","type":"string"}],"stateMutability":"view","type":"function"}],"bytecode":"0x608060405260016004553480156200001657600080fd5b50604051806060016040528060298152602001620046806029913962000042816200009560201b60201c565b506200006362000057620000b160201b60201c565b620000b960201b60201c565b6200008f336000670de0b6b3a7640000604051806020016040528060008152506200017f60201b60201c565b62000d8d565b8060029080519060200190620000ad92919062000642565b5050565b600033905090565b6000600360009054906101000a900473ffffffffffffffffffffffffffffffffffffffff16905081600360006101000a81548173ffffffffffffffffffffffffffffffffffffffff021916908373ffffffffffffffffffffffffffffffffffffffff1602179055508173ffffffffffffffffffffffffffffffffffffffff168173ffffffffffffffffffffffffffffffffffffffff167f8be0079c531659141344cd1fd0a4f28419497f9722a3daafe3b4186f6b6457e060405160405180910390a35050565b600073ffffffffffffffffffffffffffffffffffffffff168473ffffffffffffffffffffffffffffffffffffffff161415620001f2576040517f08c379a0000000000000000000000000000000000000000000000000000000008152600401620001e9906200091a565b60405180910390fd5b600062000204620000b160201b60201c565b90506200023d816000876200021f886200034460201b60201c565b62000230886200034460201b60201c565b876200040d60201b60201c565b8260008086815260200190815260200160002060008773ffffffffffffffffffffffffffffffffffffffff1673ffffffffffffffffffffffffffffffffffffffff16815260200190815260200160002060008282546200029e9190620009ab565b925050819055508473ffffffffffffffffffffffffffffffffffffffff16600073ffffffffffffffffffffffffffffffffffffffff168273ffffffffffffffffffffffffffffffffffffffff167fc3d58168c5ae7397731d063d5bbf3d657854427343f4c083240f7aacaa2d0f6287876040516200031e9291906200093c565b60405180910390a46200033d816000878787876200041560201b60201c565b5050505050565b60606000600167ffffffffffffffff8111156200038a577f4e487b7100000000000000000000000000000000000000000000000000000000600052604160045260246000fd5b604051908082528060200260200182016040528015620003b95781602001602082028036833780820191505090505b5090508281600081518110620003f8577f4e487b7100000000000000000000000000000000000000000000000000000000600052603260045260246000fd5b60200260200101818152505080915050919050565b505050505050565b620004418473ffffffffffffffffffffffffffffffffffffffff166200061f60201b62000f821760201c565b1562000617578373ffffffffffffffffffffffffffffffffffffffff1663f23a6e6187878686866040518663ffffffff1660e01b81526004016200048a9594939291906200084e565b602060405180830381600087803b158015620004a557600080fd5b505af1925050508015620004d957506040513d601f19601f82011682018060405250810190620004d6919062000709565b60015b6200058b57620004e862000ba1565b806308c379a014156200054c57506200050062000cd1565b806200050d57506200054e565b806040517f08c379a0000000000000000000000000000000000000000000000000000000008152600401620005439190620008b2565b60405180910390fd5b505b6040517f08c379a00000000000000000000000000000000000000000000000000000000081526004016200058290620008d6565b60405180910390fd5b63f23a6e6160e01b7bffffffffffffffffffffffffffffffffffffffffffffffffffffffff1916817bffffffffffffffffffffffffffffffffffffffffffffffffffffffff19161462000615576040517f08c379a00000000000000000000000000000000000000000000000000000000081526004016200060c90620008f8565b60405180910390fd5b505b505050505050565b6000808273ffffffffffffffffffffffffffffffffffffffff163b119050919050565b828054620006509062000aa8565b90600052602060002090601f016020900481019282620006745760008555620006c0565b82601f106200068f57805160ff1916838001178555620006c0565b82800160010185558215620006c0579182015b82811115620006bf578251825591602001919060010190620006a2565b5b509050620006cf9190620006d3565b5090565b5b80821115620006ee576000816000905550600101620006d4565b5090565b600081519050620007038162000d73565b92915050565b6000602082840312156200071c57600080fd5b60006200072c84828501620006f2565b91505092915050565b620007408162000a08565b82525050565b6000620007538262000973565b6200075f818562000989565b93506200077181856020860162000a72565b6200077c8162000bc6565b840191505092915050565b600062000794826200097e565b620007a081856200099a565b9350620007b281856020860162000a72565b620007bd8162000bc6565b840191505092915050565b6000620007d76034836200099a565b9150620007e48262000be4565b604082019050919050565b6000620007fe6028836200099a565b91506200080b8262000c33565b604082019050919050565b6000620008256021836200099a565b9150620008328262000c82565b604082019050919050565b620008488162000a68565b82525050565b600060a08201905062000865600083018862000735565b62000874602083018762000735565b6200088360408301866200083d565b6200089260608301856200083d565b8181036080830152620008a6818462000746565b90509695505050505050565b60006020820190508181036000830152620008ce818462000787565b905092915050565b60006020820190508181036000830152620008f181620007c8565b9050919050565b600060208201905081810360008301526200091381620007ef565b9050919050565b60006020820190508181036000830152620009358162000816565b9050919050565b60006040820190506200095360008301856200083d565b6200096260208301846200083d565b9392505050565b6000604051905090565b600081519050919050565b600081519050919050565b600082825260208201905092915050565b600082825260208201905092915050565b6000620009b88262000a68565b9150620009c58362000a68565b9250827fffffffffffffffffffffffffffffffffffffffffffffffffffffffffffffffff03821115620009fd57620009fc62000b14565b5b828201905092915050565b600062000a158262000a48565b9050919050565b60007fffffffff0000000000000000000000000000000000000000000000000000000082169050919050565b600073ffffffffffffffffffffffffffffffffffffffff82169050919050565b6000819050919050565b60005b8381101562000a9257808201518184015260208101905062000a75565b8381111562000aa2576000848401525b50505050565b6000600282049050600182168062000ac157607f821691505b6020821081141562000ad85762000ad762000b43565b5b50919050565b62000ae98262000bc6565b810181811067ffffffffffffffff8211171562000b0b5762000b0a62000b72565b5b80604052505050565b7f4e487b7100000000000000000000000000000000000000000000000000000000600052601160045260246000fd5b7f4e487b7100000000000000000000000000000000000000000000000000000000600052602260045260246000fd5b7f4e487b7100000000000000000000000000000000000000000000000000000000600052604160045260246000fd5b600060033d111562000bc35760046000803e62000bc060005162000bd7565b90505b90565b6000601f19601f8301169050919050565b60008160e01c9050919050565b7f455243313135353a207472616e7366657220746f206e6f6e204552433131353560008201527f526563656976657220696d706c656d656e746572000000000000000000000000602082015250565b7f455243313135353a204552433131353552656365697665722072656a6563746560008201527f6420746f6b656e73000000000000000000000000000000000000000000000000602082015250565b7f455243313135353a206d696e7420746f20746865207a65726f2061646472657360008201527f7300000000000000000000000000000000000000000000000000000000000000602082015250565b600060443d101562000ce35762000d70565b62000ced62000969565b60043d036004823e80513d602482011167ffffffffffffffff8211171562000d1757505062000d70565b808201805167ffffffffffffffff81111562000d37575050505062000d70565b80602083010160043d03850181111562000d5657505050505062000d70565b62000d678260200185018662000ade565b82955050505050505b90565b62000d7e8162000a1c565b811462000d8a57600080fd5b50565b6138e38062000d9d6000396000f3fe608060405234801561001057600080fd5b506004361061012b5760003560e01c80638da5cb5b116100ad578063e985e9c511610071578063e985e9c514610354578063f007e3e914610384578063f0bf7efc146103a0578063f242432a146103bc578063f2fde38b146103d85761012b565b80638da5cb5b1461029e578063987a6b48146102bc578063a22cb465146102ec578063a82ca34614610308578063c0dd259f146103245761012b565b80634e1273f4116100f45780634e1273f4146101fa578063714cff561461022a578063715018a6146102485780637cedaffe14610252578063825f18cc146102825761012b565b8062fdd58e1461013057806301ffc9a7146101605780630e89341c1461019057806320b69898146101c05780632eb2c2d6146101de575b600080fd5b61014a60048036038101906101459190612750565b6103f4565b6040516101579190612f06565b60405180910390f35b61017a600480360381019061017591906127f8565b6104bd565b6040516101879190612ce9565b60405180910390f35b6101aa60048036038101906101a5919061284a565b61059f565b6040516101b79190612d04565b60405180910390f35b6101c8610633565b6040516101d59190612f06565b60405180910390f35b6101f860048036038101906101f39190612547565b610638565b005b610214600480360381019061020f919061278c565b6106d9565b6040516102219190612c90565b60405180910390f35b61023261088a565b60405161023f9190612f06565b60405180910390f35b610250610890565b005b61026c600480360381019061026791906124e2565b610918565b6040516102799190612c90565b60405180910390f35b61029c60048036038101906102979190612695565b610a0c565b005b6102a6610abd565b6040516102b39190612bb3565b60405180910390f35b6102d660048036038101906102d1919061284a565b610ae7565b6040516102e39190612f4a565b60405180910390f35b61030660048036038101906103019190612714565b610b07565b005b610322600480360381019061031d9190612750565b610b1d565b005b61033e600480360381019061033991906124e2565b610bd1565b60405161034b9190612ce9565b60405180910390f35b61036e6004803603810190610369919061250b565b610c1d565b60405161037b9190612ce9565b60405180910390f35b61039e6004803603810190610399919061284a565b610cb1565b005b6103ba60048036038101906103b5919061284a565b610d21565b005b6103d660048036038101906103d19190612606565b610de9565b005b6103f260048036038101906103ed91906124e2565b610e8a565b005b60008073ffffffffffffffffffffffffffffffffffffffff168373ffffffffffffffffffffffffffffffffffffffff161415610465576040517f08c379a000000000000000000000000000000000000000000000000000000000815260040161045c90612d66565b60405180910390fd5b60008083815260200190815260200160002060008473ffffffffffffffffffffffffffffffffffffffff1673ffffffffffffffffffffffffffffffffffffffff16815260200190815260200160002054905092915050565b60007fd9b67a26000000000000000000000000000000000000000000000000000000007bffffffffffffffffffffffffffffffffffffffffffffffffffffffff1916827bffffffffffffffffffffffffffffffffffffffffffffffffffffffff1916148061058857507f0e89341c000000000000000000000000000000000000000000000000000000007bffffffffffffffffffffffffffffffffffffffffffffffffffffffff1916827bffffffffffffffffffffffffffffffffffffffffffffffffffffffff1916145b80610598575061059782610fa5565b5b9050919050565b6060600280546105ae9061319d565b80601f01602080910402602001604051908101604052809291908181526020018280546105da9061319d565b80156106275780601f106105fc57610100808354040283529160200191610627565b820191906000526020600020905b81548152906001019060200180831161060a57829003601f168201915b50505050509050919050565b600081565b61064061100f565b73ffffffffffffffffffffffffffffffffffffffff168573ffffffffffffffffffffffffffffffffffffffff16148061068657506106858561068061100f565b610c1d565b5b6106c5576040517f08c379a00000000000000000000000000000000000000000000000000000000081526004016106bc90612e06565b60405180910390fd5b6106d28585858585611017565b5050505050565b6060815183511461071f576040517f08c379a000000000000000000000000000000000000000000000000000000000815260040161071690612ea6565b60405180910390fd5b6000835167ffffffffffffffff811115610762577f4e487b7100000000000000000000000000000000000000000000000000000000600052604160045260246000fd5b6040519080825280602002602001820160405280156107905781602001602082028036833780820191505090505b50905060005b845181101561087f576108298582815181106107db577f4e487b7100000000000000000000000000000000000000000000000000000000600052603260045260246000fd5b602002602001015185838151811061081c577f4e487b7100000000000000000000000000000000000000000000000000000000600052603260045260246000fd5b60200260200101516103f4565b828281518110610862577f4e487b7100000000000000000000000000000000000000000000000000000000600052603260045260246000fd5b6020026020010181815250508061087890613200565b9050610796565b508091505092915050565b60045481565b61089861100f565b73ffffffffffffffffffffffffffffffffffffffff166108b6610abd565b73ffffffffffffffffffffffffffffffffffffffff161461090c576040517f08c379a000000000000000000000000000000000000000000000000000000000815260040161090390612e66565b60405180910390fd5b6109166000611377565b565b6060600060045467ffffffffffffffff81111561095e577f4e487b7100000000000000000000000000000000000000000000000000000000600052604160045260246000fd5b60405190808252806020026020018201604052801561098c5781602001602082028036833780820191505090505b5090506000600190505b600454811015610a02576109aa84826103f4565b8282815181106109e3577f4e487b7100000000000000000000000000000000000000000000000000000000600052603260045260246000fd5b60200260200101818152505080806109fa90613200565b915050610996565b5080915050919050565b610a1461100f565b73ffffffffffffffffffffffffffffffffffffffff16610a32610abd565b73ffffffffffffffffffffffffffffffffffffffff1614610a88576040517f08c379a0000000000000000000000000000000000000000000000000000000008152600401610a7f90612e66565b60405180910390fd5b610aa38383836040518060200160405280600081525061143d565b8151600454610ab29190613084565b600481905550505050565b6000600360009054906101000a900473ffffffffffffffffffffffffffffffffffffffff16905090565b60056020528060005260406000206000915054906101000a900460ff1681565b610b19610b1261100f565b83836116a7565b5050565b610b2561100f565b73ffffffffffffffffffffffffffffffffffffffff16610b43610abd565b73ffffffffffffffffffffffffffffffffffffffff1614610b99576040517f08c379a0000000000000000000000000000000000000000000000000000000008152600401610b9090612e66565b60405180910390fd5b610bb58282600160405180602001604052806000815250611814565b60046000815480929190610bc890613200565b91905055505050565b600080600090506000600190505b600454811015610c13576000610bf585836103f4565b1115610c0057600191505b8080610c0b90613200565b915050610bdf565b5080915050919050565b6000600160008473ffffffffffffffffffffffffffffffffffffffff1673ffffffffffffffffffffffffffffffffffffffff16815260200190815260200160002060008373ffffffffffffffffffffffffffffffffffffffff1673ffffffffffffffffffffffffffffffffffffffff16815260200190815260200160002060009054906101000a900460ff16905092915050565b6064610cbe3360006103f4565b11610cc857600080fd5b610cd533600060646119aa565b60056000828152602001908152602001600020600081819054906101000a900460ff1680929190610d0590613249565b91906101000a81548160ff021916908360ff1602179055505050565b610d2961100f565b73ffffffffffffffffffffffffffffffffffffffff16610d47610abd565b73ffffffffffffffffffffffffffffffffffffffff1614610d9d576040517f08c379a0000000000000000000000000000000000000000000000000000000008152600401610d9490612e66565b60405180910390fd5b60056000828152602001908152602001600020600081819054906101000a900460ff1680929190610dcd90613249565b91906101000a81548160ff021916908360ff1602179055505050565b610df161100f565b73ffffffffffffffffffffffffffffffffffffffff168573ffffffffffffffffffffffffffffffffffffffff161480610e375750610e3685610e3161100f565b610c1d565b5b610e76576040517f08c379a0000000000000000000000000000000000000000000000000000000008152600401610e6d90612dc6565b60405180910390fd5b610e838585858585611bc7565b5050505050565b610e9261100f565b73ffffffffffffffffffffffffffffffffffffffff16610eb0610abd565b73ffffffffffffffffffffffffffffffffffffffff1614610f06576040517f08c379a0000000000000000000000000000000000000000000000000000000008152600401610efd90612e66565b60405180910390fd5b600073ffffffffffffffffffffffffffffffffffffffff168173ffffffffffffffffffffffffffffffffffffffff161415610f76576040517f08c379a0000000000000000000000000000000000000000000000000000000008152600401610f6d90612d86565b60405180910390fd5b610f7f81611377565b50565b6000808273ffffffffffffffffffffffffffffffffffffffff163b119050919050565b60007f01ffc9a7000000000000000000000000000000000000000000000000000000007bffffffffffffffffffffffffffffffffffffffffffffffffffffffff1916827bffffffffffffffffffffffffffffffffffffffffffffffffffffffff1916149050919050565b600033905090565b815183511461105b576040517f08c379a000000000000000000000000000000000000000000000000000000000815260040161105290612ec6565b60405180910390fd5b600073ffffffffffffffffffffffffffffffffffffffff168473ffffffffffffffffffffffffffffffffffffffff1614156110cb576040517f08c379a00000000000000000000000000000000000000000000000000000000081526004016110c290612de6565b60405180910390fd5b60006110d561100f565b90506110e5818787878787611e49565b60005b84518110156112e257600085828151811061112c577f4e487b7100000000000000000000000000000000000000000000000000000000600052603260045260246000fd5b602002602001015190506000858381518110611171577f4e487b7100000000000000000000000000000000000000000000000000000000600052603260045260246000fd5b60200260200101519050600080600084815260200190815260200160002060008b73ffffffffffffffffffffffffffffffffffffffff1673ffffffffffffffffffffffffffffffffffffffff16815260200190815260200160002054905081811015611212576040517f08c379a000000000000000000000000000000000000000000000000000000000815260040161120990612e46565b60405180910390fd5b81810360008085815260200190815260200160002060008c73ffffffffffffffffffffffffffffffffffffffff1673ffffffffffffffffffffffffffffffffffffffff168152602001908152602001600020819055508160008085815260200190815260200160002060008b73ffffffffffffffffffffffffffffffffffffffff1673ffffffffffffffffffffffffffffffffffffffff16815260200190815260200160002060008282546112c79190613084565b92505081905550505050806112db90613200565b90506110e8565b508473ffffffffffffffffffffffffffffffffffffffff168673ffffffffffffffffffffffffffffffffffffffff168273ffffffffffffffffffffffffffffffffffffffff167f4a39dc06d4c0dbc64b70af90fd698a233a518aa5d07e595d983b8c0526c8f7fb8787604051611359929190612cb2565b60405180910390a461136f818787878787611e51565b505050505050565b6000600360009054906101000a900473ffffffffffffffffffffffffffffffffffffffff16905081600360006101000a81548173ffffffffffffffffffffffffffffffffffffffff021916908373ffffffffffffffffffffffffffffffffffffffff1602179055508173ffffffffffffffffffffffffffffffffffffffff168173ffffffffffffffffffffffffffffffffffffffff167f8be0079c531659141344cd1fd0a4f28419497f9722a3daafe3b4186f6b6457e060405160405180910390a35050565b600073ffffffffffffffffffffffffffffffffffffffff168473ffffffffffffffffffffffffffffffffffffffff1614156114ad576040517f08c379a00000000000000000000000000000000000000000000000000000000081526004016114a490612ee6565b60405180910390fd5b81518351146114f1576040517f08c379a00000000000000000000000000000000000000000000000000000000081526004016114e890612ec6565b60405180910390fd5b60006114fb61100f565b905061150c81600087878787611e49565b60005b845181101561161157838181518110611551577f4e487b7100000000000000000000000000000000000000000000000000000000600052603260045260246000fd5b6020026020010151600080878481518110611595577f4e487b7100000000000000000000000000000000000000000000000000000000600052603260045260246000fd5b6020026020010151815260200190815260200160002060008873ffffffffffffffffffffffffffffffffffffffff1673ffffffffffffffffffffffffffffffffffffffff16815260200190815260200160002060008282546115f79190613084565b92505081905550808061160990613200565b91505061150f565b508473ffffffffffffffffffffffffffffffffffffffff16600073ffffffffffffffffffffffffffffffffffffffff168273ffffffffffffffffffffffffffffffffffffffff167f4a39dc06d4c0dbc64b70af90fd698a233a518aa5d07e595d983b8c0526c8f7fb8787604051611689929190612cb2565b60405180910390a46116a081600087878787611e51565b5050505050565b8173ffffffffffffffffffffffffffffffffffffffff168373ffffffffffffffffffffffffffffffffffffffff161415611716576040517f08c379a000000000000000000000000000000000000000000000000000000000815260040161170d90612e86565b60405180910390fd5b80600160008573ffffffffffffffffffffffffffffffffffffffff1673ffffffffffffffffffffffffffffffffffffffff16815260200190815260200160002060008473ffffffffffffffffffffffffffffffffffffffff1673ffffffffffffffffffffffffffffffffffffffff16815260200190815260200160002060006101000a81548160ff0219169083151502179055508173ffffffffffffffffffffffffffffffffffffffff168373ffffffffffffffffffffffffffffffffffffffff167f17307eab39ab6107e8899845ad3d59bd9653f200f220920489ca2b5937696c31836040516118079190612ce9565b60405180910390a3505050565b600073ffffffffffffffffffffffffffffffffffffffff168473ffffffffffffffffffffffffffffffffffffffff161415611884576040517f08c379a000000000000000000000000000000000000000000000000000000000815260040161187b90612ee6565b60405180910390fd5b600061188e61100f565b90506118af816000876118a088612038565b6118a988612038565b87611e49565b8260008086815260200190815260200160002060008773ffffffffffffffffffffffffffffffffffffffff1673ffffffffffffffffffffffffffffffffffffffff168152602001908152602001600020600082825461190e9190613084565b925050819055508473ffffffffffffffffffffffffffffffffffffffff16600073ffffffffffffffffffffffffffffffffffffffff168273ffffffffffffffffffffffffffffffffffffffff167fc3d58168c5ae7397731d063d5bbf3d657854427343f4c083240f7aacaa2d0f62878760405161198c929190612f21565b60405180910390a46119a3816000878787876120fe565b5050505050565b600073ffffffffffffffffffffffffffffffffffffffff168373ffffffffffffffffffffffffffffffffffffffff161415611a1a576040517f08c379a0000000000000000000000000000000000000000000000000000000008152600401611a1190612e26565b60405180910390fd5b6000611a2461100f565b9050611a5481856000611a3687612038565b611a3f87612038565b60405180602001604052806000815250611e49565b600080600085815260200190815260200160002060008673ffffffffffffffffffffffffffffffffffffffff1673ffffffffffffffffffffffffffffffffffffffff16815260200190815260200160002054905082811015611aeb576040517f08c379a0000000000000000000000000000000000000000000000000000000008152600401611ae290612da6565b60405180910390fd5b82810360008086815260200190815260200160002060008773ffffffffffffffffffffffffffffffffffffffff1673ffffffffffffffffffffffffffffffffffffffff16815260200190815260200160002081905550600073ffffffffffffffffffffffffffffffffffffffff168573ffffffffffffffffffffffffffffffffffffffff168373ffffffffffffffffffffffffffffffffffffffff167fc3d58168c5ae7397731d063d5bbf3d657854427343f4c083240f7aacaa2d0f628787604051611bb8929190612f21565b60405180910390a45050505050565b600073ffffffffffffffffffffffffffffffffffffffff168473ffffffffffffffffffffffffffffffffffffffff161415611c37576040517f08c379a0000000000000000000000000000000000000000000000000000000008152600401611c2e90612de6565b60405180910390fd5b6000611c4161100f565b9050611c61818787611c5288612038565b611c5b88612038565b87611e49565b600080600086815260200190815260200160002060008873ffffffffffffffffffffffffffffffffffffffff1673ffffffffffffffffffffffffffffffffffffffff16815260200190815260200160002054905083811015611cf8576040517f08c379a0000000000000000000000000000000000000000000000000000000008152600401611cef90612e46565b60405180910390fd5b83810360008087815260200190815260200160002060008973ffffffffffffffffffffffffffffffffffffffff1673ffffffffffffffffffffffffffffffffffffffff168152602001908152602001600020819055508360008087815260200190815260200160002060008873ffffffffffffffffffffffffffffffffffffffff1673ffffffffffffffffffffffffffffffffffffffff1681526020019081526020016000206000828254611dad9190613084565b925050819055508573ffffffffffffffffffffffffffffffffffffffff168773ffffffffffffffffffffffffffffffffffffffff168373ffffffffffffffffffffffffffffffffffffffff167fc3d58168c5ae7397731d063d5bbf3d657854427343f4c083240f7aacaa2d0f628888604051611e2a929190612f21565b60405180910390a4611e408288888888886120fe565b50505050505050565b505050505050565b611e708473ffffffffffffffffffffffffffffffffffffffff16610f82565b15612030578373ffffffffffffffffffffffffffffffffffffffff1663bc197c8187878686866040518663ffffffff1660e01b8152600401611eb6959493929190612bce565b602060405180830381600087803b158015611ed057600080fd5b505af1925050508015611f0157506040513d601f19601f82011682018060405250810190611efe9190612821565b60015b611fa757611f0d613300565b806308c379a01415611f6a5750611f226137bb565b80611f2d5750611f6c565b806040517f08c379a0000000000000000000000000000000000000000000000000000000008152600401611f619190612d04565b60405180910390fd5b505b6040517f08c379a0000000000000000000000000000000000000000000000000000000008152600401611f9e90612d26565b60405180910390fd5b63bc197c8160e01b7bffffffffffffffffffffffffffffffffffffffffffffffffffffffff1916817bffffffffffffffffffffffffffffffffffffffffffffffffffffffff19161461202e576040517f08c379a000000000000000000000000000000000000000000000000000000000815260040161202590612d46565b60405180910390fd5b505b505050505050565b60606000600167ffffffffffffffff81111561207d577f4e487b7100000000000000000000000000000000000000000000000000000000600052604160045260246000fd5b6040519080825280602002602001820160405280156120ab5781602001602082028036833780820191505090505b50905082816000815181106120e9577f4e487b7100000000000000000000000000000000000000000000000000000000600052603260045260246000fd5b60200260200101818152505080915050919050565b61211d8473ffffffffffffffffffffffffffffffffffffffff16610f82565b156122dd578373ffffffffffffffffffffffffffffffffffffffff1663f23a6e6187878686866040518663ffffffff1660e01b8152600401612163959493929190612c36565b602060405180830381600087803b15801561217d57600080fd5b505af19250505080156121ae57506040513d601f19601f820116820180604052508101906121ab9190612821565b60015b612254576121ba613300565b806308c379a0141561221757506121cf6137bb565b806121da5750612219565b806040517f08c379a000000000000000000000000000000000000000000000000000000000815260040161220e9190612d04565b60405180910390fd5b505b6040517f08c379a000000000000000000000000000000000000000000000000000000000815260040161224b90612d26565b60405180910390fd5b63f23a6e6160e01b7bffffffffffffffffffffffffffffffffffffffffffffffffffffffff1916817bffffffffffffffffffffffffffffffffffffffffffffffffffffffff1916146122db576040517f08c379a00000000000000000000000000000000000000000000000000000000081526004016122d290612d46565b60405180910390fd5b505b505050505050565b60006122f86122f384612f8a565b612f65565b9050808382526020820190508285602086028201111561231757600080fd5b60005b85811015612347578161232d88826123fb565b84526020840193506020830192505060018101905061231a565b5050509392505050565b600061236461235f84612fb6565b612f65565b9050808382526020820190508285602086028201111561238357600080fd5b60005b858110156123b3578161239988826124cd565b845260208401935060208301925050600181019050612386565b5050509392505050565b60006123d06123cb84612fe2565b612f65565b9050828152602081018484840111156123e857600080fd5b6123f384828561315b565b509392505050565b60008135905061240a81613851565b92915050565b600082601f83011261242157600080fd5b81356124318482602086016122e5565b91505092915050565b600082601f83011261244b57600080fd5b813561245b848260208601612351565b91505092915050565b60008135905061247381613868565b92915050565b6000813590506124888161387f565b92915050565b60008151905061249d8161387f565b92915050565b600082601f8301126124b457600080fd5b81356124c48482602086016123bd565b91505092915050565b6000813590506124dc81613896565b92915050565b6000602082840312156124f457600080fd5b6000612502848285016123fb565b91505092915050565b6000806040838503121561251e57600080fd5b600061252c858286016123fb565b925050602061253d858286016123fb565b9150509250929050565b600080600080600060a0868803121561255f57600080fd5b600061256d888289016123fb565b955050602061257e888289016123fb565b945050604086013567ffffffffffffffff81111561259b57600080fd5b6125a78882890161243a565b935050606086013567ffffffffffffffff8111156125c457600080fd5b6125d08882890161243a565b925050608086013567ffffffffffffffff8111156125ed57600080fd5b6125f9888289016124a3565b9150509295509295909350565b600080600080600060a0868803121561261e57600080fd5b600061262c888289016123fb565b955050602061263d888289016123fb565b945050604061264e888289016124cd565b935050606061265f888289016124cd565b925050608086013567ffffffffffffffff81111561267c57600080fd5b612688888289016124a3565b9150509295509295909350565b6000806000606084860312156126aa57600080fd5b60006126b8868287016123fb565b935050602084013567ffffffffffffffff8111156126d557600080fd5b6126e18682870161243a565b925050604084013567ffffffffffffffff8111156126fe57600080fd5b61270a8682870161243a565b9150509250925092565b6000806040838503121561272757600080fd5b6000612735858286016123fb565b925050602061274685828601612464565b9150509250929050565b6000806040838503121561276357600080fd5b6000612771858286016123fb565b9250506020612782858286016124cd565b9150509250929050565b6000806040838503121561279f57600080fd5b600083013567ffffffffffffffff8111156127b957600080fd5b6127c585828601612410565b925050602083013567ffffffffffffffff8111156127e257600080fd5b6127ee8582860161243a565b9150509250929050565b60006020828403121561280a57600080fd5b600061281884828501612479565b91505092915050565b60006020828403121561283357600080fd5b60006128418482850161248e565b91505092915050565b60006020828403121561285c57600080fd5b600061286a848285016124cd565b91505092915050565b600061287f8383612b86565b60208301905092915050565b612894816130da565b82525050565b60006128a582613023565b6128af8185613051565b93506128ba83613013565b8060005b838110156128eb5781516128d28882612873565b97506128dd83613044565b9250506001810190506128be565b5085935050505092915050565b612901816130ec565b82525050565b60006129128261302e565b61291c8185613062565b935061292c81856020860161316a565b61293581613322565b840191505092915050565b600061294b82613039565b6129558185613073565b935061296581856020860161316a565b61296e81613322565b840191505092915050565b6000612986603483613073565b915061299182613340565b604082019050919050565b60006129a9602883613073565b91506129b48261338f565b604082019050919050565b60006129cc602b83613073565b91506129d7826133de565b604082019050919050565b60006129ef602683613073565b91506129fa8261342d565b604082019050919050565b6000612a12602483613073565b9150612a1d8261347c565b604082019050919050565b6000612a35602983613073565b9150612a40826134cb565b604082019050919050565b6000612a58602583613073565b9150612a638261351a565b604082019050919050565b6000612a7b603283613073565b9150612a8682613569565b604082019050919050565b6000612a9e602383613073565b9150612aa9826135b8565b604082019050919050565b6000612ac1602a83613073565b9150612acc82613607565b604082019050919050565b6000612ae4602083613073565b9150612aef82613656565b602082019050919050565b6000612b07602983613073565b9150612b128261367f565b604082019050919050565b6000612b2a602983613073565b9150612b35826136ce565b604082019050919050565b6000612b4d602883613073565b9150612b588261371d565b604082019050919050565b6000612b70602183613073565b9150612b7b8261376c565b604082019050919050565b612b8f81613144565b82525050565b612b9e81613144565b82525050565b612bad8161314e565b82525050565b6000602082019050612bc8600083018461288b565b92915050565b600060a082019050612be3600083018861288b565b612bf0602083018761288b565b8181036040830152612c02818661289a565b90508181036060830152612c16818561289a565b90508181036080830152612c2a8184612907565b90509695505050505050565b600060a082019050612c4b600083018861288b565b612c58602083018761288b565b612c656040830186612b95565b612c726060830185612b95565b8181036080830152612c848184612907565b90509695505050505050565b60006020820190508181036000830152612caa818461289a565b905092915050565b60006040820190508181036000830152612ccc818561289a565b90508181036020830152612ce0818461289a565b90509392505050565b6000602082019050612cfe60008301846128f8565b92915050565b60006020820190508181036000830152612d1e8184612940565b905092915050565b60006020820190508181036000830152612d3f81612979565b9050919050565b60006020820190508181036000830152612d5f8161299c565b9050919050565b60006020820190508181036000830152612d7f816129bf565b9050919050565b60006020820190508181036000830152612d9f816129e2565b9050919050565b60006020820190508181036000830152612dbf81612a05565b9050919050565b60006020820190508181036000830152612ddf81612a28565b9050919050565b60006020820190508181036000830152612dff81612a4b565b9050919050565b60006020820190508181036000830152612e1f81612a6e565b9050919050565b60006020820190508181036000830152612e3f81612a91565b9050919050565b60006020820190508181036000830152612e5f81612ab4565b9050919050565b60006020820190508181036000830152612e7f81612ad7565b9050919050565b60006020820190508181036000830152612e9f81612afa565b9050919050565b60006020820190508181036000830152612ebf81612b1d565b9050919050565b60006020820190508181036000830152612edf81612b40565b9050919050565b60006020820190508181036000830152612eff81612b63565b9050919050565b6000602082019050612f1b6000830184612b95565b92915050565b6000604082019050612f366000830185612b95565b612f436020830184612b95565b9392505050565b6000602082019050612f5f6000830184612ba4565b92915050565b6000612f6f612f80565b9050612f7b82826131cf565b919050565b6000604051905090565b600067ffffffffffffffff821115612fa557612fa46132d1565b5b602082029050602081019050919050565b600067ffffffffffffffff821115612fd157612fd06132d1565b5b602082029050602081019050919050565b600067ffffffffffffffff821115612ffd57612ffc6132d1565b5b61300682613322565b9050602081019050919050565b6000819050602082019050919050565b600081519050919050565b600081519050919050565b600081519050919050565b6000602082019050919050565b600082825260208201905092915050565b600082825260208201905092915050565b600082825260208201905092915050565b600061308f82613144565b915061309a83613144565b9250827fffffffffffffffffffffffffffffffffffffffffffffffffffffffffffffffff038211156130cf576130ce613273565b5b828201905092915050565b60006130e582613124565b9050919050565b60008115159050919050565b60007fffffffff0000000000000000000000000000000000000000000000000000000082169050919050565b600073ffffffffffffffffffffffffffffffffffffffff82169050919050565b6000819050919050565b600060ff82169050919050565b82818337600083830152505050565b60005b8381101561318857808201518184015260208101905061316d565b83811115613197576000848401525b50505050565b600060028204905060018216806131b557607f821691505b602082108114156131c9576131c86132a2565b5b50919050565b6131d882613322565b810181811067ffffffffffffffff821117156131f7576131f66132d1565b5b80604052505050565b600061320b82613144565b91507fffffffffffffffffffffffffffffffffffffffffffffffffffffffffffffffff82141561323e5761323d613273565b5b600182019050919050565b60006132548261314e565b915060ff82141561326857613267613273565b5b600182019050919050565b7f4e487b7100000000000000000000000000000000000000000000000000000000600052601160045260246000fd5b7f4e487b7100000000000000000000000000000000000000000000000000000000600052602260045260246000fd5b7f4e487b7100000000000000000000000000000000000000000000000000000000600052604160045260246000fd5b600060033d111561331f5760046000803e61331c600051613333565b90505b90565b6000601f19601f8301169050919050565b60008160e01c9050919050565b7f455243313135353a207472616e7366657220746f206e6f6e204552433131353560008201527f526563656976657220696d706c656d656e746572000000000000000000000000602082015250565b7f455243313135353a204552433131353552656365697665722072656a6563746560008201527f6420746f6b656e73000000000000000000000000000000000000000000000000602082015250565b7f455243313135353a2062616c616e636520717565727920666f7220746865207a60008201527f65726f2061646472657373000000000000000000000000000000000000000000602082015250565b7f4f776e61626c653a206e6577206f776e657220697320746865207a65726f206160008201527f6464726573730000000000000000000000000000000000000000000000000000602082015250565b7f455243313135353a206275726e20616d6f756e7420657863656564732062616c60008201527f616e636500000000000000000000000000000000000000000000000000000000602082015250565b7f455243313135353a2063616c6c6572206973206e6f74206f776e6572206e6f7260008201527f20617070726f7665640000000000000000000000000000000000000000000000602082015250565b7f455243313135353a207472616e7366657220746f20746865207a65726f20616460008201527f6472657373000000000000000000000000000000000000000000000000000000602082015250565b7f455243313135353a207472616e736665722063616c6c6572206973206e6f742060008201527f6f776e6572206e6f7220617070726f7665640000000000000000000000000000602082015250565b7f455243313135353a206275726e2066726f6d20746865207a65726f206164647260008201527f6573730000000000000000000000000000000000000000000000000000000000602082015250565b7f455243313135353a20696e73756666696369656e742062616c616e636520666f60008201527f72207472616e7366657200000000000000000000000000000000000000000000602082015250565b7f4f776e61626c653a2063616c6c6572206973206e6f7420746865206f776e6572600082015250565b7f455243313135353a2073657474696e6720617070726f76616c2073746174757360008201527f20666f722073656c660000000000000000000000000000000000000000000000602082015250565b7f455243313135353a206163636f756e747320616e6420696473206c656e67746860008201527f206d69736d617463680000000000000000000000000000000000000000000000602082015250565b7f455243313135353a2069647320616e6420616d6f756e7473206c656e6774682060008201527f6d69736d61746368000000000000000000000000000000000000000000000000602082015250565b7f455243313135353a206d696e7420746f20746865207a65726f2061646472657360008201527f7300000000000000000000000000000000000000000000000000000000000000602082015250565b600060443d10156137cb5761384e565b6137d3612f80565b60043d036004823e80513d602482011167ffffffffffffffff821117156137fb57505061384e565b808201805167ffffffffffffffff811115613819575050505061384e565b80602083010160043d03850181111561383657505050505061384e565b613845826020018501866131cf565b82955050505050505b90565b61385a816130da565b811461386557600080fd5b50565b613871816130ec565b811461387c57600080fd5b50565b613888816130f8565b811461389357600080fd5b50565b61389f81613144565b81146138aa57600080fd5b5056fea2646970667358221220a58c766e543497925bae19f29a5a228e5aa0b026dd35c7a9bf47c04bdd5be8ed64736f6c6343000804003368747470733a2f2f63646e2e79617974736f2e6172742f6d657461646174612f7b69647d2e6a736f6e","linkReferences":{},"deployedLinkReferences":{}}