{
  "_format": "hh-sol-artifact-1",
  "contractName": "Eggvents",
  "sourceName": "contracts/Eggvents.sol",
  "abi": [
    {
      "inputs": [
        {
          "internalType": "string",
          "name": "givenBaseURI",
          "type": "string"
        },
        {
          "internalType": "address",
          "name": "givenOracle",
          "type": "address"
        }
      ],
      "stateMutability": "nonpayable",
      "type": "constructor"
    },
    {
      "inputs": [],
      "name": "ApprovalCallerNotOwnerNorApproved",
      "type": "error"
    },
    {
      "inputs": [],
      "name": "ApprovalQueryForNonexistentToken",
      "type": "error"
    },
    {
      "inputs": [],
      "name": "BalanceQueryForZeroAddress",
      "type": "error"
    },
    {
      "inputs": [],
      "name": "MintERC2309QuantityExceedsLimit",
      "type": "error"
    },
    {
      "inputs": [],
      "name": "MintToZeroAddress",
      "type": "error"
    },
    {
      "inputs": [],
      "name": "MintZeroQuantity",
      "type": "error"
    },
    {
      "inputs": [],
      "name": "OwnerQueryForNonexistentToken",
      "type": "error"
    },
    {
      "inputs": [],
      "name": "OwnershipNotInitializedForExtraData",
      "type": "error"
    },
    {
      "inputs": [],
      "name": "TransferCallerNotOwnerNorApproved",
      "type": "error"
    },
    {
      "inputs": [],
      "name": "TransferFromIncorrectOwner",
      "type": "error"
    },
    {
      "inputs": [],
      "name": "TransferToNonERC721ReceiverImplementer",
      "type": "error"
    },
    {
      "inputs": [],
      "name": "TransferToZeroAddress",
      "type": "error"
    },
    {
      "inputs": [],
      "name": "URIQueryForNonexistentToken",
      "type": "error"
    },
    {
      "anonymous": false,
      "inputs": [
        {
          "indexed": true,
          "internalType": "address",
          "name": "owner",
          "type": "address"
        },
        {
          "indexed": true,
          "internalType": "address",
          "name": "approved",
          "type": "address"
        },
        {
          "indexed": true,
          "internalType": "uint256",
          "name": "tokenId",
          "type": "uint256"
        }
      ],
      "name": "Approval",
      "type": "event"
    },
    {
      "anonymous": false,
      "inputs": [
        {
          "indexed": true,
          "internalType": "address",
          "name": "owner",
          "type": "address"
        },
        {
          "indexed": true,
          "internalType": "address",
          "name": "operator",
          "type": "address"
        },
        {
          "indexed": false,
          "internalType": "bool",
          "name": "approved",
          "type": "bool"
        }
      ],
      "name": "ApprovalForAll",
      "type": "event"
    },
    {
      "anonymous": false,
      "inputs": [
        {
          "indexed": true,
          "internalType": "uint256",
          "name": "fromTokenId",
          "type": "uint256"
        },
        {
          "indexed": false,
          "internalType": "uint256",
          "name": "toTokenId",
          "type": "uint256"
        },
        {
          "indexed": true,
          "internalType": "address",
          "name": "from",
          "type": "address"
        },
        {
          "indexed": true,
          "internalType": "address",
          "name": "to",
          "type": "address"
        }
      ],
      "name": "ConsecutiveTransfer",
      "type": "event"
    },
    {
      "anonymous": false,
      "inputs": [
        {
          "indexed": true,
          "internalType": "address",
          "name": "previousOwner",
          "type": "address"
        },
        {
          "indexed": true,
          "internalType": "address",
          "name": "newOwner",
          "type": "address"
        }
      ],
      "name": "OwnershipTransferred",
      "type": "event"
    },
    {
      "anonymous": false,
      "inputs": [
        {
          "indexed": true,
          "internalType": "address",
          "name": "from",
          "type": "address"
        },
        {
          "indexed": true,
          "internalType": "address",
          "name": "to",
          "type": "address"
        },
        {
          "indexed": true,
          "internalType": "uint256",
          "name": "tokenId",
          "type": "uint256"
        }
      ],
      "name": "Transfer",
      "type": "event"
    },
    {
      "inputs": [
        {
          "internalType": "address",
          "name": "to",
          "type": "address"
        },
        {
          "internalType": "uint256",
          "name": "tokenId",
          "type": "uint256"
        }
      ],
      "name": "approve",
      "outputs": [],
      "stateMutability": "payable",
      "type": "function"
    },
    {
      "inputs": [
        {
          "internalType": "address",
          "name": "owner",
          "type": "address"
        }
      ],
      "name": "balanceOf",
      "outputs": [
        {
          "internalType": "uint256",
          "name": "",
          "type": "uint256"
        }
      ],
      "stateMutability": "view",
      "type": "function"
    },
    {
      "inputs": [],
      "name": "baseURI",
      "outputs": [
        {
          "internalType": "string",
          "name": "",
          "type": "string"
        }
      ],
      "stateMutability": "view",
      "type": "function"
    },
    {
      "inputs": [
        {
          "internalType": "string",
          "name": "newBaseURI",
          "type": "string"
        }
      ],
      "name": "changeBaseURI",
      "outputs": [],
      "stateMutability": "nonpayable",
      "type": "function"
    },
    {
      "inputs": [
        {
          "internalType": "address",
          "name": "newOracle",
          "type": "address"
        }
      ],
      "name": "changeOracle",
      "outputs": [],
      "stateMutability": "nonpayable",
      "type": "function"
    },
    {
      "inputs": [
        {
          "components": [
            {
              "internalType": "string",
              "name": "tokenType",
              "type": "string"
            }
          ],
          "internalType": "struct Eggvents.Voucher",
          "name": "voucher",
          "type": "tuple"
        },
        {
          "internalType": "bytes",
          "name": "signature",
          "type": "bytes"
        }
      ],
      "name": "discover",
      "outputs": [
        {
          "internalType": "uint256",
          "name": "",
          "type": "uint256"
        }
      ],
      "stateMutability": "payable",
      "type": "function"
    },
    {
      "inputs": [
        {
          "internalType": "uint256",
          "name": "",
          "type": "uint256"
        }
      ],
      "name": "eggIdToType",
      "outputs": [
        {
          "internalType": "string",
          "name": "",
          "type": "string"
        }
      ],
      "stateMutability": "view",
      "type": "function"
    },
    {
      "inputs": [
        {
          "internalType": "uint256",
          "name": "tokenId",
          "type": "uint256"
        }
      ],
      "name": "getApproved",
      "outputs": [
        {
          "internalType": "address",
          "name": "",
          "type": "address"
        }
      ],
      "stateMutability": "view",
      "type": "function"
    },
    {
      "inputs": [
        {
          "internalType": "address",
          "name": "owner",
          "type": "address"
        }
      ],
      "name": "getOwnerEggIds",
      "outputs": [
        {
          "internalType": "uint256[]",
          "name": "",
          "type": "uint256[]"
        }
      ],
      "stateMutability": "view",
      "type": "function"
    },
    {
      "inputs": [
        {
          "internalType": "address",
          "name": "owner",
          "type": "address"
        }
      ],
      "name": "getOwnerEggTypes",
      "outputs": [
        {
          "internalType": "string[]",
          "name": "",
          "type": "string[]"
        }
      ],
      "stateMutability": "view",
      "type": "function"
    },
    {
      "inputs": [
        {
          "internalType": "address",
          "name": "owner",
          "type": "address"
        },
        {
          "internalType": "address",
          "name": "operator",
          "type": "address"
        }
      ],
      "name": "isApprovedForAll",
      "outputs": [
        {
          "internalType": "bool",
          "name": "",
          "type": "bool"
        }
      ],
      "stateMutability": "view",
      "type": "function"
    },
    {
      "inputs": [],
      "name": "name",
      "outputs": [
        {
          "internalType": "string",
          "name": "",
          "type": "string"
        }
      ],
      "stateMutability": "view",
      "type": "function"
    },
    {
      "inputs": [],
      "name": "oracle",
      "outputs": [
        {
          "internalType": "address",
          "name": "",
          "type": "address"
        }
      ],
      "stateMutability": "view",
      "type": "function"
    },
    {
      "inputs": [],
      "name": "owner",
      "outputs": [
        {
          "internalType": "address",
          "name": "",
          "type": "address"
        }
      ],
      "stateMutability": "view",
      "type": "function"
    },
    {
      "inputs": [
        {
          "internalType": "uint256",
          "name": "tokenId",
          "type": "uint256"
        }
      ],
      "name": "ownerOf",
      "outputs": [
        {
          "internalType": "address",
          "name": "",
          "type": "address"
        }
      ],
      "stateMutability": "view",
      "type": "function"
    },
    {
      "inputs": [
        {
          "internalType": "address",
          "name": "",
          "type": "address"
        },
        {
          "internalType": "uint256",
          "name": "",
          "type": "uint256"
        }
      ],
      "name": "ownerToEggIds",
      "outputs": [
        {
          "internalType": "uint256",
          "name": "",
          "type": "uint256"
        }
      ],
      "stateMutability": "view",
      "type": "function"
    },
    {
      "inputs": [
        {
          "internalType": "address",
          "name": "",
          "type": "address"
        },
        {
          "internalType": "uint256",
          "name": "",
          "type": "uint256"
        }
      ],
      "name": "ownerToEggTypes",
      "outputs": [
        {
          "internalType": "string",
          "name": "",
          "type": "string"
        }
      ],
      "stateMutability": "view",
      "type": "function"
    },
    {
      "inputs": [],
      "name": "renounceOwnership",
      "outputs": [],
      "stateMutability": "nonpayable",
      "type": "function"
    },
    {
      "inputs": [
        {
          "internalType": "address",
          "name": "from",
          "type": "address"
        },
        {
          "internalType": "address",
          "name": "to",
          "type": "address"
        },
        {
          "internalType": "uint256",
          "name": "tokenId",
          "type": "uint256"
        }
      ],
      "name": "safeTransferFrom",
      "outputs": [],
      "stateMutability": "payable",
      "type": "function"
    },
    {
      "inputs": [
        {
          "internalType": "address",
          "name": "from",
          "type": "address"
        },
        {
          "internalType": "address",
          "name": "to",
          "type": "address"
        },
        {
          "internalType": "uint256",
          "name": "tokenId",
          "type": "uint256"
        },
        {
          "internalType": "bytes",
          "name": "_data",
          "type": "bytes"
        }
      ],
      "name": "safeTransferFrom",
      "outputs": [],
      "stateMutability": "payable",
      "type": "function"
    },
    {
      "inputs": [
        {
          "internalType": "address",
          "name": "operator",
          "type": "address"
        },
        {
          "internalType": "bool",
          "name": "approved",
          "type": "bool"
        }
      ],
      "name": "setApprovalForAll",
      "outputs": [],
      "stateMutability": "nonpayable",
      "type": "function"
    },
    {
      "inputs": [
        {
          "internalType": "bytes4",
          "name": "interfaceId",
          "type": "bytes4"
        }
      ],
      "name": "supportsInterface",
      "outputs": [
        {
          "internalType": "bool",
          "name": "",
          "type": "bool"
        }
      ],
      "stateMutability": "view",
      "type": "function"
    },
    {
      "inputs": [],
      "name": "symbol",
      "outputs": [
        {
          "internalType": "string",
          "name": "",
          "type": "string"
        }
      ],
      "stateMutability": "view",
      "type": "function"
    },
    {
      "inputs": [
        {
          "internalType": "uint256",
          "name": "tokenId",
          "type": "uint256"
        }
      ],
      "name": "tokenURI",
      "outputs": [
        {
          "internalType": "string",
          "name": "",
          "type": "string"
        }
      ],
      "stateMutability": "view",
      "type": "function"
    },
    {
      "inputs": [],
      "name": "totalSupply",
      "outputs": [
        {
          "internalType": "uint256",
          "name": "",
          "type": "uint256"
        }
      ],
      "stateMutability": "view",
      "type": "function"
    },
    {
      "inputs": [
        {
          "internalType": "address",
          "name": "from",
          "type": "address"
        },
        {
          "internalType": "address",
          "name": "to",
          "type": "address"
        },
        {
          "internalType": "uint256",
          "name": "tokenId",
          "type": "uint256"
        }
      ],
      "name": "transferFrom",
      "outputs": [],
      "stateMutability": "payable",
      "type": "function"
    },
    {
      "inputs": [
        {
          "internalType": "address",
          "name": "newOwner",
          "type": "address"
        }
      ],
      "name": "transferOwnership",
      "outputs": [],
      "stateMutability": "nonpayable",
      "type": "function"
    }
  ],
  "bytecode": "0x6101406040523480156200001257600080fd5b5060405162004519380380620045198339818101604052810190620000389190620004dd565b6040518060400160405280600a81526020017f7465682d726170746f72000000000000000000000000000000000000000000008152506040518060400160405280600381526020017f312e3000000000000000000000000000000000000000000000000000000000008152506040518060400160405280600881526020017f45676776656e74730000000000000000000000000000000000000000000000008152506040518060400160405280600781526020017f454747564e545300000000000000000000000000000000000000000000000000815250816002908051906020019062000128929190620003a4565b50806003908051906020019062000141929190620003a4565b50620001526200029160201b60201c565b600081905550505060008280519060200120905060008280519060200120905060007f8b73c3c69bb8fe3d512ecc4cf759cc79239f7b179b0ffacaa9a75d522b39400f90508260e081815250508161010081815250504660a08181525050620001c38184846200029a60201b60201c565b608081815250503073ffffffffffffffffffffffffffffffffffffffff1660c08173ffffffffffffffffffffffffffffffffffffffff1660601b8152505080610120818152505050505050506200022f62000223620002d660201b60201c565b620002de60201b60201c565b816009908051906020019062000247929190620003a4565b5080600a60006101000a81548173ffffffffffffffffffffffffffffffffffffffff021916908373ffffffffffffffffffffffffffffffffffffffff160217905550505062000799565b60006001905090565b60008383834630604051602001620002b79594939291906200056a565b6040516020818303038152906040528051906020012090509392505050565b600033905090565b6000600860009054906101000a900473ffffffffffffffffffffffffffffffffffffffff16905081600860006101000a81548173ffffffffffffffffffffffffffffffffffffffff021916908373ffffffffffffffffffffffffffffffffffffffff1602179055508173ffffffffffffffffffffffffffffffffffffffff168173ffffffffffffffffffffffffffffffffffffffff167f8be0079c531659141344cd1fd0a4f28419497f9722a3daafe3b4186f6b6457e060405160405180910390a35050565b828054620003b290620006a4565b90600052602060002090601f016020900481019282620003d6576000855562000422565b82601f10620003f157805160ff191683800117855562000422565b8280016001018555821562000422579182015b828111156200042157825182559160200191906001019062000404565b5b50905062000431919062000435565b5090565b5b808211156200045057600081600090555060010162000436565b5090565b60006200046b6200046584620005f0565b620005c7565b9050828152602081018484840111156200048457600080fd5b620004918482856200066e565b509392505050565b600081519050620004aa816200077f565b92915050565b600082601f830112620004c257600080fd5b8151620004d484826020860162000454565b91505092915050565b60008060408385031215620004f157600080fd5b600083015167ffffffffffffffff8111156200050c57600080fd5b6200051a85828601620004b0565b92505060206200052d8582860162000499565b9150509250929050565b620005428162000626565b82525050565b62000553816200063a565b82525050565b620005648162000664565b82525050565b600060a08201905062000581600083018862000548565b62000590602083018762000548565b6200059f604083018662000548565b620005ae606083018562000559565b620005bd608083018462000537565b9695505050505050565b6000620005d3620005e6565b9050620005e18282620006da565b919050565b6000604051905090565b600067ffffffffffffffff8211156200060e576200060d6200073f565b5b62000619826200076e565b9050602081019050919050565b6000620006338262000644565b9050919050565b6000819050919050565b600073ffffffffffffffffffffffffffffffffffffffff82169050919050565b6000819050919050565b60005b838110156200068e57808201518184015260208101905062000671565b838111156200069e576000848401525b50505050565b60006002820490506001821680620006bd57607f821691505b60208210811415620006d457620006d362000710565b5b50919050565b620006e5826200076e565b810181811067ffffffffffffffff821117156200070757620007066200073f565b5b80604052505050565b7f4e487b7100000000000000000000000000000000000000000000000000000000600052602260045260246000fd5b7f4e487b7100000000000000000000000000000000000000000000000000000000600052604160045260246000fd5b6000601f19601f8301169050919050565b6200078a8162000626565b81146200079657600080fd5b50565b60805160a05160c05160601c60e0516101005161012051613d2d620007ec600039600061224b0152600061228d0152600061226c015260006121a1015260006121f7015260006122200152613d2d6000f3fe60806040526004361061019c5760003560e01c80636c0360eb116100ec578063a22cb4651161008a578063cc03617911610064578063cc036179146105bd578063d89d897f146105fa578063e985e9c514610637578063f2fde38b146106745761019c565b8063a22cb4651461053b578063b88d4fde14610564578063c87b56dd146105805761019c565b80637dc0d1d0116100c65780637dc0d1d01461048a5780638da5cb5b146104b557806390fb6761146104e057806395d89b41146105105761019c565b80636c0360eb1461040b57806370a0823114610436578063715018a6146104735761019c565b806339a0c6f9116101595780634cfd2f8d116101335780634cfd2f8d14610317578063513445d214610354578063587b8524146103915780636352211e146103ce5761019c565b806339a0c6f9146102a957806342842e0e146102d257806347c421b5146102ee5761019c565b806301ffc9a7146101a157806306fdde03146101de578063081812fc14610209578063095ea7b31461024657806318160ddd1461026257806323b872dd1461028d575b600080fd5b3480156101ad57600080fd5b506101c860048036038101906101c39190612e7d565b61069d565b6040516101d591906134cd565b60405180910390f35b3480156101ea57600080fd5b506101f361072f565b60405161020091906135a9565b60405180910390f35b34801561021557600080fd5b50610230600480360381019061022b9190612f80565b6107c1565b60405161023d9190613422565b60405180910390f35b610260600480360381019061025b9190612e41565b610840565b005b34801561026e57600080fd5b50610277610984565b60405161028491906136ab565b60405180910390f35b6102a760048036038101906102a29190612d3b565b61099b565b005b3480156102b557600080fd5b506102d060048036038101906102cb9190612ecf565b610cc0565b005b6102ec60048036038101906102e79190612d3b565b610d56565b005b3480156102fa57600080fd5b5061031560048036038101906103109190612cd6565b610d76565b005b34801561032357600080fd5b5061033e60048036038101906103399190612cd6565b610e36565b60405161034b9190613489565b60405180910390f35b34801561036057600080fd5b5061037b60048036038101906103769190612f80565b610f54565b60405161038891906135a9565b60405180910390f35b34801561039d57600080fd5b506103b860048036038101906103b39190612e41565b610ff4565b6040516103c591906136ab565b60405180910390f35b3480156103da57600080fd5b506103f560048036038101906103f09190612f80565b611025565b6040516104029190613422565b60405180910390f35b34801561041757600080fd5b50610420611037565b60405161042d91906135a9565b60405180910390f35b34801561044257600080fd5b5061045d60048036038101906104589190612cd6565b6110c5565b60405161046a91906136ab565b60405180910390f35b34801561047f57600080fd5b5061048861117e565b005b34801561049657600080fd5b5061049f611206565b6040516104ac9190613422565b60405180910390f35b3480156104c157600080fd5b506104ca61122c565b6040516104d79190613422565b60405180910390f35b6104fa60048036038101906104f59190612f10565b611256565b60405161050791906136ab565b60405180910390f35b34801561051c57600080fd5b506105256114d9565b60405161053291906135a9565b60405180910390f35b34801561054757600080fd5b50610562600480360381019061055d9190612e05565b61156b565b005b61057e60048036038101906105799190612d8a565b611676565b005b34801561058c57600080fd5b506105a760048036038101906105a29190612f80565b6116e9565b6040516105b491906135a9565b60405180910390f35b3480156105c957600080fd5b506105e460048036038101906105df9190612cd6565b611793565b6040516105f191906134ab565b60405180910390f35b34801561060657600080fd5b50610621600480360381019061061c9190612e41565b611830565b60405161062e91906135a9565b60405180910390f35b34801561064357600080fd5b5061065e60048036038101906106599190612cff565b6118e9565b60405161066b91906134cd565b60405180910390f35b34801561068057600080fd5b5061069b60048036038101906106969190612cd6565b61197d565b005b60006301ffc9a760e01b827bffffffffffffffffffffffffffffffffffffffffffffffffffffffff191614806106f857506380ac58cd60e01b827bffffffffffffffffffffffffffffffffffffffffffffffffffffffff1916145b806107285750635b5e139f60e01b827bffffffffffffffffffffffffffffffffffffffffffffffffffffffff1916145b9050919050565b60606002805461073e906139ad565b80601f016020809104026020016040519081016040528092919081815260200182805461076a906139ad565b80156107b75780601f1061078c576101008083540402835291602001916107b7565b820191906000526020600020905b81548152906001019060200180831161079a57829003601f168201915b5050505050905090565b60006107cc82611a75565b610802576040517fcf4700e400000000000000000000000000000000000000000000000000000000815260040160405180910390fd5b6006600083815260200190815260200160002060000160009054906101000a900473ffffffffffffffffffffffffffffffffffffffff169050919050565b600061084b82611025565b90508073ffffffffffffffffffffffffffffffffffffffff1661086c611ad4565b73ffffffffffffffffffffffffffffffffffffffff16146108cf5761089881610893611ad4565b6118e9565b6108ce576040517fcfb3b94200000000000000000000000000000000000000000000000000000000815260040160405180910390fd5b5b826006600084815260200190815260200160002060000160006101000a81548173ffffffffffffffffffffffffffffffffffffffff021916908373ffffffffffffffffffffffffffffffffffffffff160217905550818373ffffffffffffffffffffffffffffffffffffffff168273ffffffffffffffffffffffffffffffffffffffff167f8c5be1e5ebec7d5bd14f71427d1e84f3dd0314c0f7b2291e5b200ac8c7c3b92560405160405180910390a4505050565b600061098e611adc565b6001546000540303905090565b60006109a682611ae5565b90508373ffffffffffffffffffffffffffffffffffffffff168173ffffffffffffffffffffffffffffffffffffffff1614610a0d576040517fa114810000000000000000000000000000000000000000000000000000000000815260040160405180910390fd5b600080610a1984611bb3565b91509150610a2f8187610a2a611ad4565b611bda565b610a7b57610a4486610a3f611ad4565b6118e9565b610a7a576040517f59c896be00000000000000000000000000000000000000000000000000000000815260040160405180910390fd5b5b600073ffffffffffffffffffffffffffffffffffffffff168573ffffffffffffffffffffffffffffffffffffffff161415610ae2576040517fea553b3400000000000000000000000000000000000000000000000000000000815260040160405180910390fd5b610aef8686866001611c1e565b8015610afa57600082555b600560008773ffffffffffffffffffffffffffffffffffffffff1673ffffffffffffffffffffffffffffffffffffffff168152602001908152602001600020600081546001900391905081905550600560008673ffffffffffffffffffffffffffffffffffffffff1673ffffffffffffffffffffffffffffffffffffffff1681526020019081526020016000206000815460010191905081905550610bc885610ba4888887611c24565b7c020000000000000000000000000000000000000000000000000000000017611c4c565b600460008681526020019081526020016000208190555060007c020000000000000000000000000000000000000000000000000000000084161415610c50576000600185019050600060046000838152602001908152602001600020541415610c4e576000548114610c4d578360046000838152602001908152602001600020819055505b5b505b838573ffffffffffffffffffffffffffffffffffffffff168773ffffffffffffffffffffffffffffffffffffffff167fddf252ad1be2c89b69c2b068fc378daa952ba7f163c4a11628f55a4df523b3ef60405160405180910390a4610cb88686866001611c77565b505050505050565b610cc8611c7d565b73ffffffffffffffffffffffffffffffffffffffff16610ce661122c565b73ffffffffffffffffffffffffffffffffffffffff1614610d3c576040517f08c379a0000000000000000000000000000000000000000000000000000000008152600401610d339061368b565b60405180910390fd5b8060099080519060200190610d52929190612864565b5050565b610d7183838360405180602001604052806000815250611676565b505050565b610d7e611c7d565b73ffffffffffffffffffffffffffffffffffffffff16610d9c61122c565b73ffffffffffffffffffffffffffffffffffffffff1614610df2576040517f08c379a0000000000000000000000000000000000000000000000000000000008152600401610de99061368b565b60405180910390fd5b80600a60006101000a81548173ffffffffffffffffffffffffffffffffffffffff021916908373ffffffffffffffffffffffffffffffffffffffff16021790555050565b60606000600c60008473ffffffffffffffffffffffffffffffffffffffff1673ffffffffffffffffffffffffffffffffffffffff168152602001908152602001600020805480602002602001604051908101604052809291908181526020016000905b82821015610f45578382906000526020600020018054610eb8906139ad565b80601f0160208091040260200160405190810160405280929190818152602001828054610ee4906139ad565b8015610f315780601f10610f0657610100808354040283529160200191610f31565b820191906000526020600020905b815481529060010190602001808311610f1457829003601f168201915b505050505081526020019060010190610e99565b50505050905080915050919050565b600b6020528060005260406000206000915090508054610f73906139ad565b80601f0160208091040260200160405190810160405280929190818152602001828054610f9f906139ad565b8015610fec5780601f10610fc157610100808354040283529160200191610fec565b820191906000526020600020905b815481529060010190602001808311610fcf57829003601f168201915b505050505081565b600d602052816000526040600020818154811061101057600080fd5b90600052602060002001600091509150505481565b600061103082611ae5565b9050919050565b60098054611044906139ad565b80601f0160208091040260200160405190810160405280929190818152602001828054611070906139ad565b80156110bd5780601f10611092576101008083540402835291602001916110bd565b820191906000526020600020905b8154815290600101906020018083116110a057829003601f168201915b505050505081565b60008073ffffffffffffffffffffffffffffffffffffffff168273ffffffffffffffffffffffffffffffffffffffff16141561112d576040517f8f4eb60400000000000000000000000000000000000000000000000000000000815260040160405180910390fd5b67ffffffffffffffff600560008473ffffffffffffffffffffffffffffffffffffffff1673ffffffffffffffffffffffffffffffffffffffff16815260200190815260200160002054169050919050565b611186611c7d565b73ffffffffffffffffffffffffffffffffffffffff166111a461122c565b73ffffffffffffffffffffffffffffffffffffffff16146111fa576040517f08c379a00000000000000000000000000000000000000000000000000000000081526004016111f19061368b565b60405180910390fd5b6112046000611c85565b565b600a60009054906101000a900473ffffffffffffffffffffffffffffffffffffffff1681565b6000600860009054906101000a900473ffffffffffffffffffffffffffffffffffffffff16905090565b60006112ae61126485611d4b565b84848080601f016020809104026020016040519081016040528093929190818152602001838380828437600081840152601f19601f82011690508083019250505050505050611dcf565b6112ed576040517f08c379a00000000000000000000000000000000000000000000000000000000081526004016112e49061362b565b60405180910390fd5b60006112f7611e1d565b9050611304336001611e26565b84806000019061131491906136c6565b600b600084815260200190815260200160002091906113349291906128ea565b506000600c60003373ffffffffffffffffffffffffffffffffffffffff1673ffffffffffffffffffffffffffffffffffffffff16815260200190815260200160002090508086806000019061138991906136c6565b909180600181540180825580915050600190039060005260206000200160009091929091929091929091925091906113c29291906128ea565b5080600c60003373ffffffffffffffffffffffffffffffffffffffff1673ffffffffffffffffffffffffffffffffffffffff168152602001908152602001600020908054611411929190612970565b506000600d60003373ffffffffffffffffffffffffffffffffffffffff1673ffffffffffffffffffffffffffffffffffffffff16815260200190815260200160002090508083908060018154018082558091505060019003906000526020600020016000909190919091505580600d60003373ffffffffffffffffffffffffffffffffffffffff1673ffffffffffffffffffffffffffffffffffffffff1681526020019081526020016000209080546114cb9291906129d8565b508293505050509392505050565b6060600380546114e8906139ad565b80601f0160208091040260200160405190810160405280929190818152602001828054611514906139ad565b80156115615780601f1061153657610100808354040283529160200191611561565b820191906000526020600020905b81548152906001019060200180831161154457829003601f168201915b5050505050905090565b8060076000611578611ad4565b73ffffffffffffffffffffffffffffffffffffffff1673ffffffffffffffffffffffffffffffffffffffff16815260200190815260200160002060008473ffffffffffffffffffffffffffffffffffffffff1673ffffffffffffffffffffffffffffffffffffffff16815260200190815260200160002060006101000a81548160ff0219169083151502179055508173ffffffffffffffffffffffffffffffffffffffff16611625611ad4565b73ffffffffffffffffffffffffffffffffffffffff167f17307eab39ab6107e8899845ad3d59bd9653f200f220920489ca2b5937696c318360405161166a91906134cd565b60405180910390a35050565b61168184848461099b565b60008373ffffffffffffffffffffffffffffffffffffffff163b146116e3576116ac84848484611fe3565b6116e2576040517fd1a57ed600000000000000000000000000000000000000000000000000000000815260040160405180910390fd5b5b50505050565b60606116f482611a75565b61172a576040517fa14c4b5000000000000000000000000000000000000000000000000000000000815260040160405180910390fd5b600060098054611739906139ad565b90501415611756576040518060200160405280600081525061178c565b6009600b600084815260200190815260200160002060405160200161177c9291906133bc565b6040516020818303038152906040525b9050919050565b60606000600d60008473ffffffffffffffffffffffffffffffffffffffff1673ffffffffffffffffffffffffffffffffffffffff16815260200190815260200160002080548060200260200160405190810160405280929190818152602001828054801561182057602002820191906000526020600020905b81548152602001906001019080831161180c575b5050505050905080915050919050565b600c602052816000526040600020818154811061184c57600080fd5b90600052602060002001600091509150508054611868906139ad565b80601f0160208091040260200160405190810160405280929190818152602001828054611894906139ad565b80156118e15780601f106118b6576101008083540402835291602001916118e1565b820191906000526020600020905b8154815290600101906020018083116118c457829003601f168201915b505050505081565b6000600760008473ffffffffffffffffffffffffffffffffffffffff1673ffffffffffffffffffffffffffffffffffffffff16815260200190815260200160002060008373ffffffffffffffffffffffffffffffffffffffff1673ffffffffffffffffffffffffffffffffffffffff16815260200190815260200160002060009054906101000a900460ff16905092915050565b611985611c7d565b73ffffffffffffffffffffffffffffffffffffffff166119a361122c565b73ffffffffffffffffffffffffffffffffffffffff16146119f9576040517f08c379a00000000000000000000000000000000000000000000000000000000081526004016119f09061368b565b60405180910390fd5b600073ffffffffffffffffffffffffffffffffffffffff168173ffffffffffffffffffffffffffffffffffffffff161415611a69576040517f08c379a0000000000000000000000000000000000000000000000000000000008152600401611a609061360b565b60405180910390fd5b611a7281611c85565b50565b600081611a80611adc565b11158015611a8f575060005482105b8015611acd575060007c0100000000000000000000000000000000000000000000000000000000600460008581526020019081526020016000205416145b9050919050565b600033905090565b60006001905090565b60008082905080611af4611adc565b11611b7c57600054811015611b7b5760006004600083815260200190815260200160002054905060007c010000000000000000000000000000000000000000000000000000000082161415611b79575b6000811415611b6f576004600083600190039350838152602001908152602001600020549050611b44565b8092505050611bae565b505b5b6040517fdf2d9b4200000000000000000000000000000000000000000000000000000000815260040160405180910390fd5b919050565b60008060006006600085815260200190815260200160002090508092508254915050915091565b600073ffffffffffffffffffffffffffffffffffffffff8316925073ffffffffffffffffffffffffffffffffffffffff821691508382148383141790509392505050565b50505050565b60008060e883901c905060e8611c3b868684612143565b62ffffff16901b9150509392505050565b600073ffffffffffffffffffffffffffffffffffffffff83169250814260a01b178317905092915050565b50505050565b600033905090565b6000600860009054906101000a900473ffffffffffffffffffffffffffffffffffffffff16905081600860006101000a81548173ffffffffffffffffffffffffffffffffffffffff021916908373ffffffffffffffffffffffffffffffffffffffff1602179055508173ffffffffffffffffffffffffffffffffffffffff168173ffffffffffffffffffffffffffffffffffffffff167f8be0079c531659141344cd1fd0a4f28419497f9722a3daafe3b4186f6b6457e060405160405180910390a35050565b600080611dc47fec084cca0617676619521c3a969f27268ca28f4882081dcc3c4b808c34f55366848060000190611d8291906136c6565b604051611d909291906133a3565b6040518091039020604051602001611da99291906134e8565b6040516020818303038152906040528051906020012061214c565b905080915050919050565b600080611ddc8484612166565b90508073ffffffffffffffffffffffffffffffffffffffff16611dfd61122c565b73ffffffffffffffffffffffffffffffffffffffff161491505092915050565b60008054905090565b6000805490506000821415611e67576040517fb562e8dd00000000000000000000000000000000000000000000000000000000815260040160405180910390fd5b611e746000848385611c1e565b600160406001901b178202600560008573ffffffffffffffffffffffffffffffffffffffff1673ffffffffffffffffffffffffffffffffffffffff16815260200190815260200160002060008282540192505081905550611eeb83611edc6000866000611c24565b611ee58561218d565b17611c4c565b6004600083815260200190815260200160002081905550600080838301905073ffffffffffffffffffffffffffffffffffffffff85169150828260007fddf252ad1be2c89b69c2b068fc378daa952ba7f163c4a11628f55a4df523b3ef600080a4600183015b818114611f8c57808360007fddf252ad1be2c89b69c2b068fc378daa952ba7f163c4a11628f55a4df523b3ef600080a4600181019050611f51565b506000821415611fc8576040517f2e07630000000000000000000000000000000000000000000000000000000000815260040160405180910390fd5b806000819055505050611fde6000848385611c77565b505050565b60008373ffffffffffffffffffffffffffffffffffffffff1663150b7a02612009611ad4565b8786866040518563ffffffff1660e01b815260040161202b949392919061343d565b602060405180830381600087803b15801561204557600080fd5b505af192505050801561207657506040513d601f19601f820116820180604052508101906120739190612ea6565b60015b6120f0573d80600081146120a6576040519150601f19603f3d011682016040523d82523d6000602084013e6120ab565b606091505b506000815114156120e8576040517fd1a57ed600000000000000000000000000000000000000000000000000000000815260040160405180910390fd5b805181602001fd5b63150b7a0260e01b7bffffffffffffffffffffffffffffffffffffffffffffffffffffffff1916817bffffffffffffffffffffffffffffffffffffffffffffffffffffffff191614915050949350505050565b60009392505050565b600061215f61215961219d565b836122b7565b9050919050565b600080600061217585856122ea565b915091506121828161236d565b819250505092915050565b60006001821460e11b9050919050565b60007f000000000000000000000000000000000000000000000000000000000000000073ffffffffffffffffffffffffffffffffffffffff163073ffffffffffffffffffffffffffffffffffffffff1614801561221957507f000000000000000000000000000000000000000000000000000000000000000046145b15612246577f000000000000000000000000000000000000000000000000000000000000000090506122b4565b6122b17f00000000000000000000000000000000000000000000000000000000000000007f00000000000000000000000000000000000000000000000000000000000000007f00000000000000000000000000000000000000000000000000000000000000006126be565b90505b90565b600082826040516020016122cc9291906133eb565b60405160208183030381529060405280519060200120905092915050565b60008060418351141561232c5760008060006020860151925060408601519150606086015160001a9050612320878285856126f8565b94509450505050612366565b60408351141561235d576000806020850151915060408501519050612352868383612805565b935093505050612366565b60006002915091505b9250929050565b600060048111156123a7577f4e487b7100000000000000000000000000000000000000000000000000000000600052602160045260246000fd5b8160048111156123e0577f4e487b7100000000000000000000000000000000000000000000000000000000600052602160045260246000fd5b14156123eb576126bb565b60016004811115612425577f4e487b7100000000000000000000000000000000000000000000000000000000600052602160045260246000fd5b81600481111561245e577f4e487b7100000000000000000000000000000000000000000000000000000000600052602160045260246000fd5b141561249f576040517f08c379a0000000000000000000000000000000000000000000000000000000008152600401612496906135cb565b60405180910390fd5b600260048111156124d9577f4e487b7100000000000000000000000000000000000000000000000000000000600052602160045260246000fd5b816004811115612512577f4e487b7100000000000000000000000000000000000000000000000000000000600052602160045260246000fd5b1415612553576040517f08c379a000000000000000000000000000000000000000000000000000000000815260040161254a906135eb565b60405180910390fd5b6003600481111561258d577f4e487b7100000000000000000000000000000000000000000000000000000000600052602160045260246000fd5b8160048111156125c6577f4e487b7100000000000000000000000000000000000000000000000000000000600052602160045260246000fd5b1415612607576040517f08c379a00000000000000000000000000000000000000000000000000000000081526004016125fe9061364b565b60405180910390fd5b600480811115612640577f4e487b7100000000000000000000000000000000000000000000000000000000600052602160045260246000fd5b816004811115612679577f4e487b7100000000000000000000000000000000000000000000000000000000600052602160045260246000fd5b14156126ba576040517f08c379a00000000000000000000000000000000000000000000000000000000081526004016126b19061366b565b60405180910390fd5b5b50565b600083838346306040516020016126d9959493929190613511565b6040516020818303038152906040528051906020012090509392505050565b6000807f7fffffffffffffffffffffffffffffff5d576e7357a4501ddfe92f46681b20a08360001c11156127335760006003915091506127fc565b601b8560ff161415801561274b5750601c8560ff1614155b1561275d5760006004915091506127fc565b6000600187878787604051600081526020016040526040516127829493929190613564565b6020604051602081039080840390855afa1580156127a4573d6000803e3d6000fd5b505050602060405103519050600073ffffffffffffffffffffffffffffffffffffffff168173ffffffffffffffffffffffffffffffffffffffff1614156127f3576000600192509250506127fc565b80600092509250505b94509492505050565b60008060007f7fffffffffffffffffffffffffffffffffffffffffffffffffffffffffffffff60001b841690506000601b60ff8660001c901c612848919061388a565b9050612856878288856126f8565b935093505050935093915050565b828054612870906139ad565b90600052602060002090601f01602090048101928261289257600085556128d9565b82601f106128ab57805160ff19168380011785556128d9565b828001600101855582156128d9579182015b828111156128d85782518255916020019190600101906128bd565b5b5090506128e69190612a2a565b5090565b8280546128f6906139ad565b90600052602060002090601f016020900481019282612918576000855561295f565b82601f1061293157803560ff191683800117855561295f565b8280016001018555821561295f579182015b8281111561295e578235825591602001919060010190612943565b5b50905061296c9190612a2a565b5090565b8280548282559060005260206000209081019282156129c75760005260206000209182015b828111156129c65782829080546129ab906139ad565b6129b6929190612a47565b5091600101919060010190612995565b5b5090506129d49190612ad4565b5090565b828054828255906000526020600020908101928215612a195760005260206000209182015b82811115612a185782548255916001019190600101906129fd565b5b509050612a269190612a2a565b5090565b5b80821115612a43576000816000905550600101612a2b565b5090565b828054612a53906139ad565b90600052602060002090601f016020900481019282612a755760008555612ac3565b82601f10612a865780548555612ac3565b82800160010185558215612ac357600052602060002091601f016020900482015b82811115612ac2578254825591600101919060010190612aa7565b5b509050612ad09190612a2a565b5090565b5b80821115612af45760008181612aeb9190612af8565b50600101612ad5565b5090565b508054612b04906139ad565b6000825580601f10612b165750612b35565b601f016020900490600052602060002090810190612b349190612a2a565b5b50565b6000612b4b612b4684613742565b61371d565b905082815260208101848484011115612b6357600080fd5b612b6e84828561396b565b509392505050565b6000612b89612b8484613773565b61371d565b905082815260208101848484011115612ba157600080fd5b612bac84828561396b565b509392505050565b600081359050612bc381613c9b565b92915050565b600081359050612bd881613cb2565b92915050565b600081359050612bed81613cc9565b92915050565b600081519050612c0281613cc9565b92915050565b60008083601f840112612c1a57600080fd5b8235905067ffffffffffffffff811115612c3357600080fd5b602083019150836001820283011115612c4b57600080fd5b9250929050565b600082601f830112612c6357600080fd5b8135612c73848260208601612b38565b91505092915050565b600082601f830112612c8d57600080fd5b8135612c9d848260208601612b76565b91505092915050565b600060208284031215612cb857600080fd5b81905092915050565b600081359050612cd081613ce0565b92915050565b600060208284031215612ce857600080fd5b6000612cf684828501612bb4565b91505092915050565b60008060408385031215612d1257600080fd5b6000612d2085828601612bb4565b9250506020612d3185828601612bb4565b9150509250929050565b600080600060608486031215612d5057600080fd5b6000612d5e86828701612bb4565b9350506020612d6f86828701612bb4565b9250506040612d8086828701612cc1565b9150509250925092565b60008060008060808587031215612da057600080fd5b6000612dae87828801612bb4565b9450506020612dbf87828801612bb4565b9350506040612dd087828801612cc1565b925050606085013567ffffffffffffffff811115612ded57600080fd5b612df987828801612c52565b91505092959194509250565b60008060408385031215612e1857600080fd5b6000612e2685828601612bb4565b9250506020612e3785828601612bc9565b9150509250929050565b60008060408385031215612e5457600080fd5b6000612e6285828601612bb4565b9250506020612e7385828601612cc1565b9150509250929050565b600060208284031215612e8f57600080fd5b6000612e9d84828501612bde565b91505092915050565b600060208284031215612eb857600080fd5b6000612ec684828501612bf3565b91505092915050565b600060208284031215612ee157600080fd5b600082013567ffffffffffffffff811115612efb57600080fd5b612f0784828501612c7c565b91505092915050565b600080600060408486031215612f2557600080fd5b600084013567ffffffffffffffff811115612f3f57600080fd5b612f4b86828701612ca6565b935050602084013567ffffffffffffffff811115612f6857600080fd5b612f7486828701612c08565b92509250509250925092565b600060208284031215612f9257600080fd5b6000612fa084828501612cc1565b91505092915050565b6000612fb5838361314a565b905092915050565b6000612fc98383613376565b60208301905092915050565b612fde816138e0565b82525050565b6000612fef826137d9565b612ff9818561381f565b93508360208202850161300b856137a4565b8060005b8581101561304757848403895281516130288582612fa9565b945061303383613805565b925060208a0199505060018101905061300f565b50829750879550505050505092915050565b6000613064826137e4565b61306e8185613830565b9350613079836137b4565b8060005b838110156130aa5781516130918882612fbd565b975061309c83613812565b92505060018101905061307d565b5085935050505092915050565b6130c0816138f2565b82525050565b6130cf816138fe565b82525050565b6130e66130e1826138fe565b613a10565b82525050565b60006130f88385613852565b935061310583858461396b565b82840190509392505050565b600061311c826137ef565b6131268185613841565b935061313681856020860161397a565b61313f81613aa7565b840191505092915050565b6000613155826137fa565b61315f818561385d565b935061316f81856020860161397a565b61317881613aa7565b840191505092915050565b600061318e826137fa565b613198818561386e565b93506131a881856020860161397a565b6131b181613aa7565b840191505092915050565b600081546131c9816139ad565b6131d3818661387f565b945060018216600081146131ee57600181146131ff57613232565b60ff19831686528186019350613232565b613208856137c4565b60005b8381101561322a5781548189015260018201915060208101905061320b565b838801955050505b50505092915050565b600061324860188361386e565b915061325382613ab8565b602082019050919050565b600061326b601f8361386e565b915061327682613ae1565b602082019050919050565b600061328e60268361386e565b915061329982613b0a565b604082019050919050565b60006132b160028361387f565b91506132bc82613b59565b600282019050919050565b60006132d460118361386e565b91506132df82613b82565b602082019050919050565b60006132f760228361386e565b915061330282613bab565b604082019050919050565b600061331a60228361386e565b915061332582613bfa565b604082019050919050565b600061333d60058361387f565b915061334882613c49565b600582019050919050565b600061336060208361386e565b915061336b82613c72565b602082019050919050565b61337f81613954565b82525050565b61338e81613954565b82525050565b61339d8161395e565b82525050565b60006133b08284866130ec565b91508190509392505050565b60006133c882856131bc565b91506133d482846131bc565b91506133df82613330565b91508190509392505050565b60006133f6826132a4565b915061340282856130d5565b60208201915061341282846130d5565b6020820191508190509392505050565b60006020820190506134376000830184612fd5565b92915050565b60006080820190506134526000830187612fd5565b61345f6020830186612fd5565b61346c6040830185613385565b818103606083015261347e8184613111565b905095945050505050565b600060208201905081810360008301526134a38184612fe4565b905092915050565b600060208201905081810360008301526134c58184613059565b905092915050565b60006020820190506134e260008301846130b7565b92915050565b60006040820190506134fd60008301856130c6565b61350a60208301846130c6565b9392505050565b600060a08201905061352660008301886130c6565b61353360208301876130c6565b61354060408301866130c6565b61354d6060830185613385565b61355a6080830184612fd5565b9695505050505050565b600060808201905061357960008301876130c6565b6135866020830186613394565b61359360408301856130c6565b6135a060608301846130c6565b95945050505050565b600060208201905081810360008301526135c38184613183565b905092915050565b600060208201905081810360008301526135e48161323b565b9050919050565b600060208201905081810360008301526136048161325e565b9050919050565b6000602082019050818103600083015261362481613281565b9050919050565b60006020820190508181036000830152613644816132c7565b9050919050565b60006020820190508181036000830152613664816132ea565b9050919050565b600060208201905081810360008301526136848161330d565b9050919050565b600060208201905081810360008301526136a481613353565b9050919050565b60006020820190506136c06000830184613385565b92915050565b600080833560016020038436030381126136df57600080fd5b80840192508235915067ffffffffffffffff8211156136fd57600080fd5b60208301925060018202360383131561371557600080fd5b509250929050565b6000613727613738565b905061373382826139df565b919050565b6000604051905090565b600067ffffffffffffffff82111561375d5761375c613a78565b5b61376682613aa7565b9050602081019050919050565b600067ffffffffffffffff82111561378e5761378d613a78565b5b61379782613aa7565b9050602081019050919050565b6000819050602082019050919050565b6000819050602082019050919050565b60008190508160005260206000209050919050565b600081519050919050565b600081519050919050565b600081519050919050565b600081519050919050565b6000602082019050919050565b6000602082019050919050565b600082825260208201905092915050565b600082825260208201905092915050565b600082825260208201905092915050565b600081905092915050565b600082825260208201905092915050565b600082825260208201905092915050565b600081905092915050565b600061389582613954565b91506138a083613954565b9250827fffffffffffffffffffffffffffffffffffffffffffffffffffffffffffffffff038211156138d5576138d4613a1a565b5b828201905092915050565b60006138eb82613934565b9050919050565b60008115159050919050565b6000819050919050565b60007fffffffff0000000000000000000000000000000000000000000000000000000082169050919050565b600073ffffffffffffffffffffffffffffffffffffffff82169050919050565b6000819050919050565b600060ff82169050919050565b82818337600083830152505050565b60005b8381101561399857808201518184015260208101905061397d565b838111156139a7576000848401525b50505050565b600060028204905060018216806139c557607f821691505b602082108114156139d9576139d8613a49565b5b50919050565b6139e882613aa7565b810181811067ffffffffffffffff82111715613a0757613a06613a78565b5b80604052505050565b6000819050919050565b7f4e487b7100000000000000000000000000000000000000000000000000000000600052601160045260246000fd5b7f4e487b7100000000000000000000000000000000000000000000000000000000600052602260045260246000fd5b7f4e487b7100000000000000000000000000000000000000000000000000000000600052604160045260246000fd5b6000601f19601f8301169050919050565b7f45434453413a20696e76616c6964207369676e61747572650000000000000000600082015250565b7f45434453413a20696e76616c6964207369676e6174757265206c656e67746800600082015250565b7f4f776e61626c653a206e6577206f776e657220697320746865207a65726f206160008201527f6464726573730000000000000000000000000000000000000000000000000000602082015250565b7f1901000000000000000000000000000000000000000000000000000000000000600082015250565b7f496e76616c6964207369676e6174757265000000000000000000000000000000600082015250565b7f45434453413a20696e76616c6964207369676e6174757265202773272076616c60008201527f7565000000000000000000000000000000000000000000000000000000000000602082015250565b7f45434453413a20696e76616c6964207369676e6174757265202776272076616c60008201527f7565000000000000000000000000000000000000000000000000000000000000602082015250565b7f2e6a736f6e000000000000000000000000000000000000000000000000000000600082015250565b7f4f776e61626c653a2063616c6c6572206973206e6f7420746865206f776e6572600082015250565b613ca4816138e0565b8114613caf57600080fd5b50565b613cbb816138f2565b8114613cc657600080fd5b50565b613cd281613908565b8114613cdd57600080fd5b50565b613ce981613954565b8114613cf457600080fd5b5056fea2646970667358221220b00a788c3b5bf1cf6ca11eb0393a9f24d1cfe78bd058060ec415a1e98524d3a664736f6c63430008040033",
  "linkReferences": {},
  "deployedLinkReferences": {}
}