{
  "_format": "hh-sol-artifact-1",
  "contractName": "FakeNFT",
  "sourceName": "contracts/FakeNFT.sol",
  "abi": [
    {
      "inputs": [],
      "stateMutability": "nonpayable",
      "type": "constructor"
    },
    {
      "anonymous": false,
      "inputs": [
        {
          "indexed": true,
          "internalType": "address",
          "name": "owner",
          "type": "address"
        },
        {
          "indexed": true,
          "internalType": "address",
          "name": "approved",
          "type": "address"
        },
        {
          "indexed": true,
          "internalType": "uint256",
          "name": "tokenId",
          "type": "uint256"
        }
      ],
      "name": "Approval",
      "type": "event"
    },
    {
      "anonymous": false,
      "inputs": [
        {
          "indexed": true,
          "internalType": "address",
          "name": "owner",
          "type": "address"
        },
        {
          "indexed": true,
          "internalType": "address",
          "name": "operator",
          "type": "address"
        },
        {
          "indexed": false,
          "internalType": "bool",
          "name": "approved",
          "type": "bool"
        }
      ],
      "name": "ApprovalForAll",
      "type": "event"
    },
    {
      "anonymous": false,
      "inputs": [
        {
          "indexed": true,
          "internalType": "address",
          "name": "from",
          "type": "address"
        },
        {
          "indexed": true,
          "internalType": "address",
          "name": "to",
          "type": "address"
        },
        {
          "indexed": true,
          "internalType": "uint256",
          "name": "tokenId",
          "type": "uint256"
        }
      ],
      "name": "Transfer",
      "type": "event"
    },
    {
      "inputs": [
        {
          "internalType": "address",
          "name": "to",
          "type": "address"
        },
        {
          "internalType": "uint256",
          "name": "tokenId",
          "type": "uint256"
        }
      ],
      "name": "approve",
      "outputs": [],
      "stateMutability": "nonpayable",
      "type": "function"
    },
    {
      "inputs": [
        {
          "internalType": "address",
          "name": "owner",
          "type": "address"
        }
      ],
      "name": "balanceOf",
      "outputs": [
        {
          "internalType": "uint256",
          "name": "",
          "type": "uint256"
        }
      ],
      "stateMutability": "view",
      "type": "function"
    },
    {
      "inputs": [
        {
          "internalType": "uint256",
          "name": "tokenId",
          "type": "uint256"
        }
      ],
      "name": "getApproved",
      "outputs": [
        {
          "internalType": "address",
          "name": "",
          "type": "address"
        }
      ],
      "stateMutability": "view",
      "type": "function"
    },
    {
      "inputs": [
        {
          "internalType": "address",
          "name": "owner",
          "type": "address"
        },
        {
          "internalType": "address",
          "name": "operator",
          "type": "address"
        }
      ],
      "name": "isApprovedForAll",
      "outputs": [
        {
          "internalType": "bool",
          "name": "",
          "type": "bool"
        }
      ],
      "stateMutability": "view",
      "type": "function"
    },
    {
      "inputs": [
        {
          "internalType": "uint256",
          "name": "tokenId",
          "type": "uint256"
        }
      ],
      "name": "makeFake",
      "outputs": [],
      "stateMutability": "nonpayable",
      "type": "function"
    },
    {
      "inputs": [],
      "name": "name",
      "outputs": [
        {
          "internalType": "string",
          "name": "",
          "type": "string"
        }
      ],
      "stateMutability": "view",
      "type": "function"
    },
    {
      "inputs": [
        {
          "internalType": "uint256",
          "name": "tokenId",
          "type": "uint256"
        }
      ],
      "name": "ownerOf",
      "outputs": [
        {
          "internalType": "address",
          "name": "",
          "type": "address"
        }
      ],
      "stateMutability": "view",
      "type": "function"
    },
    {
      "inputs": [
        {
          "internalType": "address",
          "name": "from",
          "type": "address"
        },
        {
          "internalType": "address",
          "name": "to",
          "type": "address"
        },
        {
          "internalType": "uint256",
          "name": "tokenId",
          "type": "uint256"
        }
      ],
      "name": "safeTransferFrom",
      "outputs": [],
      "stateMutability": "nonpayable",
      "type": "function"
    },
    {
      "inputs": [
        {
          "internalType": "address",
          "name": "from",
          "type": "address"
        },
        {
          "internalType": "address",
          "name": "to",
          "type": "address"
        },
        {
          "internalType": "uint256",
          "name": "tokenId",
          "type": "uint256"
        },
        {
          "internalType": "bytes",
          "name": "_data",
          "type": "bytes"
        }
      ],
      "name": "safeTransferFrom",
      "outputs": [],
      "stateMutability": "nonpayable",
      "type": "function"
    },
    {
      "inputs": [
        {
          "internalType": "address",
          "name": "operator",
          "type": "address"
        },
        {
          "internalType": "bool",
          "name": "approved",
          "type": "bool"
        }
      ],
      "name": "setApprovalForAll",
      "outputs": [],
      "stateMutability": "nonpayable",
      "type": "function"
    },
    {
      "inputs": [
        {
          "internalType": "bytes4",
          "name": "interfaceId",
          "type": "bytes4"
        }
      ],
      "name": "supportsInterface",
      "outputs": [
        {
          "internalType": "bool",
          "name": "",
          "type": "bool"
        }
      ],
      "stateMutability": "view",
      "type": "function"
    },
    {
      "inputs": [],
      "name": "symbol",
      "outputs": [
        {
          "internalType": "string",
          "name": "",
          "type": "string"
        }
      ],
      "stateMutability": "view",
      "type": "function"
    },
    {
      "inputs": [
        {
          "internalType": "uint256",
          "name": "tokenId",
          "type": "uint256"
        }
      ],
      "name": "tokenURI",
      "outputs": [
        {
          "internalType": "string",
          "name": "",
          "type": "string"
        }
      ],
      "stateMutability": "view",
      "type": "function"
    },
    {
      "inputs": [
        {
          "internalType": "address",
          "name": "from",
          "type": "address"
        },
        {
          "internalType": "address",
          "name": "to",
          "type": "address"
        },
        {
          "internalType": "uint256",
          "name": "tokenId",
          "type": "uint256"
        }
      ],
      "name": "transferFrom",
      "outputs": [],
      "stateMutability": "nonpayable",
      "type": "function"
    }
  ],
  "bytecode": "0x60806040523480156200001157600080fd5b506040518060400160405280600781526020017f46616b654e4654000000000000000000000000000000000000000000000000008152506040518060400160405280600481526020017f46414b45000000000000000000000000000000000000000000000000000000008152508160009080519060200190620000969291906200034e565b508060019080519060200190620000af9291906200034e565b505050620000c5336001620000de60201b60201c565b620000d8336002620000de60201b60201c565b620005ee565b600073ffffffffffffffffffffffffffffffffffffffff168273ffffffffffffffffffffffffffffffffffffffff16141562000151576040517f08c379a000000000000000000000000000000000000000000000000000000000815260040162000148906200046e565b60405180910390fd5b6200016281620002d860201b60201c565b15620001a5576040517f08c379a00000000000000000000000000000000000000000000000000000000081526004016200019c906200044c565b60405180910390fd5b620001b9600083836200034460201b60201c565b6001600360008473ffffffffffffffffffffffffffffffffffffffff1673ffffffffffffffffffffffffffffffffffffffff16815260200190815260200160002060008282546200020b9190620004a1565b92505081905550816002600083815260200190815260200160002060006101000a81548173ffffffffffffffffffffffffffffffffffffffff021916908373ffffffffffffffffffffffffffffffffffffffff160217905550808273ffffffffffffffffffffffffffffffffffffffff16600073ffffffffffffffffffffffffffffffffffffffff167fddf252ad1be2c89b69c2b068fc378daa952ba7f163c4a11628f55a4df523b3ef60405160405180910390a4620002d4600083836200034960201b60201c565b5050565b60008073ffffffffffffffffffffffffffffffffffffffff166002600084815260200190815260200160002060009054906101000a900473ffffffffffffffffffffffffffffffffffffffff1673ffffffffffffffffffffffffffffffffffffffff1614159050919050565b505050565b505050565b8280546200035c9062000508565b90600052602060002090601f016020900481019282620003805760008555620003cc565b82601f106200039b57805160ff1916838001178555620003cc565b82800160010185558215620003cc579182015b82811115620003cb578251825591602001919060010190620003ae565b5b509050620003db9190620003df565b5090565b5b80821115620003fa576000816000905550600101620003e0565b5090565b60006200040d601c8362000490565b91506200041a826200059c565b602082019050919050565b60006200043460208362000490565b91506200044182620005c5565b602082019050919050565b600060208201905081810360008301526200046781620003fe565b9050919050565b60006020820190508181036000830152620004898162000425565b9050919050565b600082825260208201905092915050565b6000620004ae82620004fe565b9150620004bb83620004fe565b9250827fffffffffffffffffffffffffffffffffffffffffffffffffffffffffffffffff03821115620004f357620004f26200053e565b5b828201905092915050565b6000819050919050565b600060028204905060018216806200052157607f821691505b602082108114156200053857620005376200056d565b5b50919050565b7f4e487b7100000000000000000000000000000000000000000000000000000000600052601160045260246000fd5b7f4e487b7100000000000000000000000000000000000000000000000000000000600052602260045260246000fd5b7f4552433732313a20746f6b656e20616c7265616479206d696e74656400000000600082015250565b7f4552433732313a206d696e7420746f20746865207a65726f2061646472657373600082015250565b6126bd80620005fe6000396000f3fe608060405234801561001057600080fd5b50600436106100ea5760003560e01c806370a082311161008c578063a22cb46511610066578063a22cb4651461025b578063b88d4fde14610277578063c87b56dd14610293578063e985e9c5146102c3576100ea565b806370a08231146101f15780637dd11caa1461022157806395d89b411461023d576100ea565b8063095ea7b3116100c8578063095ea7b31461016d57806323b872dd1461018957806342842e0e146101a55780636352211e146101c1576100ea565b806301ffc9a7146100ef57806306fdde031461011f578063081812fc1461013d575b600080fd5b610109600480360381019061010491906118bf565b6102f3565b6040516101169190611c7f565b60405180910390f35b6101276103d5565b6040516101349190611c9a565b60405180910390f35b61015760048036038101906101529190611911565b610467565b6040516101649190611c18565b60405180910390f35b61018760048036038101906101829190611883565b6104ec565b005b6101a3600480360381019061019e919061177d565b610604565b005b6101bf60048036038101906101ba919061177d565b610664565b005b6101db60048036038101906101d69190611911565b610684565b6040516101e89190611c18565b60405180910390f35b61020b60048036038101906102069190611718565b610736565b6040516102189190611e7c565b60405180910390f35b61023b60048036038101906102369190611911565b6107ee565b005b6102456107fb565b6040516102529190611c9a565b60405180910390f35b61027560048036038101906102709190611847565b61088d565b005b610291600480360381019061028c91906117cc565b6108a3565b005b6102ad60048036038101906102a89190611911565b610905565b6040516102ba9190611c9a565b60405180910390f35b6102dd60048036038101906102d89190611741565b6109ac565b6040516102ea9190611c7f565b60405180910390f35b60007f80ac58cd000000000000000000000000000000000000000000000000000000007bffffffffffffffffffffffffffffffffffffffffffffffffffffffff1916827bffffffffffffffffffffffffffffffffffffffffffffffffffffffff191614806103be57507f5b5e139f000000000000000000000000000000000000000000000000000000007bffffffffffffffffffffffffffffffffffffffffffffffffffffffff1916827bffffffffffffffffffffffffffffffffffffffffffffffffffffffff1916145b806103ce57506103cd82610a40565b5b9050919050565b6060600080546103e4906120a1565b80601f0160208091040260200160405190810160405280929190818152602001828054610410906120a1565b801561045d5780601f106104325761010080835404028352916020019161045d565b820191906000526020600020905b81548152906001019060200180831161044057829003601f168201915b5050505050905090565b600061047282610aaa565b6104b1576040517f08c379a00000000000000000000000000000000000000000000000000000000081526004016104a890611dfc565b60405180910390fd5b6004600083815260200190815260200160002060009054906101000a900473ffffffffffffffffffffffffffffffffffffffff169050919050565b60006104f782610684565b90508073ffffffffffffffffffffffffffffffffffffffff168373ffffffffffffffffffffffffffffffffffffffff161415610568576040517f08c379a000000000000000000000000000000000000000000000000000000000815260040161055f90611e3c565b60405180910390fd5b8073ffffffffffffffffffffffffffffffffffffffff16610587610b16565b73ffffffffffffffffffffffffffffffffffffffff1614806105b657506105b5816105b0610b16565b6109ac565b5b6105f5576040517f08c379a00000000000000000000000000000000000000000000000000000000081526004016105ec90611d7c565b60405180910390fd5b6105ff8383610b1e565b505050565b61061561060f610b16565b82610bd7565b610654576040517f08c379a000000000000000000000000000000000000000000000000000000000815260040161064b90611e5c565b60405180910390fd5b61065f838383610cb5565b505050565b61067f838383604051806020016040528060008152506108a3565b505050565b6000806002600084815260200190815260200160002060009054906101000a900473ffffffffffffffffffffffffffffffffffffffff169050600073ffffffffffffffffffffffffffffffffffffffff168173ffffffffffffffffffffffffffffffffffffffff16141561072d576040517f08c379a000000000000000000000000000000000000000000000000000000000815260040161072490611dbc565b60405180910390fd5b80915050919050565b60008073ffffffffffffffffffffffffffffffffffffffff168273ffffffffffffffffffffffffffffffffffffffff1614156107a7576040517f08c379a000000000000000000000000000000000000000000000000000000000815260040161079e90611d9c565b60405180910390fd5b600360008373ffffffffffffffffffffffffffffffffffffffff1673ffffffffffffffffffffffffffffffffffffffff168152602001908152602001600020549050919050565b6107f83382610f1c565b50565b60606001805461080a906120a1565b80601f0160208091040260200160405190810160405280929190818152602001828054610836906120a1565b80156108835780601f1061085857610100808354040283529160200191610883565b820191906000526020600020905b81548152906001019060200180831161086657829003601f168201915b5050505050905090565b61089f610898610b16565b83836110f6565b5050565b6108b46108ae610b16565b83610bd7565b6108f3576040517f08c379a00000000000000000000000000000000000000000000000000000000081526004016108ea90611e5c565b60405180910390fd5b6108ff84848484611263565b50505050565b606061091082610aaa565b61094f576040517f08c379a000000000000000000000000000000000000000000000000000000000815260040161094690611e1c565b60405180910390fd5b60006109596112bf565b9050600081511161097957604051806020016040528060008152506109a4565b80610983846112d6565b604051602001610994929190611bf4565b6040516020818303038152906040525b915050919050565b6000600560008473ffffffffffffffffffffffffffffffffffffffff1673ffffffffffffffffffffffffffffffffffffffff16815260200190815260200160002060008373ffffffffffffffffffffffffffffffffffffffff1673ffffffffffffffffffffffffffffffffffffffff16815260200190815260200160002060009054906101000a900460ff16905092915050565b60007f01ffc9a7000000000000000000000000000000000000000000000000000000007bffffffffffffffffffffffffffffffffffffffffffffffffffffffff1916827bffffffffffffffffffffffffffffffffffffffffffffffffffffffff1916149050919050565b60008073ffffffffffffffffffffffffffffffffffffffff166002600084815260200190815260200160002060009054906101000a900473ffffffffffffffffffffffffffffffffffffffff1673ffffffffffffffffffffffffffffffffffffffff1614159050919050565b600033905090565b816004600083815260200190815260200160002060006101000a81548173ffffffffffffffffffffffffffffffffffffffff021916908373ffffffffffffffffffffffffffffffffffffffff160217905550808273ffffffffffffffffffffffffffffffffffffffff16610b9183610684565b73ffffffffffffffffffffffffffffffffffffffff167f8c5be1e5ebec7d5bd14f71427d1e84f3dd0314c0f7b2291e5b200ac8c7c3b92560405160405180910390a45050565b6000610be282610aaa565b610c21576040517f08c379a0000000000000000000000000000000000000000000000000000000008152600401610c1890611d5c565b60405180910390fd5b6000610c2c83610684565b90508073ffffffffffffffffffffffffffffffffffffffff168473ffffffffffffffffffffffffffffffffffffffff161480610c9b57508373ffffffffffffffffffffffffffffffffffffffff16610c8384610467565b73ffffffffffffffffffffffffffffffffffffffff16145b80610cac5750610cab81856109ac565b5b91505092915050565b8273ffffffffffffffffffffffffffffffffffffffff16610cd582610684565b73ffffffffffffffffffffffffffffffffffffffff1614610d2b576040517f08c379a0000000000000000000000000000000000000000000000000000000008152600401610d2290611cdc565b60405180910390fd5b600073ffffffffffffffffffffffffffffffffffffffff168273ffffffffffffffffffffffffffffffffffffffff161415610d9b576040517f08c379a0000000000000000000000000000000000000000000000000000000008152600401610d9290611d1c565b60405180910390fd5b610da6838383611483565b610db1600082610b1e565b6001600360008573ffffffffffffffffffffffffffffffffffffffff1673ffffffffffffffffffffffffffffffffffffffff1681526020019081526020016000206000828254610e019190611fb7565b925050819055506001600360008473ffffffffffffffffffffffffffffffffffffffff1673ffffffffffffffffffffffffffffffffffffffff1681526020019081526020016000206000828254610e589190611f30565b92505081905550816002600083815260200190815260200160002060006101000a81548173ffffffffffffffffffffffffffffffffffffffff021916908373ffffffffffffffffffffffffffffffffffffffff160217905550808273ffffffffffffffffffffffffffffffffffffffff168473ffffffffffffffffffffffffffffffffffffffff167fddf252ad1be2c89b69c2b068fc378daa952ba7f163c4a11628f55a4df523b3ef60405160405180910390a4610f17838383611488565b505050565b600073ffffffffffffffffffffffffffffffffffffffff168273ffffffffffffffffffffffffffffffffffffffff161415610f8c576040517f08c379a0000000000000000000000000000000000000000000000000000000008152600401610f8390611ddc565b60405180910390fd5b610f9581610aaa565b15610fd5576040517f08c379a0000000000000000000000000000000000000000000000000000000008152600401610fcc90611cfc565b60405180910390fd5b610fe160008383611483565b6001600360008473ffffffffffffffffffffffffffffffffffffffff1673ffffffffffffffffffffffffffffffffffffffff16815260200190815260200160002060008282546110319190611f30565b92505081905550816002600083815260200190815260200160002060006101000a81548173ffffffffffffffffffffffffffffffffffffffff021916908373ffffffffffffffffffffffffffffffffffffffff160217905550808273ffffffffffffffffffffffffffffffffffffffff16600073ffffffffffffffffffffffffffffffffffffffff167fddf252ad1be2c89b69c2b068fc378daa952ba7f163c4a11628f55a4df523b3ef60405160405180910390a46110f260008383611488565b5050565b8173ffffffffffffffffffffffffffffffffffffffff168373ffffffffffffffffffffffffffffffffffffffff161415611165576040517f08c379a000000000000000000000000000000000000000000000000000000000815260040161115c90611d3c565b60405180910390fd5b80600560008573ffffffffffffffffffffffffffffffffffffffff1673ffffffffffffffffffffffffffffffffffffffff16815260200190815260200160002060008473ffffffffffffffffffffffffffffffffffffffff1673ffffffffffffffffffffffffffffffffffffffff16815260200190815260200160002060006101000a81548160ff0219169083151502179055508173ffffffffffffffffffffffffffffffffffffffff168373ffffffffffffffffffffffffffffffffffffffff167f17307eab39ab6107e8899845ad3d59bd9653f200f220920489ca2b5937696c31836040516112569190611c7f565b60405180910390a3505050565b61126e848484610cb5565b61127a8484848461148d565b6112b9576040517f08c379a00000000000000000000000000000000000000000000000000000000081526004016112b090611cbc565b60405180910390fd5b50505050565b606060405180602001604052806000815250905090565b6060600082141561131e576040518060400160405280600181526020017f3000000000000000000000000000000000000000000000000000000000000000815250905061147e565b600082905060005b6000821461135057808061133990612104565b915050600a826113499190611f86565b9150611326565b60008167ffffffffffffffff811115611392577f4e487b7100000000000000000000000000000000000000000000000000000000600052604160045260246000fd5b6040519080825280601f01601f1916602001820160405280156113c45781602001600182028036833780820191505090505b5090505b60008514611477576001826113dd9190611fb7565b9150600a856113ec919061214d565b60306113f89190611f30565b60f81b818381518110611434577f4e487b7100000000000000000000000000000000000000000000000000000000600052603260045260246000fd5b60200101907effffffffffffffffffffffffffffffffffffffffffffffffffffffffffffff1916908160001a905350600a856114709190611f86565b94506113c8565b8093505050505b919050565b505050565b505050565b60006114ae8473ffffffffffffffffffffffffffffffffffffffff16611624565b15611617578373ffffffffffffffffffffffffffffffffffffffff1663150b7a026114d7610b16565b8786866040518563ffffffff1660e01b81526004016114f99493929190611c33565b602060405180830381600087803b15801561151357600080fd5b505af192505050801561154457506040513d601f19601f8201168201806040525081019061154191906118e8565b60015b6115c7573d8060008114611574576040519150601f19603f3d011682016040523d82523d6000602084013e611579565b606091505b506000815114156115bf576040517f08c379a00000000000000000000000000000000000000000000000000000000081526004016115b690611cbc565b60405180910390fd5b805181602001fd5b63150b7a0260e01b7bffffffffffffffffffffffffffffffffffffffffffffffffffffffff1916817bffffffffffffffffffffffffffffffffffffffffffffffffffffffff19161491505061161c565b600190505b949350505050565b6000808273ffffffffffffffffffffffffffffffffffffffff163b119050919050565b600061165a61165584611ebc565b611e97565b90508281526020810184848401111561167257600080fd5b61167d84828561205f565b509392505050565b6000813590506116948161262b565b92915050565b6000813590506116a981612642565b92915050565b6000813590506116be81612659565b92915050565b6000815190506116d381612659565b92915050565b600082601f8301126116ea57600080fd5b81356116fa848260208601611647565b91505092915050565b60008135905061171281612670565b92915050565b60006020828403121561172a57600080fd5b600061173884828501611685565b91505092915050565b6000806040838503121561175457600080fd5b600061176285828601611685565b925050602061177385828601611685565b9150509250929050565b60008060006060848603121561179257600080fd5b60006117a086828701611685565b93505060206117b186828701611685565b92505060406117c286828701611703565b9150509250925092565b600080600080608085870312156117e257600080fd5b60006117f087828801611685565b945050602061180187828801611685565b935050604061181287828801611703565b925050606085013567ffffffffffffffff81111561182f57600080fd5b61183b878288016116d9565b91505092959194509250565b6000806040838503121561185a57600080fd5b600061186885828601611685565b92505060206118798582860161169a565b9150509250929050565b6000806040838503121561189657600080fd5b60006118a485828601611685565b92505060206118b585828601611703565b9150509250929050565b6000602082840312156118d157600080fd5b60006118df848285016116af565b91505092915050565b6000602082840312156118fa57600080fd5b6000611908848285016116c4565b91505092915050565b60006020828403121561192357600080fd5b600061193184828501611703565b91505092915050565b61194381611feb565b82525050565b61195281611ffd565b82525050565b600061196382611eed565b61196d8185611f03565b935061197d81856020860161206e565b6119868161223a565b840191505092915050565b600061199c82611ef8565b6119a68185611f14565b93506119b681856020860161206e565b6119bf8161223a565b840191505092915050565b60006119d582611ef8565b6119df8185611f25565b93506119ef81856020860161206e565b80840191505092915050565b6000611a08603283611f14565b9150611a138261224b565b604082019050919050565b6000611a2b602583611f14565b9150611a368261229a565b604082019050919050565b6000611a4e601c83611f14565b9150611a59826122e9565b602082019050919050565b6000611a71602483611f14565b9150611a7c82612312565b604082019050919050565b6000611a94601983611f14565b9150611a9f82612361565b602082019050919050565b6000611ab7602c83611f14565b9150611ac28261238a565b604082019050919050565b6000611ada603883611f14565b9150611ae5826123d9565b604082019050919050565b6000611afd602a83611f14565b9150611b0882612428565b604082019050919050565b6000611b20602983611f14565b9150611b2b82612477565b604082019050919050565b6000611b43602083611f14565b9150611b4e826124c6565b602082019050919050565b6000611b66602c83611f14565b9150611b71826124ef565b604082019050919050565b6000611b89602f83611f14565b9150611b948261253e565b604082019050919050565b6000611bac602183611f14565b9150611bb78261258d565b604082019050919050565b6000611bcf603183611f14565b9150611bda826125dc565b604082019050919050565b611bee81612055565b82525050565b6000611c0082856119ca565b9150611c0c82846119ca565b91508190509392505050565b6000602082019050611c2d600083018461193a565b92915050565b6000608082019050611c48600083018761193a565b611c55602083018661193a565b611c626040830185611be5565b8181036060830152611c748184611958565b905095945050505050565b6000602082019050611c946000830184611949565b92915050565b60006020820190508181036000830152611cb48184611991565b905092915050565b60006020820190508181036000830152611cd5816119fb565b9050919050565b60006020820190508181036000830152611cf581611a1e565b9050919050565b60006020820190508181036000830152611d1581611a41565b9050919050565b60006020820190508181036000830152611d3581611a64565b9050919050565b60006020820190508181036000830152611d5581611a87565b9050919050565b60006020820190508181036000830152611d7581611aaa565b9050919050565b60006020820190508181036000830152611d9581611acd565b9050919050565b60006020820190508181036000830152611db581611af0565b9050919050565b60006020820190508181036000830152611dd581611b13565b9050919050565b60006020820190508181036000830152611df581611b36565b9050919050565b60006020820190508181036000830152611e1581611b59565b9050919050565b60006020820190508181036000830152611e3581611b7c565b9050919050565b60006020820190508181036000830152611e5581611b9f565b9050919050565b60006020820190508181036000830152611e7581611bc2565b9050919050565b6000602082019050611e916000830184611be5565b92915050565b6000611ea1611eb2565b9050611ead82826120d3565b919050565b6000604051905090565b600067ffffffffffffffff821115611ed757611ed661220b565b5b611ee08261223a565b9050602081019050919050565b600081519050919050565b600081519050919050565b600082825260208201905092915050565b600082825260208201905092915050565b600081905092915050565b6000611f3b82612055565b9150611f4683612055565b9250827fffffffffffffffffffffffffffffffffffffffffffffffffffffffffffffffff03821115611f7b57611f7a61217e565b5b828201905092915050565b6000611f9182612055565b9150611f9c83612055565b925082611fac57611fab6121ad565b5b828204905092915050565b6000611fc282612055565b9150611fcd83612055565b925082821015611fe057611fdf61217e565b5b828203905092915050565b6000611ff682612035565b9050919050565b60008115159050919050565b60007fffffffff0000000000000000000000000000000000000000000000000000000082169050919050565b600073ffffffffffffffffffffffffffffffffffffffff82169050919050565b6000819050919050565b82818337600083830152505050565b60005b8381101561208c578082015181840152602081019050612071565b8381111561209b576000848401525b50505050565b600060028204905060018216806120b957607f821691505b602082108114156120cd576120cc6121dc565b5b50919050565b6120dc8261223a565b810181811067ffffffffffffffff821117156120fb576120fa61220b565b5b80604052505050565b600061210f82612055565b91507fffffffffffffffffffffffffffffffffffffffffffffffffffffffffffffffff8214156121425761214161217e565b5b600182019050919050565b600061215882612055565b915061216383612055565b925082612173576121726121ad565b5b828206905092915050565b7f4e487b7100000000000000000000000000000000000000000000000000000000600052601160045260246000fd5b7f4e487b7100000000000000000000000000000000000000000000000000000000600052601260045260246000fd5b7f4e487b7100000000000000000000000000000000000000000000000000000000600052602260045260246000fd5b7f4e487b7100000000000000000000000000000000000000000000000000000000600052604160045260246000fd5b6000601f19601f8301169050919050565b7f4552433732313a207472616e7366657220746f206e6f6e20455243373231526560008201527f63656976657220696d706c656d656e7465720000000000000000000000000000602082015250565b7f4552433732313a207472616e736665722066726f6d20696e636f72726563742060008201527f6f776e6572000000000000000000000000000000000000000000000000000000602082015250565b7f4552433732313a20746f6b656e20616c7265616479206d696e74656400000000600082015250565b7f4552433732313a207472616e7366657220746f20746865207a65726f2061646460008201527f7265737300000000000000000000000000000000000000000000000000000000602082015250565b7f4552433732313a20617070726f766520746f2063616c6c657200000000000000600082015250565b7f4552433732313a206f70657261746f7220717565727920666f72206e6f6e657860008201527f697374656e7420746f6b656e0000000000000000000000000000000000000000602082015250565b7f4552433732313a20617070726f76652063616c6c6572206973206e6f74206f7760008201527f6e6572206e6f7220617070726f76656420666f7220616c6c0000000000000000602082015250565b7f4552433732313a2062616c616e636520717565727920666f7220746865207a6560008201527f726f206164647265737300000000000000000000000000000000000000000000602082015250565b7f4552433732313a206f776e657220717565727920666f72206e6f6e657869737460008201527f656e7420746f6b656e0000000000000000000000000000000000000000000000602082015250565b7f4552433732313a206d696e7420746f20746865207a65726f2061646472657373600082015250565b7f4552433732313a20617070726f76656420717565727920666f72206e6f6e657860008201527f697374656e7420746f6b656e0000000000000000000000000000000000000000602082015250565b7f4552433732314d657461646174613a2055524920717565727920666f72206e6f60008201527f6e6578697374656e7420746f6b656e0000000000000000000000000000000000602082015250565b7f4552433732313a20617070726f76616c20746f2063757272656e74206f776e6560008201527f7200000000000000000000000000000000000000000000000000000000000000602082015250565b7f4552433732313a207472616e736665722063616c6c6572206973206e6f74206f60008201527f776e6572206e6f7220617070726f766564000000000000000000000000000000602082015250565b61263481611feb565b811461263f57600080fd5b50565b61264b81611ffd565b811461265657600080fd5b50565b61266281612009565b811461266d57600080fd5b50565b61267981612055565b811461268457600080fd5b5056fea2646970667358221220e3a64a96c844f86263075abe93ea501c49620b39b93df94b4a4089050e6e385764736f6c63430008040033",
  "linkReferences": {},
  "deployedLinkReferences": {}
}