{
  "_format": "hh-sol-artifact-1",
  "contractName": "MagicMap",
  "sourceName": "contracts/MagicMap.sol",
  "abi": [
    {
      "inputs": [
        {
          "internalType": "string",
          "name": "givenBaseURI",
          "type": "string"
        },
        {
          "internalType": "address",
          "name": "givenOracle",
          "type": "address"
        }
      ],
      "stateMutability": "nonpayable",
      "type": "constructor"
    },
    {
      "inputs": [],
      "name": "ApprovalCallerNotOwnerNorApproved",
      "type": "error"
    },
    {
      "inputs": [],
      "name": "ApprovalQueryForNonexistentToken",
      "type": "error"
    },
    {
      "inputs": [],
      "name": "BalanceQueryForZeroAddress",
      "type": "error"
    },
    {
      "inputs": [],
      "name": "MintERC2309QuantityExceedsLimit",
      "type": "error"
    },
    {
      "inputs": [],
      "name": "MintToZeroAddress",
      "type": "error"
    },
    {
      "inputs": [],
      "name": "MintZeroQuantity",
      "type": "error"
    },
    {
      "inputs": [],
      "name": "OwnerQueryForNonexistentToken",
      "type": "error"
    },
    {
      "inputs": [],
      "name": "OwnershipNotInitializedForExtraData",
      "type": "error"
    },
    {
      "inputs": [],
      "name": "TransferCallerNotOwnerNorApproved",
      "type": "error"
    },
    {
      "inputs": [],
      "name": "TransferFromIncorrectOwner",
      "type": "error"
    },
    {
      "inputs": [],
      "name": "TransferToNonERC721ReceiverImplementer",
      "type": "error"
    },
    {
      "inputs": [],
      "name": "TransferToZeroAddress",
      "type": "error"
    },
    {
      "inputs": [],
      "name": "URIQueryForNonexistentToken",
      "type": "error"
    },
    {
      "anonymous": false,
      "inputs": [
        {
          "indexed": true,
          "internalType": "address",
          "name": "owner",
          "type": "address"
        },
        {
          "indexed": true,
          "internalType": "address",
          "name": "approved",
          "type": "address"
        },
        {
          "indexed": true,
          "internalType": "uint256",
          "name": "tokenId",
          "type": "uint256"
        }
      ],
      "name": "Approval",
      "type": "event"
    },
    {
      "anonymous": false,
      "inputs": [
        {
          "indexed": true,
          "internalType": "address",
          "name": "owner",
          "type": "address"
        },
        {
          "indexed": true,
          "internalType": "address",
          "name": "operator",
          "type": "address"
        },
        {
          "indexed": false,
          "internalType": "bool",
          "name": "approved",
          "type": "bool"
        }
      ],
      "name": "ApprovalForAll",
      "type": "event"
    },
    {
      "anonymous": false,
      "inputs": [
        {
          "indexed": true,
          "internalType": "uint256",
          "name": "fromTokenId",
          "type": "uint256"
        },
        {
          "indexed": false,
          "internalType": "uint256",
          "name": "toTokenId",
          "type": "uint256"
        },
        {
          "indexed": true,
          "internalType": "address",
          "name": "from",
          "type": "address"
        },
        {
          "indexed": true,
          "internalType": "address",
          "name": "to",
          "type": "address"
        }
      ],
      "name": "ConsecutiveTransfer",
      "type": "event"
    },
    {
      "anonymous": false,
      "inputs": [
        {
          "indexed": true,
          "internalType": "address",
          "name": "previousOwner",
          "type": "address"
        },
        {
          "indexed": true,
          "internalType": "address",
          "name": "newOwner",
          "type": "address"
        }
      ],
      "name": "OwnershipTransferred",
      "type": "event"
    },
    {
      "anonymous": false,
      "inputs": [
        {
          "indexed": true,
          "internalType": "address",
          "name": "from",
          "type": "address"
        },
        {
          "indexed": true,
          "internalType": "address",
          "name": "to",
          "type": "address"
        },
        {
          "indexed": true,
          "internalType": "uint256",
          "name": "tokenId",
          "type": "uint256"
        }
      ],
      "name": "Transfer",
      "type": "event"
    },
    {
      "inputs": [
        {
          "internalType": "address",
          "name": "to",
          "type": "address"
        },
        {
          "internalType": "uint256",
          "name": "tokenId",
          "type": "uint256"
        }
      ],
      "name": "approve",
      "outputs": [],
      "stateMutability": "payable",
      "type": "function"
    },
    {
      "inputs": [
        {
          "internalType": "address",
          "name": "owner",
          "type": "address"
        }
      ],
      "name": "balanceOf",
      "outputs": [
        {
          "internalType": "uint256",
          "name": "",
          "type": "uint256"
        }
      ],
      "stateMutability": "view",
      "type": "function"
    },
    {
      "inputs": [],
      "name": "baseURI",
      "outputs": [
        {
          "internalType": "string",
          "name": "",
          "type": "string"
        }
      ],
      "stateMutability": "view",
      "type": "function"
    },
    {
      "inputs": [
        {
          "internalType": "string",
          "name": "newBaseURI",
          "type": "string"
        }
      ],
      "name": "changeBaseURI",
      "outputs": [],
      "stateMutability": "nonpayable",
      "type": "function"
    },
    {
      "inputs": [
        {
          "internalType": "address",
          "name": "newOracle",
          "type": "address"
        }
      ],
      "name": "changeOracle",
      "outputs": [],
      "stateMutability": "nonpayable",
      "type": "function"
    },
    {
      "inputs": [
        {
          "components": [
            {
              "internalType": "uint8",
              "name": "tokenType",
              "type": "uint8"
            }
          ],
          "internalType": "struct MagicMap.SignedNFTData",
          "name": "nft",
          "type": "tuple"
        },
        {
          "internalType": "bytes",
          "name": "signature",
          "type": "bytes"
        }
      ],
      "name": "discover",
      "outputs": [
        {
          "internalType": "uint256",
          "name": "",
          "type": "uint256"
        }
      ],
      "stateMutability": "payable",
      "type": "function"
    },
    {
      "inputs": [
        {
          "internalType": "uint256",
          "name": "tokenId",
          "type": "uint256"
        }
      ],
      "name": "getApproved",
      "outputs": [
        {
          "internalType": "address",
          "name": "",
          "type": "address"
        }
      ],
      "stateMutability": "view",
      "type": "function"
    },
    {
      "inputs": [
        {
          "internalType": "address",
          "name": "owner",
          "type": "address"
        },
        {
          "internalType": "address",
          "name": "operator",
          "type": "address"
        }
      ],
      "name": "isApprovedForAll",
      "outputs": [
        {
          "internalType": "bool",
          "name": "",
          "type": "bool"
        }
      ],
      "stateMutability": "view",
      "type": "function"
    },
    {
      "inputs": [],
      "name": "name",
      "outputs": [
        {
          "internalType": "string",
          "name": "",
          "type": "string"
        }
      ],
      "stateMutability": "view",
      "type": "function"
    },
    {
      "inputs": [],
      "name": "oracle",
      "outputs": [
        {
          "internalType": "address",
          "name": "",
          "type": "address"
        }
      ],
      "stateMutability": "view",
      "type": "function"
    },
    {
      "inputs": [],
      "name": "owner",
      "outputs": [
        {
          "internalType": "address",
          "name": "",
          "type": "address"
        }
      ],
      "stateMutability": "view",
      "type": "function"
    },
    {
      "inputs": [
        {
          "internalType": "uint256",
          "name": "tokenId",
          "type": "uint256"
        }
      ],
      "name": "ownerOf",
      "outputs": [
        {
          "internalType": "address",
          "name": "",
          "type": "address"
        }
      ],
      "stateMutability": "view",
      "type": "function"
    },
    {
      "inputs": [],
      "name": "renounceOwnership",
      "outputs": [],
      "stateMutability": "nonpayable",
      "type": "function"
    },
    {
      "inputs": [
        {
          "internalType": "address",
          "name": "from",
          "type": "address"
        },
        {
          "internalType": "address",
          "name": "to",
          "type": "address"
        },
        {
          "internalType": "uint256",
          "name": "tokenId",
          "type": "uint256"
        }
      ],
      "name": "safeTransferFrom",
      "outputs": [],
      "stateMutability": "payable",
      "type": "function"
    },
    {
      "inputs": [
        {
          "internalType": "address",
          "name": "from",
          "type": "address"
        },
        {
          "internalType": "address",
          "name": "to",
          "type": "address"
        },
        {
          "internalType": "uint256",
          "name": "tokenId",
          "type": "uint256"
        },
        {
          "internalType": "bytes",
          "name": "_data",
          "type": "bytes"
        }
      ],
      "name": "safeTransferFrom",
      "outputs": [],
      "stateMutability": "payable",
      "type": "function"
    },
    {
      "inputs": [
        {
          "internalType": "address",
          "name": "operator",
          "type": "address"
        },
        {
          "internalType": "bool",
          "name": "approved",
          "type": "bool"
        }
      ],
      "name": "setApprovalForAll",
      "outputs": [],
      "stateMutability": "nonpayable",
      "type": "function"
    },
    {
      "inputs": [
        {
          "internalType": "bytes4",
          "name": "interfaceId",
          "type": "bytes4"
        }
      ],
      "name": "supportsInterface",
      "outputs": [
        {
          "internalType": "bool",
          "name": "",
          "type": "bool"
        }
      ],
      "stateMutability": "view",
      "type": "function"
    },
    {
      "inputs": [],
      "name": "symbol",
      "outputs": [
        {
          "internalType": "string",
          "name": "",
          "type": "string"
        }
      ],
      "stateMutability": "view",
      "type": "function"
    },
    {
      "inputs": [
        {
          "internalType": "uint256",
          "name": "tokenId",
          "type": "uint256"
        }
      ],
      "name": "tokenURI",
      "outputs": [
        {
          "internalType": "string",
          "name": "",
          "type": "string"
        }
      ],
      "stateMutability": "view",
      "type": "function"
    },
    {
      "inputs": [],
      "name": "totalSupply",
      "outputs": [
        {
          "internalType": "uint256",
          "name": "",
          "type": "uint256"
        }
      ],
      "stateMutability": "view",
      "type": "function"
    },
    {
      "inputs": [
        {
          "internalType": "address",
          "name": "from",
          "type": "address"
        },
        {
          "internalType": "address",
          "name": "to",
          "type": "address"
        },
        {
          "internalType": "uint256",
          "name": "tokenId",
          "type": "uint256"
        }
      ],
      "name": "transferFrom",
      "outputs": [],
      "stateMutability": "payable",
      "type": "function"
    },
    {
      "inputs": [
        {
          "internalType": "address",
          "name": "newOwner",
          "type": "address"
        }
      ],
      "name": "transferOwnership",
      "outputs": [],
      "stateMutability": "nonpayable",
      "type": "function"
    }
  ],
  "bytecode": "0x6101406040523480156200001257600080fd5b5060405162003a9e38038062003a9e8339818101604052810190620000389190620004dd565b6040518060400160405280600a81526020017f7465682d726170746f72000000000000000000000000000000000000000000008152506040518060400160405280600381526020017f312e3000000000000000000000000000000000000000000000000000000000008152506040518060400160405280600881526020017f4d616769634d61700000000000000000000000000000000000000000000000008152506040518060400160405280600681526020017f4d41474d41500000000000000000000000000000000000000000000000000000815250816002908051906020019062000128929190620003a4565b50806003908051906020019062000141929190620003a4565b50620001526200029160201b60201c565b600081905550505060008280519060200120905060008280519060200120905060007f8b73c3c69bb8fe3d512ecc4cf759cc79239f7b179b0ffacaa9a75d522b39400f90508260e081815250508161010081815250504660a08181525050620001c38184846200029a60201b60201c565b608081815250503073ffffffffffffffffffffffffffffffffffffffff1660c08173ffffffffffffffffffffffffffffffffffffffff1660601b8152505080610120818152505050505050506200022f62000223620002d660201b60201c565b620002de60201b60201c565b816009908051906020019062000247929190620003a4565b5080600a60006101000a81548173ffffffffffffffffffffffffffffffffffffffff021916908373ffffffffffffffffffffffffffffffffffffffff160217905550505062000799565b60006001905090565b60008383834630604051602001620002b79594939291906200056a565b6040516020818303038152906040528051906020012090509392505050565b600033905090565b6000600860009054906101000a900473ffffffffffffffffffffffffffffffffffffffff16905081600860006101000a81548173ffffffffffffffffffffffffffffffffffffffff021916908373ffffffffffffffffffffffffffffffffffffffff1602179055508173ffffffffffffffffffffffffffffffffffffffff168173ffffffffffffffffffffffffffffffffffffffff167f8be0079c531659141344cd1fd0a4f28419497f9722a3daafe3b4186f6b6457e060405160405180910390a35050565b828054620003b290620006a4565b90600052602060002090601f016020900481019282620003d6576000855562000422565b82601f10620003f157805160ff191683800117855562000422565b8280016001018555821562000422579182015b828111156200042157825182559160200191906001019062000404565b5b50905062000431919062000435565b5090565b5b808211156200045057600081600090555060010162000436565b5090565b60006200046b6200046584620005f0565b620005c7565b9050828152602081018484840111156200048457600080fd5b620004918482856200066e565b509392505050565b600081519050620004aa816200077f565b92915050565b600082601f830112620004c257600080fd5b8151620004d484826020860162000454565b91505092915050565b60008060408385031215620004f157600080fd5b600083015167ffffffffffffffff8111156200050c57600080fd5b6200051a85828601620004b0565b92505060206200052d8582860162000499565b9150509250929050565b620005428162000626565b82525050565b62000553816200063a565b82525050565b620005648162000664565b82525050565b600060a08201905062000581600083018862000548565b62000590602083018762000548565b6200059f604083018662000548565b620005ae606083018562000559565b620005bd608083018462000537565b9695505050505050565b6000620005d3620005e6565b9050620005e18282620006da565b919050565b6000604051905090565b600067ffffffffffffffff8211156200060e576200060d6200073f565b5b62000619826200076e565b9050602081019050919050565b6000620006338262000644565b9050919050565b6000819050919050565b600073ffffffffffffffffffffffffffffffffffffffff82169050919050565b6000819050919050565b60005b838110156200068e57808201518184015260208101905062000671565b838111156200069e576000848401525b50505050565b60006002820490506001821680620006bd57607f821691505b60208210811415620006d457620006d362000710565b5b50919050565b620006e5826200076e565b810181811067ffffffffffffffff821117156200070757620007066200073f565b5b80604052505050565b7f4e487b7100000000000000000000000000000000000000000000000000000000600052602260045260246000fd5b7f4e487b7100000000000000000000000000000000000000000000000000000000600052604160045260246000fd5b6000601f19601f8301169050919050565b6200078a8162000626565b81146200079657600080fd5b50565b60805160a05160c05160601c60e05161010051610120516132b2620007ec6000396000611c4101526000611c8301526000611c6201526000611b9701526000611bed01526000611c1601526132b26000f3fe6080604052600436106101355760003560e01c80636c0360eb116100ab57806395d89b411161006f57806395d89b41146103f2578063a22cb4651461041d578063b88d4fde14610446578063c87b56dd14610462578063e985e9c51461049f578063f2fde38b146104dc57610135565b80636c0360eb1461031d57806370a0823114610348578063715018a6146103855780637dc0d1d01461039c5780638da5cb5b146103c757610135565b806323b872dd116100fd57806323b872dd1461022657806339a0c6f91461024257806342842e0e1461026b57806347c421b51461028757806353833013146102b05780636352211e146102e057610135565b806301ffc9a71461013a57806306fdde0314610177578063081812fc146101a2578063095ea7b3146101df57806318160ddd146101fb575b600080fd5b34801561014657600080fd5b50610161600480360381019061015c9190612657565b610505565b60405161016e9190612b20565b60405180910390f35b34801561018357600080fd5b5061018c610597565b6040516101999190612bfc565b60405180910390f35b3480156101ae57600080fd5b506101c960048036038101906101c49190612742565b610629565b6040516101d69190612ab9565b60405180910390f35b6101f960048036038101906101f4919061261b565b6106a8565b005b34801561020757600080fd5b506102106107ec565b60405161021d9190612cfe565b60405180910390f35b610240600480360381019061023b9190612515565b610803565b005b34801561024e57600080fd5b50610269600480360381019061026491906126a9565b610b28565b005b61028560048036038101906102809190612515565b610bbe565b005b34801561029357600080fd5b506102ae60048036038101906102a991906124b0565b610bde565b005b6102ca60048036038101906102c591906126ea565b610c9e565b6040516102d79190612cfe565b60405180910390f35b3480156102ec57600080fd5b5061030760048036038101906103029190612742565b610d95565b6040516103149190612ab9565b60405180910390f35b34801561032957600080fd5b50610332610da7565b60405161033f9190612bfc565b60405180910390f35b34801561035457600080fd5b5061036f600480360381019061036a91906124b0565b610e35565b60405161037c9190612cfe565b60405180910390f35b34801561039157600080fd5b5061039a610eee565b005b3480156103a857600080fd5b506103b1610f76565b6040516103be9190612ab9565b60405180910390f35b3480156103d357600080fd5b506103dc610f9c565b6040516103e99190612ab9565b60405180910390f35b3480156103fe57600080fd5b50610407610fc6565b6040516104149190612bfc565b60405180910390f35b34801561042957600080fd5b50610444600480360381019061043f91906125df565b611058565b005b610460600480360381019061045b9190612564565b611163565b005b34801561046e57600080fd5b5061048960048036038101906104849190612742565b6111d6565b6040516104969190612bfc565b60405180910390f35b3480156104ab57600080fd5b506104c660048036038101906104c191906124d9565b611299565b6040516104d39190612b20565b60405180910390f35b3480156104e857600080fd5b5061050360048036038101906104fe91906124b0565b61132d565b005b60006301ffc9a760e01b827bffffffffffffffffffffffffffffffffffffffffffffffffffffffff1916148061056057506380ac58cd60e01b827bffffffffffffffffffffffffffffffffffffffffffffffffffffffff1916145b806105905750635b5e139f60e01b827bffffffffffffffffffffffffffffffffffffffffffffffffffffffff1916145b9050919050565b6060600280546105a690612f1b565b80601f01602080910402602001604051908101604052809291908181526020018280546105d290612f1b565b801561061f5780601f106105f45761010080835404028352916020019161061f565b820191906000526020600020905b81548152906001019060200180831161060257829003601f168201915b5050505050905090565b600061063482611425565b61066a576040517fcf4700e400000000000000000000000000000000000000000000000000000000815260040160405180910390fd5b6006600083815260200190815260200160002060000160009054906101000a900473ffffffffffffffffffffffffffffffffffffffff169050919050565b60006106b382610d95565b90508073ffffffffffffffffffffffffffffffffffffffff166106d4611484565b73ffffffffffffffffffffffffffffffffffffffff161461073757610700816106fb611484565b611299565b610736576040517fcfb3b94200000000000000000000000000000000000000000000000000000000815260040160405180910390fd5b5b826006600084815260200190815260200160002060000160006101000a81548173ffffffffffffffffffffffffffffffffffffffff021916908373ffffffffffffffffffffffffffffffffffffffff160217905550818373ffffffffffffffffffffffffffffffffffffffff168273ffffffffffffffffffffffffffffffffffffffff167f8c5be1e5ebec7d5bd14f71427d1e84f3dd0314c0f7b2291e5b200ac8c7c3b92560405160405180910390a4505050565b60006107f661148c565b6001546000540303905090565b600061080e82611495565b90508373ffffffffffffffffffffffffffffffffffffffff168173ffffffffffffffffffffffffffffffffffffffff1614610875576040517fa114810000000000000000000000000000000000000000000000000000000000815260040160405180910390fd5b60008061088184611563565b915091506108978187610892611484565b61158a565b6108e3576108ac866108a7611484565b611299565b6108e2576040517f59c896be00000000000000000000000000000000000000000000000000000000815260040160405180910390fd5b5b600073ffffffffffffffffffffffffffffffffffffffff168573ffffffffffffffffffffffffffffffffffffffff16141561094a576040517fea553b3400000000000000000000000000000000000000000000000000000000815260040160405180910390fd5b61095786868660016115ce565b801561096257600082555b600560008773ffffffffffffffffffffffffffffffffffffffff1673ffffffffffffffffffffffffffffffffffffffff168152602001908152602001600020600081546001900391905081905550600560008673ffffffffffffffffffffffffffffffffffffffff1673ffffffffffffffffffffffffffffffffffffffff1681526020019081526020016000206000815460010191905081905550610a3085610a0c8888876115d4565b7c0200000000000000000000000000000000000000000000000000000000176115fc565b600460008681526020019081526020016000208190555060007c020000000000000000000000000000000000000000000000000000000084161415610ab8576000600185019050600060046000838152602001908152602001600020541415610ab6576000548114610ab5578360046000838152602001908152602001600020819055505b5b505b838573ffffffffffffffffffffffffffffffffffffffff168773ffffffffffffffffffffffffffffffffffffffff167fddf252ad1be2c89b69c2b068fc378daa952ba7f163c4a11628f55a4df523b3ef60405160405180910390a4610b208686866001611627565b505050505050565b610b3061162d565b73ffffffffffffffffffffffffffffffffffffffff16610b4e610f9c565b73ffffffffffffffffffffffffffffffffffffffff1614610ba4576040517f08c379a0000000000000000000000000000000000000000000000000000000008152600401610b9b90612cde565b60405180910390fd5b8060099080519060200190610bba92919061225a565b5050565b610bd983838360405180602001604052806000815250611163565b505050565b610be661162d565b73ffffffffffffffffffffffffffffffffffffffff16610c04610f9c565b73ffffffffffffffffffffffffffffffffffffffff1614610c5a576040517f08c379a0000000000000000000000000000000000000000000000000000000008152600401610c5190612cde565b60405180910390fd5b80600a60006101000a81548173ffffffffffffffffffffffffffffffffffffffff021916908373ffffffffffffffffffffffffffffffffffffffff16021790555050565b6000610cf6610cac85611635565b84848080601f016020809104026020016040519081016040528093929190818152602001838380828437600081840152601f19601f820116905080830192505050505050506116a6565b610d35576040517f08c379a0000000000000000000000000000000000000000000000000000000008152600401610d2c90612c7e565b60405180910390fd5b6000610d3f6116f4565b9050610d4c3360016116fd565b846000016020810190610d5f919061276b565b600b600083815260200190815260200160002060006101000a81548160ff021916908360ff160217905550809150509392505050565b6000610da082611495565b9050919050565b60098054610db490612f1b565b80601f0160208091040260200160405190810160405280929190818152602001828054610de090612f1b565b8015610e2d5780601f10610e0257610100808354040283529160200191610e2d565b820191906000526020600020905b815481529060010190602001808311610e1057829003601f168201915b505050505081565b60008073ffffffffffffffffffffffffffffffffffffffff168273ffffffffffffffffffffffffffffffffffffffff161415610e9d576040517f8f4eb60400000000000000000000000000000000000000000000000000000000815260040160405180910390fd5b67ffffffffffffffff600560008473ffffffffffffffffffffffffffffffffffffffff1673ffffffffffffffffffffffffffffffffffffffff16815260200190815260200160002054169050919050565b610ef661162d565b73ffffffffffffffffffffffffffffffffffffffff16610f14610f9c565b73ffffffffffffffffffffffffffffffffffffffff1614610f6a576040517f08c379a0000000000000000000000000000000000000000000000000000000008152600401610f6190612cde565b60405180910390fd5b610f7460006118ba565b565b600a60009054906101000a900473ffffffffffffffffffffffffffffffffffffffff1681565b6000600860009054906101000a900473ffffffffffffffffffffffffffffffffffffffff16905090565b606060038054610fd590612f1b565b80601f016020809104026020016040519081016040528092919081815260200182805461100190612f1b565b801561104e5780601f106110235761010080835404028352916020019161104e565b820191906000526020600020905b81548152906001019060200180831161103157829003601f168201915b5050505050905090565b8060076000611065611484565b73ffffffffffffffffffffffffffffffffffffffff1673ffffffffffffffffffffffffffffffffffffffff16815260200190815260200160002060008473ffffffffffffffffffffffffffffffffffffffff1673ffffffffffffffffffffffffffffffffffffffff16815260200190815260200160002060006101000a81548160ff0219169083151502179055508173ffffffffffffffffffffffffffffffffffffffff16611112611484565b73ffffffffffffffffffffffffffffffffffffffff167f17307eab39ab6107e8899845ad3d59bd9653f200f220920489ca2b5937696c31836040516111579190612b20565b60405180910390a35050565b61116e848484610803565b60008373ffffffffffffffffffffffffffffffffffffffff163b146111d05761119984848484611980565b6111cf576040517fd1a57ed600000000000000000000000000000000000000000000000000000000815260040160405180910390fd5b5b50505050565b60606111e182611425565b611217576040517fa14c4b5000000000000000000000000000000000000000000000000000000000815260040160405180910390fd5b60006009805461122690612f1b565b905014156112435760405180602001604052806000815250611292565b6009611271600b600085815260200190815260200160002060009054906101000a900460ff1660ff16611ae0565b604051602001611282929190612a53565b6040516020818303038152906040525b9050919050565b6000600760008473ffffffffffffffffffffffffffffffffffffffff1673ffffffffffffffffffffffffffffffffffffffff16815260200190815260200160002060008373ffffffffffffffffffffffffffffffffffffffff1673ffffffffffffffffffffffffffffffffffffffff16815260200190815260200160002060009054906101000a900460ff16905092915050565b61133561162d565b73ffffffffffffffffffffffffffffffffffffffff16611353610f9c565b73ffffffffffffffffffffffffffffffffffffffff16146113a9576040517f08c379a00000000000000000000000000000000000000000000000000000000081526004016113a090612cde565b60405180910390fd5b600073ffffffffffffffffffffffffffffffffffffffff168173ffffffffffffffffffffffffffffffffffffffff161415611419576040517f08c379a000000000000000000000000000000000000000000000000000000000815260040161141090612c5e565b60405180910390fd5b611422816118ba565b50565b60008161143061148c565b1115801561143f575060005482105b801561147d575060007c0100000000000000000000000000000000000000000000000000000000600460008581526020019081526020016000205416145b9050919050565b600033905090565b60006001905090565b600080829050806114a461148c565b1161152c5760005481101561152b5760006004600083815260200190815260200160002054905060007c010000000000000000000000000000000000000000000000000000000082161415611529575b600081141561151f5760046000836001900393508381526020019081526020016000205490506114f4565b809250505061155e565b505b5b6040517fdf2d9b4200000000000000000000000000000000000000000000000000000000815260040160405180910390fd5b919050565b60008060006006600085815260200190815260200160002090508092508254915050915091565b600073ffffffffffffffffffffffffffffffffffffffff8316925073ffffffffffffffffffffffffffffffffffffffff821691508382148383141790509392505050565b50505050565b60008060e883901c905060e86115eb868684611b39565b62ffffff16901b9150509392505050565b600073ffffffffffffffffffffffffffffffffffffffff83169250814260a01b178317905092915050565b50505050565b600033905090565b60008061169b7f7a074f30bf1a88007fcd5b63acf5b156193f3140a653318f3041a15faf29cca384600001602081019061166f919061276b565b604051602001611680929190612b8e565b60405160208183030381529060405280519060200120611b42565b905080915050919050565b6000806116b38484611b5c565b90508073ffffffffffffffffffffffffffffffffffffffff166116d4610f9c565b73ffffffffffffffffffffffffffffffffffffffff161491505092915050565b60008054905090565b600080549050600082141561173e576040517fb562e8dd00000000000000000000000000000000000000000000000000000000815260040160405180910390fd5b61174b60008483856115ce565b600160406001901b178202600560008573ffffffffffffffffffffffffffffffffffffffff1673ffffffffffffffffffffffffffffffffffffffff168152602001908152602001600020600082825401925050819055506117c2836117b360008660006115d4565b6117bc85611b83565b176115fc565b6004600083815260200190815260200160002081905550600080838301905073ffffffffffffffffffffffffffffffffffffffff85169150828260007fddf252ad1be2c89b69c2b068fc378daa952ba7f163c4a11628f55a4df523b3ef600080a4600183015b81811461186357808360007fddf252ad1be2c89b69c2b068fc378daa952ba7f163c4a11628f55a4df523b3ef600080a4600181019050611828565b50600082141561189f576040517f2e07630000000000000000000000000000000000000000000000000000000000815260040160405180910390fd5b8060008190555050506118b56000848385611627565b505050565b6000600860009054906101000a900473ffffffffffffffffffffffffffffffffffffffff16905081600860006101000a81548173ffffffffffffffffffffffffffffffffffffffff021916908373ffffffffffffffffffffffffffffffffffffffff1602179055508173ffffffffffffffffffffffffffffffffffffffff168173ffffffffffffffffffffffffffffffffffffffff167f8be0079c531659141344cd1fd0a4f28419497f9722a3daafe3b4186f6b6457e060405160405180910390a35050565b60008373ffffffffffffffffffffffffffffffffffffffff1663150b7a026119a6611484565b8786866040518563ffffffff1660e01b81526004016119c89493929190612ad4565b602060405180830381600087803b1580156119e257600080fd5b505af1925050508015611a1357506040513d601f19601f82011682018060405250810190611a109190612680565b60015b611a8d573d8060008114611a43576040519150601f19603f3d011682016040523d82523d6000602084013e611a48565b606091505b50600081511415611a85576040517fd1a57ed600000000000000000000000000000000000000000000000000000000815260040160405180910390fd5b805181602001fd5b63150b7a0260e01b7bffffffffffffffffffffffffffffffffffffffffffffffffffffffff1916817bffffffffffffffffffffffffffffffffffffffffffffffffffffffff191614915050949350505050565b606060a060405101806040526020810391506000825281835b600115611b2457600184039350600a81066030018453600a8104905080611b1f57611b24565b611af9565b50828103602084039350808452505050919050565b60009392505050565b6000611b55611b4f611b93565b83611cad565b9050919050565b6000806000611b6b8585611ce0565b91509150611b7881611d63565b819250505092915050565b60006001821460e11b9050919050565b60007f000000000000000000000000000000000000000000000000000000000000000073ffffffffffffffffffffffffffffffffffffffff163073ffffffffffffffffffffffffffffffffffffffff16148015611c0f57507f000000000000000000000000000000000000000000000000000000000000000046145b15611c3c577f00000000000000000000000000000000000000000000000000000000000000009050611caa565b611ca77f00000000000000000000000000000000000000000000000000000000000000007f00000000000000000000000000000000000000000000000000000000000000007f00000000000000000000000000000000000000000000000000000000000000006120b4565b90505b90565b60008282604051602001611cc2929190612a82565b60405160208183030381529060405280519060200120905092915050565b600080604183511415611d225760008060006020860151925060408601519150606086015160001a9050611d16878285856120ee565b94509450505050611d5c565b604083511415611d53576000806020850151915060408501519050611d488683836121fb565b935093505050611d5c565b60006002915091505b9250929050565b60006004811115611d9d577f4e487b7100000000000000000000000000000000000000000000000000000000600052602160045260246000fd5b816004811115611dd6577f4e487b7100000000000000000000000000000000000000000000000000000000600052602160045260246000fd5b1415611de1576120b1565b60016004811115611e1b577f4e487b7100000000000000000000000000000000000000000000000000000000600052602160045260246000fd5b816004811115611e54577f4e487b7100000000000000000000000000000000000000000000000000000000600052602160045260246000fd5b1415611e95576040517f08c379a0000000000000000000000000000000000000000000000000000000008152600401611e8c90612c1e565b60405180910390fd5b60026004811115611ecf577f4e487b7100000000000000000000000000000000000000000000000000000000600052602160045260246000fd5b816004811115611f08577f4e487b7100000000000000000000000000000000000000000000000000000000600052602160045260246000fd5b1415611f49576040517f08c379a0000000000000000000000000000000000000000000000000000000008152600401611f4090612c3e565b60405180910390fd5b60036004811115611f83577f4e487b7100000000000000000000000000000000000000000000000000000000600052602160045260246000fd5b816004811115611fbc577f4e487b7100000000000000000000000000000000000000000000000000000000600052602160045260246000fd5b1415611ffd576040517f08c379a0000000000000000000000000000000000000000000000000000000008152600401611ff490612c9e565b60405180910390fd5b600480811115612036577f4e487b7100000000000000000000000000000000000000000000000000000000600052602160045260246000fd5b81600481111561206f577f4e487b7100000000000000000000000000000000000000000000000000000000600052602160045260246000fd5b14156120b0576040517f08c379a00000000000000000000000000000000000000000000000000000000081526004016120a790612cbe565b60405180910390fd5b5b50565b600083838346306040516020016120cf959493929190612b3b565b6040516020818303038152906040528051906020012090509392505050565b6000807f7fffffffffffffffffffffffffffffff5d576e7357a4501ddfe92f46681b20a08360001c11156121295760006003915091506121f2565b601b8560ff16141580156121415750601c8560ff1614155b156121535760006004915091506121f2565b6000600187878787604051600081526020016040526040516121789493929190612bb7565b6020604051602081039080840390855afa15801561219a573d6000803e3d6000fd5b505050602060405103519050600073ffffffffffffffffffffffffffffffffffffffff168173ffffffffffffffffffffffffffffffffffffffff1614156121e9576000600192509250506121f2565b80600092509250505b94509492505050565b60008060007f7fffffffffffffffffffffffffffffffffffffffffffffffffffffffffffffff60001b841690506000601b60ff8660001c901c61223e9190612df8565b905061224c878288856120ee565b935093505050935093915050565b82805461226690612f1b565b90600052602060002090601f01602090048101928261228857600085556122cf565b82601f106122a157805160ff19168380011785556122cf565b828001600101855582156122cf579182015b828111156122ce5782518255916020019190600101906122b3565b5b5090506122dc91906122e0565b5090565b5b808211156122f95760008160009055506001016122e1565b5090565b600061231061230b84612d3e565b612d19565b90508281526020810184848401111561232857600080fd5b612333848285612ed9565b509392505050565b600061234e61234984612d6f565b612d19565b90508281526020810184848401111561236657600080fd5b612371848285612ed9565b509392505050565b60008135905061238881613209565b92915050565b60008135905061239d81613220565b92915050565b6000813590506123b281613237565b92915050565b6000815190506123c781613237565b92915050565b60008083601f8401126123df57600080fd5b8235905067ffffffffffffffff8111156123f857600080fd5b60208301915083600182028301111561241057600080fd5b9250929050565b600082601f83011261242857600080fd5b81356124388482602086016122fd565b91505092915050565b600082601f83011261245257600080fd5b813561246284826020860161233b565b91505092915050565b60006020828403121561247d57600080fd5b81905092915050565b6000813590506124958161324e565b92915050565b6000813590506124aa81613265565b92915050565b6000602082840312156124c257600080fd5b60006124d084828501612379565b91505092915050565b600080604083850312156124ec57600080fd5b60006124fa85828601612379565b925050602061250b85828601612379565b9150509250929050565b60008060006060848603121561252a57600080fd5b600061253886828701612379565b935050602061254986828701612379565b925050604061255a86828701612486565b9150509250925092565b6000806000806080858703121561257a57600080fd5b600061258887828801612379565b945050602061259987828801612379565b93505060406125aa87828801612486565b925050606085013567ffffffffffffffff8111156125c757600080fd5b6125d387828801612417565b91505092959194509250565b600080604083850312156125f257600080fd5b600061260085828601612379565b92505060206126118582860161238e565b9150509250929050565b6000806040838503121561262e57600080fd5b600061263c85828601612379565b925050602061264d85828601612486565b9150509250929050565b60006020828403121561266957600080fd5b6000612677848285016123a3565b91505092915050565b60006020828403121561269257600080fd5b60006126a0848285016123b8565b91505092915050565b6000602082840312156126bb57600080fd5b600082013567ffffffffffffffff8111156126d557600080fd5b6126e184828501612441565b91505092915050565b6000806000604084860312156126ff57600080fd5b600061270d8682870161246b565b935050602084013567ffffffffffffffff81111561272a57600080fd5b612736868287016123cd565b92509250509250925092565b60006020828403121561275457600080fd5b600061276284828501612486565b91505092915050565b60006020828403121561277d57600080fd5b600061278b8482850161249b565b91505092915050565b61279d81612e4e565b82525050565b6127ac81612e60565b82525050565b6127bb81612e6c565b82525050565b6127d26127cd82612e6c565b612f7e565b82525050565b60006127e382612db5565b6127ed8185612dcb565b93506127fd818560208601612ee8565b61280681613015565b840191505092915050565b600061281c82612dc0565b6128268185612ddc565b9350612836818560208601612ee8565b61283f81613015565b840191505092915050565b600061285582612dc0565b61285f8185612ded565b935061286f818560208601612ee8565b80840191505092915050565b6000815461288881612f1b565b6128928186612ded565b945060018216600081146128ad57600181146128be576128f1565b60ff198316865281860193506128f1565b6128c785612da0565b60005b838110156128e9578154818901526001820191506020810190506128ca565b838801955050505b50505092915050565b6000612907601883612ddc565b915061291282613026565b602082019050919050565b600061292a601f83612ddc565b91506129358261304f565b602082019050919050565b600061294d602683612ddc565b915061295882613078565b604082019050919050565b6000612970600283612ded565b915061297b826130c7565b600282019050919050565b6000612993601183612ddc565b915061299e826130f0565b602082019050919050565b60006129b6602283612ddc565b91506129c182613119565b604082019050919050565b60006129d9602283612ddc565b91506129e482613168565b604082019050919050565b60006129fc600583612ded565b9150612a07826131b7565b600582019050919050565b6000612a1f602083612ddc565b9150612a2a826131e0565b602082019050919050565b612a3e81612ec2565b82525050565b612a4d81612ecc565b82525050565b6000612a5f828561287b565b9150612a6b828461284a565b9150612a76826129ef565b91508190509392505050565b6000612a8d82612963565b9150612a9982856127c1565b602082019150612aa982846127c1565b6020820191508190509392505050565b6000602082019050612ace6000830184612794565b92915050565b6000608082019050612ae96000830187612794565b612af66020830186612794565b612b036040830185612a35565b8181036060830152612b1581846127d8565b905095945050505050565b6000602082019050612b3560008301846127a3565b92915050565b600060a082019050612b5060008301886127b2565b612b5d60208301876127b2565b612b6a60408301866127b2565b612b776060830185612a35565b612b846080830184612794565b9695505050505050565b6000604082019050612ba360008301856127b2565b612bb06020830184612a44565b9392505050565b6000608082019050612bcc60008301876127b2565b612bd96020830186612a44565b612be660408301856127b2565b612bf360608301846127b2565b95945050505050565b60006020820190508181036000830152612c168184612811565b905092915050565b60006020820190508181036000830152612c37816128fa565b9050919050565b60006020820190508181036000830152612c578161291d565b9050919050565b60006020820190508181036000830152612c7781612940565b9050919050565b60006020820190508181036000830152612c9781612986565b9050919050565b60006020820190508181036000830152612cb7816129a9565b9050919050565b60006020820190508181036000830152612cd7816129cc565b9050919050565b60006020820190508181036000830152612cf781612a12565b9050919050565b6000602082019050612d136000830184612a35565b92915050565b6000612d23612d34565b9050612d2f8282612f4d565b919050565b6000604051905090565b600067ffffffffffffffff821115612d5957612d58612fe6565b5b612d6282613015565b9050602081019050919050565b600067ffffffffffffffff821115612d8a57612d89612fe6565b5b612d9382613015565b9050602081019050919050565b60008190508160005260206000209050919050565b600081519050919050565b600081519050919050565b600082825260208201905092915050565b600082825260208201905092915050565b600081905092915050565b6000612e0382612ec2565b9150612e0e83612ec2565b9250827fffffffffffffffffffffffffffffffffffffffffffffffffffffffffffffffff03821115612e4357612e42612f88565b5b828201905092915050565b6000612e5982612ea2565b9050919050565b60008115159050919050565b6000819050919050565b60007fffffffff0000000000000000000000000000000000000000000000000000000082169050919050565b600073ffffffffffffffffffffffffffffffffffffffff82169050919050565b6000819050919050565b600060ff82169050919050565b82818337600083830152505050565b60005b83811015612f06578082015181840152602081019050612eeb565b83811115612f15576000848401525b50505050565b60006002820490506001821680612f3357607f821691505b60208210811415612f4757612f46612fb7565b5b50919050565b612f5682613015565b810181811067ffffffffffffffff82111715612f7557612f74612fe6565b5b80604052505050565b6000819050919050565b7f4e487b7100000000000000000000000000000000000000000000000000000000600052601160045260246000fd5b7f4e487b7100000000000000000000000000000000000000000000000000000000600052602260045260246000fd5b7f4e487b7100000000000000000000000000000000000000000000000000000000600052604160045260246000fd5b6000601f19601f8301169050919050565b7f45434453413a20696e76616c6964207369676e61747572650000000000000000600082015250565b7f45434453413a20696e76616c6964207369676e6174757265206c656e67746800600082015250565b7f4f776e61626c653a206e6577206f776e657220697320746865207a65726f206160008201527f6464726573730000000000000000000000000000000000000000000000000000602082015250565b7f1901000000000000000000000000000000000000000000000000000000000000600082015250565b7f496e76616c6964207369676e6174757265000000000000000000000000000000600082015250565b7f45434453413a20696e76616c6964207369676e6174757265202773272076616c60008201527f7565000000000000000000000000000000000000000000000000000000000000602082015250565b7f45434453413a20696e76616c6964207369676e6174757265202776272076616c60008201527f7565000000000000000000000000000000000000000000000000000000000000602082015250565b7f2e6a736f6e000000000000000000000000000000000000000000000000000000600082015250565b7f4f776e61626c653a2063616c6c6572206973206e6f7420746865206f776e6572600082015250565b61321281612e4e565b811461321d57600080fd5b50565b61322981612e60565b811461323457600080fd5b50565b61324081612e76565b811461324b57600080fd5b50565b61325781612ec2565b811461326257600080fd5b50565b61326e81612ecc565b811461327957600080fd5b5056fea26469706673582212207e83b2a0a0abab81044e7cc546a6b22e0dee1ad01b1c0b960465a87b79542b1764736f6c63430008040033",
  "linkReferences": {},
  "deployedLinkReferences": {}
}