{
  "_format": "hh-sol-artifact-1",
  "contractName": "AirCache",
  "sourceName": "contracts/AirCache.sol",
  "abi": [
    {
      "inputs": [],
      "stateMutability": "nonpayable",
      "type": "constructor"
    },
    {
      "anonymous": false,
      "inputs": [
        {
          "indexed": false,
          "internalType": "uint256",
          "name": "cacheId",
          "type": "uint256"
        },
        {
          "indexed": true,
          "internalType": "address",
          "name": "winner",
          "type": "address"
        },
        {
          "indexed": true,
          "internalType": "address",
          "name": "tokenAddress",
          "type": "address"
        },
        {
          "indexed": false,
          "internalType": "uint256",
          "name": "tokenId",
          "type": "uint256"
        }
      ],
      "name": "NFTDropped",
      "type": "event"
    },
    {
      "anonymous": false,
      "inputs": [
        {
          "indexed": false,
          "internalType": "uint256",
          "name": "cacheId",
          "type": "uint256"
        },
        {
          "indexed": true,
          "internalType": "address",
          "name": "tokenAddress",
          "type": "address"
        },
        {
          "indexed": false,
          "internalType": "uint256",
          "name": "tokenId",
          "type": "uint256"
        }
      ],
      "name": "NFTHeld",
      "type": "event"
    },
    {
      "anonymous": false,
      "inputs": [
        {
          "indexed": true,
          "internalType": "address",
          "name": "previousOwner",
          "type": "address"
        },
        {
          "indexed": true,
          "internalType": "address",
          "name": "newOwner",
          "type": "address"
        }
      ],
      "name": "OwnershipTransferred",
      "type": "event"
    },
    {
      "inputs": [],
      "name": "cacheId",
      "outputs": [
        {
          "internalType": "uint256",
          "name": "_value",
          "type": "uint256"
        }
      ],
      "stateMutability": "view",
      "type": "function"
    },
    {
      "inputs": [
        {
          "internalType": "uint256",
          "name": "",
          "type": "uint256"
        }
      ],
      "name": "caches",
      "outputs": [
        {
          "internalType": "bytes32",
          "name": "lat",
          "type": "bytes32"
        },
        {
          "internalType": "bytes32",
          "name": "lng",
          "type": "bytes32"
        },
        {
          "internalType": "uint256",
          "name": "id",
          "type": "uint256"
        },
        {
          "internalType": "uint256",
          "name": "tokenId",
          "type": "uint256"
        },
        {
          "internalType": "address",
          "name": "tokenAddress",
          "type": "address"
        }
      ],
      "stateMutability": "view",
      "type": "function"
    },
    {
      "inputs": [
        {
          "internalType": "bytes32",
          "name": "lat",
          "type": "bytes32"
        },
        {
          "internalType": "bytes32",
          "name": "lng",
          "type": "bytes32"
        }
      ],
      "name": "createCache",
      "outputs": [],
      "stateMutability": "nonpayable",
      "type": "function"
    },
    {
      "inputs": [
        {
          "internalType": "uint256",
          "name": "_cacheId",
          "type": "uint256"
        },
        {
          "internalType": "address",
          "name": "_winner",
          "type": "address"
        }
      ],
      "name": "dropNFT",
      "outputs": [],
      "stateMutability": "nonpayable",
      "type": "function"
    },
    {
      "inputs": [
        {
          "internalType": "address",
          "name": "tokenAddress",
          "type": "address"
        },
        {
          "internalType": "uint256",
          "name": "tokenId",
          "type": "uint256"
        },
        {
          "internalType": "uint256",
          "name": "_cacheId",
          "type": "uint256"
        }
      ],
      "name": "holdNFT",
      "outputs": [],
      "stateMutability": "nonpayable",
      "type": "function"
    },
    {
      "inputs": [],
      "name": "owner",
      "outputs": [
        {
          "internalType": "address",
          "name": "",
          "type": "address"
        }
      ],
      "stateMutability": "view",
      "type": "function"
    },
    {
      "inputs": [],
      "name": "renounceOwnership",
      "outputs": [],
      "stateMutability": "nonpayable",
      "type": "function"
    },
    {
      "inputs": [
        {
          "internalType": "address",
          "name": "newOwner",
          "type": "address"
        }
      ],
      "name": "transferOwnership",
      "outputs": [],
      "stateMutability": "nonpayable",
      "type": "function"
    }
  ],
  "bytecode": "0x608060405234801561001057600080fd5b5061002d61002261003260201b60201c565b61003a60201b60201c565b6100fe565b600033905090565b60008060009054906101000a900473ffffffffffffffffffffffffffffffffffffffff169050816000806101000a81548173ffffffffffffffffffffffffffffffffffffffff021916908373ffffffffffffffffffffffffffffffffffffffff1602179055508173ffffffffffffffffffffffffffffffffffffffff168173ffffffffffffffffffffffffffffffffffffffff167f8be0079c531659141344cd1fd0a4f28419497f9722a3daafe3b4186f6b6457e060405160405180910390a35050565b6110648061010d6000396000f3fe608060405234801561001057600080fd5b50600436106100885760003560e01c80638da5cb5b1161005b5780638da5cb5b146101035780638df8282414610121578063cb69c8a21461013d578063f2fde38b1461015b57610088565b806317a4282b1461008d57806366f17f7f146100c1578063685de79e146100dd578063715018a6146100f9575b600080fd5b6100a760048036038101906100a29190610c88565b610177565b6040516100b8959493929190610dfa565b60405180910390f35b6100db60048036038101906100d69190610cb1565b6101cd565b005b6100f760048036038101906100f29190610bfd565b61053b565b005b610101610809565b005b61010b610891565b6040516101189190610da8565b60405180910390f35b61013b60048036038101906101369190610c4c565b6108ba565b005b6101456109a1565b6040516101529190610e8d565b60405180910390f35b61017560048036038101906101709190610bd4565b6109ad565b005b60026020528060005260406000206000915090508060000154908060010154908060020154908060030154908060040160009054906101000a900473ffffffffffffffffffffffffffffffffffffffff16905085565b6101d5610aa5565b73ffffffffffffffffffffffffffffffffffffffff166101f3610891565b73ffffffffffffffffffffffffffffffffffffffff1614610249576040517f08c379a000000000000000000000000000000000000000000000000000000000815260040161024090610e6d565b60405180910390fd5b6000600260008481526020019081526020016000206040518060a0016040529081600082015481526020016001820154815260200160028201548152602001600382015481526020016004820160009054906101000a900473ffffffffffffffffffffffffffffffffffffffff1673ffffffffffffffffffffffffffffffffffffffff1673ffffffffffffffffffffffffffffffffffffffff16815250509050600080826080015173ffffffffffffffffffffffffffffffffffffffff163085856060015160405160240161032093929190610dc3565b6040516020818303038152906040527f23b872dd000000000000000000000000000000000000000000000000000000007bffffffffffffffffffffffffffffffffffffffffffffffffffffffff19166020820180517bffffffffffffffffffffffffffffffffffffffffffffffffffffffff83818316178352505050506040516103aa9190610d91565b6000604051808303816000865af19150503d80600081146103e7576040519150601f19603f3d011682016040523d82523d6000602084013e6103ec565b606091505b5091509150816103fb57600080fd5b826080015173ffffffffffffffffffffffffffffffffffffffff168473ffffffffffffffffffffffffffffffffffffffff167ff121809c0248c62daf0aa8b46dc8b796cdfcef1f4fdaaf26be3939d8cbaf6249878660600151604051610462929190610ea8565b60405180910390a360008360600181815250506000836080019073ffffffffffffffffffffffffffffffffffffffff16908173ffffffffffffffffffffffffffffffffffffffff168152505082600260008781526020019081526020016000206000820151816000015560208201518160010155604082015181600201556060820151816003015560808201518160040160006101000a81548173ffffffffffffffffffffffffffffffffffffffff021916908373ffffffffffffffffffffffffffffffffffffffff1602179055509050505050505050565b6000808473ffffffffffffffffffffffffffffffffffffffff1633308660405160240161056a93929190610dc3565b6040516020818303038152906040527f23b872dd000000000000000000000000000000000000000000000000000000007bffffffffffffffffffffffffffffffffffffffffffffffffffffffff19166020820180517bffffffffffffffffffffffffffffffffffffffffffffffffffffffff83818316178352505050506040516105f49190610d91565b6000604051808303816000865af19150503d8060008114610631576040519150601f19603f3d011682016040523d82523d6000602084013e610636565b606091505b50915091508161064557600080fd5b6000600260008581526020019081526020016000206040518060a0016040529081600082015481526020016001820154815260200160028201548152602001600382015481526020016004820160009054906101000a900473ffffffffffffffffffffffffffffffffffffffff1673ffffffffffffffffffffffffffffffffffffffff1673ffffffffffffffffffffffffffffffffffffffff1681525050905085816080019073ffffffffffffffffffffffffffffffffffffffff16908173ffffffffffffffffffffffffffffffffffffffff16815250508481606001818152505080600260008681526020019081526020016000206000820151816000015560208201518160010155604082015181600201556060820151816003015560808201518160040160006101000a81548173ffffffffffffffffffffffffffffffffffffffff021916908373ffffffffffffffffffffffffffffffffffffffff1602179055509050508573ffffffffffffffffffffffffffffffffffffffff167fb2dbf97725f320c2a27ebec18fd11603eecb5f449406ea738ebe3288b33d69088260400151876040516107f9929190610ea8565b60405180910390a2505050505050565b610811610aa5565b73ffffffffffffffffffffffffffffffffffffffff1661082f610891565b73ffffffffffffffffffffffffffffffffffffffff1614610885576040517f08c379a000000000000000000000000000000000000000000000000000000000815260040161087c90610e6d565b60405180910390fd5b61088f6000610aad565b565b60008060009054906101000a900473ffffffffffffffffffffffffffffffffffffffff16905090565b6108c46001610b71565b60006108d06001610b87565b905060006040518060a0016040528085815260200184815260200183815260200160008152602001600073ffffffffffffffffffffffffffffffffffffffff16815250905080600260008481526020019081526020016000206000820151816000015560208201518160010155604082015181600201556060820151816003015560808201518160040160006101000a81548173ffffffffffffffffffffffffffffffffffffffff021916908373ffffffffffffffffffffffffffffffffffffffff16021790555090505050505050565b60018060000154905081565b6109b5610aa5565b73ffffffffffffffffffffffffffffffffffffffff166109d3610891565b73ffffffffffffffffffffffffffffffffffffffff1614610a29576040517f08c379a0000000000000000000000000000000000000000000000000000000008152600401610a2090610e6d565b60405180910390fd5b600073ffffffffffffffffffffffffffffffffffffffff168173ffffffffffffffffffffffffffffffffffffffff161415610a99576040517f08c379a0000000000000000000000000000000000000000000000000000000008152600401610a9090610e4d565b60405180910390fd5b610aa281610aad565b50565b600033905090565b60008060009054906101000a900473ffffffffffffffffffffffffffffffffffffffff169050816000806101000a81548173ffffffffffffffffffffffffffffffffffffffff021916908373ffffffffffffffffffffffffffffffffffffffff1602179055508173ffffffffffffffffffffffffffffffffffffffff168173ffffffffffffffffffffffffffffffffffffffff167f8be0079c531659141344cd1fd0a4f28419497f9722a3daafe3b4186f6b6457e060405160405180910390a35050565b6001816000016000828254019250508190555050565b600081600001549050919050565b600081359050610ba481610fe9565b92915050565b600081359050610bb981611000565b92915050565b600081359050610bce81611017565b92915050565b600060208284031215610be657600080fd5b6000610bf484828501610b95565b91505092915050565b600080600060608486031215610c1257600080fd5b6000610c2086828701610b95565b9350506020610c3186828701610bbf565b9250506040610c4286828701610bbf565b9150509250925092565b60008060408385031215610c5f57600080fd5b6000610c6d85828601610baa565b9250506020610c7e85828601610baa565b9150509250929050565b600060208284031215610c9a57600080fd5b6000610ca884828501610bbf565b91505092915050565b60008060408385031215610cc457600080fd5b6000610cd285828601610bbf565b9250506020610ce385828601610b95565b9150509250929050565b610cf681610ef8565b82525050565b610d0581610f0a565b82525050565b6000610d1682610ed1565b610d208185610edc565b9350610d30818560208601610f3e565b80840191505092915050565b6000610d49602683610ee7565b9150610d5482610f71565b604082019050919050565b6000610d6c602083610ee7565b9150610d7782610fc0565b602082019050919050565b610d8b81610f34565b82525050565b6000610d9d8284610d0b565b915081905092915050565b6000602082019050610dbd6000830184610ced565b92915050565b6000606082019050610dd86000830186610ced565b610de56020830185610ced565b610df26040830184610d82565b949350505050565b600060a082019050610e0f6000830188610cfc565b610e1c6020830187610cfc565b610e296040830186610d82565b610e366060830185610d82565b610e436080830184610ced565b9695505050505050565b60006020820190508181036000830152610e6681610d3c565b9050919050565b60006020820190508181036000830152610e8681610d5f565b9050919050565b6000602082019050610ea26000830184610d82565b92915050565b6000604082019050610ebd6000830185610d82565b610eca6020830184610d82565b9392505050565b600081519050919050565b600081905092915050565b600082825260208201905092915050565b6000610f0382610f14565b9050919050565b6000819050919050565b600073ffffffffffffffffffffffffffffffffffffffff82169050919050565b6000819050919050565b60005b83811015610f5c578082015181840152602081019050610f41565b83811115610f6b576000848401525b50505050565b7f4f776e61626c653a206e6577206f776e657220697320746865207a65726f206160008201527f6464726573730000000000000000000000000000000000000000000000000000602082015250565b7f4f776e61626c653a2063616c6c6572206973206e6f7420746865206f776e6572600082015250565b610ff281610ef8565b8114610ffd57600080fd5b50565b61100981610f0a565b811461101457600080fd5b50565b61102081610f34565b811461102b57600080fd5b5056fea2646970667358221220a6a88e1774eba524d99ff83611642ce0aeacf3c478ca69da7b180cd4fb7139d864736f6c63430008040033",
  "linkReferences": {},
  "deployedLinkReferences": {}
}