{
  "_format": "hh-sol-artifact-1",
  "contractName": "AirYaytso",
  "sourceName": "contracts/AirYaytso.sol",
  "abi": [
    {
      "inputs": [],
      "stateMutability": "nonpayable",
      "type": "constructor"
    },
    {
      "anonymous": false,
      "inputs": [
        {
          "indexed": false,
          "internalType": "uint256",
          "name": "cacheId",
          "type": "uint256"
        },
        {
          "indexed": true,
          "internalType": "address",
          "name": "winner",
          "type": "address"
        },
        {
          "indexed": true,
          "internalType": "address",
          "name": "tokenAddress",
          "type": "address"
        },
        {
          "indexed": false,
          "internalType": "uint256",
          "name": "tokenId",
          "type": "uint256"
        }
      ],
      "name": "NFTDropped",
      "type": "event"
    },
    {
      "anonymous": false,
      "inputs": [
        {
          "indexed": false,
          "internalType": "uint256",
          "name": "cacheId",
          "type": "uint256"
        },
        {
          "indexed": true,
          "internalType": "address",
          "name": "tokenAddress",
          "type": "address"
        },
        {
          "indexed": false,
          "internalType": "uint256",
          "name": "tokenId",
          "type": "uint256"
        }
      ],
      "name": "NFTHeld",
      "type": "event"
    },
    {
      "anonymous": false,
      "inputs": [
        {
          "indexed": true,
          "internalType": "address",
          "name": "previousOwner",
          "type": "address"
        },
        {
          "indexed": true,
          "internalType": "address",
          "name": "newOwner",
          "type": "address"
        }
      ],
      "name": "OwnershipTransferred",
      "type": "event"
    },
    {
      "inputs": [],
      "name": "cacheId",
      "outputs": [
        {
          "internalType": "uint256",
          "name": "_value",
          "type": "uint256"
        }
      ],
      "stateMutability": "view",
      "type": "function"
    },
    {
      "inputs": [
        {
          "internalType": "uint256",
          "name": "",
          "type": "uint256"
        }
      ],
      "name": "caches",
      "outputs": [
        {
          "internalType": "bytes32",
          "name": "lat",
          "type": "bytes32"
        },
        {
          "internalType": "bytes32",
          "name": "lng",
          "type": "bytes32"
        },
        {
          "internalType": "uint256",
          "name": "id",
          "type": "uint256"
        },
        {
          "internalType": "uint256",
          "name": "tokenId",
          "type": "uint256"
        },
        {
          "internalType": "address",
          "name": "tokenAddress",
          "type": "address"
        }
      ],
      "stateMutability": "view",
      "type": "function"
    },
    {
      "inputs": [
        {
          "internalType": "bytes32",
          "name": "lat",
          "type": "bytes32"
        },
        {
          "internalType": "bytes32",
          "name": "lng",
          "type": "bytes32"
        }
      ],
      "name": "createCache",
      "outputs": [],
      "stateMutability": "nonpayable",
      "type": "function"
    },
    {
      "inputs": [
        {
          "internalType": "uint256",
          "name": "_cacheId",
          "type": "uint256"
        },
        {
          "internalType": "address",
          "name": "_winner",
          "type": "address"
        }
      ],
      "name": "dropNFT",
      "outputs": [],
      "stateMutability": "nonpayable",
      "type": "function"
    },
    {
      "inputs": [
        {
          "internalType": "address",
          "name": "tokenAddress",
          "type": "address"
        },
        {
          "internalType": "uint256",
          "name": "tokenId",
          "type": "uint256"
        },
        {
          "internalType": "uint256",
          "name": "_cacheId",
          "type": "uint256"
        }
      ],
      "name": "holdNFT",
      "outputs": [],
      "stateMutability": "nonpayable",
      "type": "function"
    },
    {
      "inputs": [],
      "name": "owner",
      "outputs": [
        {
          "internalType": "address",
          "name": "",
          "type": "address"
        }
      ],
      "stateMutability": "view",
      "type": "function"
    },
    {
      "inputs": [],
      "name": "renounceOwnership",
      "outputs": [],
      "stateMutability": "nonpayable",
      "type": "function"
    },
    {
      "inputs": [
        {
          "internalType": "address",
          "name": "newOwner",
          "type": "address"
        }
      ],
      "name": "transferOwnership",
      "outputs": [],
      "stateMutability": "nonpayable",
      "type": "function"
    }
  ],
  "bytecode": "0x608060405234801561001057600080fd5b5061002d61002261003260201b60201c565b61003a60201b60201c565b6100fe565b600033905090565b60008060009054906101000a900473ffffffffffffffffffffffffffffffffffffffff169050816000806101000a81548173ffffffffffffffffffffffffffffffffffffffff021916908373ffffffffffffffffffffffffffffffffffffffff1602179055508173ffffffffffffffffffffffffffffffffffffffff168173ffffffffffffffffffffffffffffffffffffffff167f8be0079c531659141344cd1fd0a4f28419497f9722a3daafe3b4186f6b6457e060405160405180910390a35050565b61126b8061010d6000396000f3fe608060405234801561001057600080fd5b50600436106100885760003560e01c80638da5cb5b1161005b5780638da5cb5b146101035780638df8282414610121578063cb69c8a21461013d578063f2fde38b1461015b57610088565b806317a4282b1461008d57806366f17f7f146100c1578063685de79e146100dd578063715018a6146100f9575b600080fd5b6100a760048036038101906100a29190610d4b565b610177565b6040516100b8959493929190610f26565b60405180910390f35b6100db60048036038101906100d69190610d74565b6101cd565b005b6100f760048036038101906100f29190610cc0565b61053b565b005b6101016108cc565b005b61010b610954565b6040516101189190610ed4565b60405180910390f35b61013b60048036038101906101369190610d0f565b61097d565b005b610145610a64565b6040516101529190611019565b60405180910390f35b61017560048036038101906101709190610c97565b610a70565b005b60026020528060005260406000206000915090508060000154908060010154908060020154908060030154908060040160009054906101000a900473ffffffffffffffffffffffffffffffffffffffff16905085565b6101d5610b68565b73ffffffffffffffffffffffffffffffffffffffff166101f3610954565b73ffffffffffffffffffffffffffffffffffffffff1614610249576040517f08c379a000000000000000000000000000000000000000000000000000000000815260040161024090610ff9565b60405180910390fd5b6000600260008481526020019081526020016000206040518060a0016040529081600082015481526020016001820154815260200160028201548152602001600382015481526020016004820160009054906101000a900473ffffffffffffffffffffffffffffffffffffffff1673ffffffffffffffffffffffffffffffffffffffff1673ffffffffffffffffffffffffffffffffffffffff16815250509050600080826080015173ffffffffffffffffffffffffffffffffffffffff163085856060015160405160240161032093929190610eef565b6040516020818303038152906040527f23b872dd000000000000000000000000000000000000000000000000000000007bffffffffffffffffffffffffffffffffffffffffffffffffffffffff19166020820180517bffffffffffffffffffffffffffffffffffffffffffffffffffffffff83818316178352505050506040516103aa9190610ebd565b6000604051808303816000865af19150503d80600081146103e7576040519150601f19603f3d011682016040523d82523d6000602084013e6103ec565b606091505b5091509150816103fb57600080fd5b826080015173ffffffffffffffffffffffffffffffffffffffff168473ffffffffffffffffffffffffffffffffffffffff167ff121809c0248c62daf0aa8b46dc8b796cdfcef1f4fdaaf26be3939d8cbaf6249878660600151604051610462929190611034565b60405180910390a360008360600181815250506000836080019073ffffffffffffffffffffffffffffffffffffffff16908173ffffffffffffffffffffffffffffffffffffffff168152505082600260008781526020019081526020016000206000820151816000015560208201518160010155604082015181600201556060820151816003015560808201518160040160006101000a81548173ffffffffffffffffffffffffffffffffffffffff021916908373ffffffffffffffffffffffffffffffffffffffff1602179055509050505050505050565b6000600260008381526020019081526020016000206040518060a0016040529081600082015481526020016001820154815260200160028201548152602001600382015481526020016004820160009054906101000a900473ffffffffffffffffffffffffffffffffffffffff1673ffffffffffffffffffffffffffffffffffffffff1673ffffffffffffffffffffffffffffffffffffffff1681525050905081816040015114610621576040517f08c379a000000000000000000000000000000000000000000000000000000000815260040161061890610fd9565b60405180910390fd5b6000816060015114610668576040517f08c379a000000000000000000000000000000000000000000000000000000000815260040161065f90610f99565b60405180910390fd5b6000808573ffffffffffffffffffffffffffffffffffffffff1633308760405160240161069793929190610eef565b6040516020818303038152906040527f23b872dd000000000000000000000000000000000000000000000000000000007bffffffffffffffffffffffffffffffffffffffffffffffffffffffff19166020820180517bffffffffffffffffffffffffffffffffffffffffffffffffffffffff83818316178352505050506040516107219190610ebd565b6000604051808303816000865af19150503d806000811461075e576040519150601f19603f3d011682016040523d82523d6000602084013e610763565b606091505b5091509150816107a8576040517f08c379a000000000000000000000000000000000000000000000000000000000815260040161079f90610fb9565b60405180910390fd5b85836080019073ffffffffffffffffffffffffffffffffffffffff16908173ffffffffffffffffffffffffffffffffffffffff16815250508483606001818152505082600260008681526020019081526020016000206000820151816000015560208201518160010155604082015181600201556060820151816003015560808201518160040160006101000a81548173ffffffffffffffffffffffffffffffffffffffff021916908373ffffffffffffffffffffffffffffffffffffffff1602179055509050508573ffffffffffffffffffffffffffffffffffffffff167fb2dbf97725f320c2a27ebec18fd11603eecb5f449406ea738ebe3288b33d69088460400151876040516108bc929190611034565b60405180910390a2505050505050565b6108d4610b68565b73ffffffffffffffffffffffffffffffffffffffff166108f2610954565b73ffffffffffffffffffffffffffffffffffffffff1614610948576040517f08c379a000000000000000000000000000000000000000000000000000000000815260040161093f90610ff9565b60405180910390fd5b6109526000610b70565b565b60008060009054906101000a900473ffffffffffffffffffffffffffffffffffffffff16905090565b6109876001610c34565b60006109936001610c4a565b905060006040518060a0016040528085815260200184815260200183815260200160008152602001600073ffffffffffffffffffffffffffffffffffffffff16815250905080600260008481526020019081526020016000206000820151816000015560208201518160010155604082015181600201556060820151816003015560808201518160040160006101000a81548173ffffffffffffffffffffffffffffffffffffffff021916908373ffffffffffffffffffffffffffffffffffffffff16021790555090505050505050565b60018060000154905081565b610a78610b68565b73ffffffffffffffffffffffffffffffffffffffff16610a96610954565b73ffffffffffffffffffffffffffffffffffffffff1614610aec576040517f08c379a0000000000000000000000000000000000000000000000000000000008152600401610ae390610ff9565b60405180910390fd5b600073ffffffffffffffffffffffffffffffffffffffff168173ffffffffffffffffffffffffffffffffffffffff161415610b5c576040517f08c379a0000000000000000000000000000000000000000000000000000000008152600401610b5390610f79565b60405180910390fd5b610b6581610b70565b50565b600033905090565b60008060009054906101000a900473ffffffffffffffffffffffffffffffffffffffff169050816000806101000a81548173ffffffffffffffffffffffffffffffffffffffff021916908373ffffffffffffffffffffffffffffffffffffffff1602179055508173ffffffffffffffffffffffffffffffffffffffff168173ffffffffffffffffffffffffffffffffffffffff167f8be0079c531659141344cd1fd0a4f28419497f9722a3daafe3b4186f6b6457e060405160405180910390a35050565b6001816000016000828254019250508190555050565b600081600001549050919050565b600081359050610c67816111f0565b92915050565b600081359050610c7c81611207565b92915050565b600081359050610c918161121e565b92915050565b600060208284031215610ca957600080fd5b6000610cb784828501610c58565b91505092915050565b600080600060608486031215610cd557600080fd5b6000610ce386828701610c58565b9350506020610cf486828701610c82565b9250506040610d0586828701610c82565b9150509250925092565b60008060408385031215610d2257600080fd5b6000610d3085828601610c6d565b9250506020610d4185828601610c6d565b9150509250929050565b600060208284031215610d5d57600080fd5b6000610d6b84828501610c82565b91505092915050565b60008060408385031215610d8757600080fd5b6000610d9585828601610c82565b9250506020610da685828601610c58565b9150509250929050565b610db981611084565b82525050565b610dc881611096565b82525050565b6000610dd98261105d565b610de38185611068565b9350610df38185602086016110ca565b80840191505092915050565b6000610e0c602683611073565b9150610e17826110fd565b604082019050919050565b6000610e2f601383611073565b9150610e3a8261114c565b602082019050919050565b6000610e52601583611073565b9150610e5d82611175565b602082019050919050565b6000610e75601483611073565b9150610e808261119e565b602082019050919050565b6000610e98602083611073565b9150610ea3826111c7565b602082019050919050565b610eb7816110c0565b82525050565b6000610ec98284610dce565b915081905092915050565b6000602082019050610ee96000830184610db0565b92915050565b6000606082019050610f046000830186610db0565b610f116020830185610db0565b610f1e6040830184610eae565b949350505050565b600060a082019050610f3b6000830188610dbf565b610f486020830187610dbf565b610f556040830186610eae565b610f626060830185610eae565b610f6f6080830184610db0565b9695505050505050565b60006020820190508181036000830152610f9281610dff565b9050919050565b60006020820190508181036000830152610fb281610e22565b9050919050565b60006020820190508181036000830152610fd281610e45565b9050919050565b60006020820190508181036000830152610ff281610e68565b9050919050565b6000602082019050818103600083015261101281610e8b565b9050919050565b600060208201905061102e6000830184610eae565b92915050565b60006040820190506110496000830185610eae565b6110566020830184610eae565b9392505050565b600081519050919050565b600081905092915050565b600082825260208201905092915050565b600061108f826110a0565b9050919050565b6000819050919050565b600073ffffffffffffffffffffffffffffffffffffffff82169050919050565b6000819050919050565b60005b838110156110e85780820151818401526020810190506110cd565b838111156110f7576000848401525b50505050565b7f4f776e61626c653a206e6577206f776e657220697320746865207a65726f206160008201527f6464726573730000000000000000000000000000000000000000000000000000602082015250565b7f4361636865206973206265696e67207573656400000000000000000000000000600082015250565b7f546f6b656e207472616e73666572206661696c65640000000000000000000000600082015250565b7f436163686520646f6573206e6f74206578697374000000000000000000000000600082015250565b7f4f776e61626c653a2063616c6c6572206973206e6f7420746865206f776e6572600082015250565b6111f981611084565b811461120457600080fd5b50565b61121081611096565b811461121b57600080fd5b50565b611227816110c0565b811461123257600080fd5b5056fea2646970667358221220d300e644c489c58c4a155b383d2f778cd9705993fd5c0a32c89cab511e83a78e64736f6c63430008040033",
  "linkReferences": {},
  "deployedLinkReferences": {}
}